:020000040800F2
:10000000001000207B16000879160008651600080D
:100010007F160008511600083D1600080000000079
:100020000000000000000000000000009116000821
:100030008B1600080000000085160008E516000871
:1000400097160008971600089716000897160008DC
:1000500097160008971600089716000897160008CC
:1000600097160008971600089716000897160008BC
:1000700097160008971600089716000897160008AC
:10008000971600089716000897160008971600089C
:10009000971600089716000897160008971600088C
:1000A000971600089716000897160008971600087C
:1000B000971600089716000897160008971600086C
:1000C000971600089716000897160008971600085C
:1000D000971600089716000897160008971600084C
:1000E000971600089716000897160008971600083C
:1000F000971600089716000897160008971600082C
:100100009716000800000000000000009716000885
:10011000971600089716000897160008971600080B
:1001200097160008971600089716000897160008FB
:100130009716000897160008000000000000000055
:100140009716000897160008971600080000000090
:10015000000000000000000000000000000000009F
:1001600097160008971600089716000897160008BB
:1001700097160008971600089716000897160008AB
:100180009716000897160008000000000000000005
:10019000971600089A4B9B4CD3F8882042F47002C3
:1001A0002DE98048C3F88820226842F001022260CD
:1001B0006168954A0A406260226822F0847222F4E3
:1001C00080322260226822F480222260626822F457
:1001D000FE026260E26A22F00F02E262216B8B4A49
:1001E0000A40226300214FF00062A1609A60884AB1
:1001F0009A60D3F8882042F47002C3F888204FF048
:100200000053844A1868904295B00AD1A2F1EA528C
:10021000A2F55632A2F21A2219605A607E4B1B6870
:1002200098477E4A7E4B7F498B4204D252F8040F96
:1002300043F8040BF8E77C4A7C4B7D498B4204D29F
:1002400052F8040F43F8040BF8E77A4B7A4A00217E
:10025000934202D243F8041BFAE762686949774E79
:10026000774B02F00C02042A0DD0082A0BD14A6801
:100270004868C96AC2F38342023201F00F010131BA
:10028000B3FBF1F35343336063686E4FC3F303135F
:100290004FF00009FA5C3368D34033606A4A6B4B15
:1002A000C2EB03084FEAA8089246C84505DD5AF894
:1002B0002930984709F10109F7E7654A654BC2EB18
:1002C00003084FEAA8084FF000099246C84505DD2B
:1002D0005AF82930984709F10109F7E75E4A484979
:1002E000136843F010031360CB684FF6FF021A4007
:1002F0005A4B1343CB6033684FF47A72B3FBF2F37B
:10030000013BB3F1807F08D2554A5360F02381F856
:100310002330002393600723136001F0F0F94E4A65
:10032000136823F0070343F002031360236823F4E8
:1003300080232360236843F4803323602368314A99
:100340009903FBD5136843F00103136023682D4A1A
:100350009B07FBD5536A43F001035362626A294B42
:100360009007FBD55A6822F4761242F4E8125A60DC
:10037000DA6A22F00F02DA621A6842F080721A60BA
:100380002368204A9901FBD5536823F0F00353609A
:10039000536823F0030343F0020353606268194B70
:1003A00002F00C02082AF9D15A682D4922F4E062C1
:1003B00042F480625A605A6822F460525A600A68B5
:1003C00042F004020A605A6802F00C02082A49D17D
:1003D0005A68D86A5B684FF4701191FAA1F1B1FACA
:1003E00081F103F47012CBB222FA03F3023300F06E
:1003F0000F0201321249B1FBF2F25A4333E000BF5F
:1004000000ED00E0001002400CC07FF8CCFC00FFC3
:100410000000000807B011CA04400008FC200008D2
:10042000001000206810002064210008B81A002085
:10043000881B002068100020B81A0020001000203F
:1004400000127A00AC200008E4160008E416000848
:10045000E4160008E4160008002002400003FA0534
:1004600010E000E0B04A6168F02393FAA3F3B3FA16
:1004700083F301F0F001DBB221FA03F3FB5C22FA13
:1004800003F362684FF4E06292FAA2F2B2FA82F2E7
:1004900062684FF4605292FAA2F2B2FA82F2A34971
:1004A000002705224FF47A70B3FBF0F00138486062
:1004B0008F600A600A6842F002020A60336001F04D
:1004C0001EF963699A4843F40013636163690F97E7
:1004D00003F400130993099B1197032310930DF163
:1004E000500A0123129302234AF8183D1397914FA3
:1004F000514601F035F93A683B689B1A022BFBD351
:1005000000228B4916460B6903F00203B3FA83F30A
:100510005B0963F300056FF34705EBB2B34202D00A
:1005200000221E46EFE70132FF2AFAD1760032366A
:10053000814ADFF828C2DFF814E2F3B24FF0FF314E
:1005400002939DF8083051607C491370002353706A
:10055000934601F10C051A4603EB0C00EC18C2702F
:1005600003EB0E0000260275C8180133082BC27079
:1005700022757348F0D1734C734D744B2363EB6950
:10058000606343F00073EB61EB69714803F0007343
:100590000C930C9B6B6943F480136B616B6903F4E0
:1005A00080130B930B9B6B6943F480136B616B6936
:1005B00003F480130A934FF0010803224FF002095D
:1005C0000A9B109207235146049213930393CDF88C
:1005D0003890CDF83C90CDF84480CDF8488001F0BB
:1005E000BFF8049A039B5A48109251461393CDF8D2
:1005F0003880CDF83C90CDF84480CDF8488001F0AB
:10060000AFF8544B2360A661C4F81C80C4F8208066
:100610006662C4F82C80A66001F01CFB4E4BB0FB58
:10062000F3F04FF4602323614FF48013636194F877
:1006300039306060E66003F0FF020BB984F83820BF
:10064000236884F839901A6822F002021A601A6846
:1006500042F001021A60D7F800E05A6812F0010275
:1006600008D13968CEEB01010A29F6D9032184F8B3
:1006700039104EE05A68D20772D5A269012A1A6869
:100680000CBF42F0800222F080021A60E269012A67
:100690001A680CBF42F0400222F040021A60226A3F
:1006A000012A1A680CBF42F0200222F020021A60D0
:1006B000626A012A1A680CBF42F0100222F010028E
:1006C0001A60A26A012A1A680CBF42F0080222F0DE
:1006D00008021A60E26A012A1A680CBF42F004029A
:1006E00022F004021A60A268013842F4F0121043AA
:1006F000D8611A6822F001021A6039685A68D60770
:100700000AD53A68521A0A2AF8D9032284F83920FD
:10071000002284F8382026E05A6812F001021FD126
:10072000E26301221DE000BF00127A0010E000E049
:1007300000100048B0100020C010002068100020F9
:1007400074100020781A0020001002405C1A00206B
:10075000000C004800640040A0BB0D00B410002055
:10076000042284F83920D3F80022804C42F00102A0
:10077000C3F80022D3F81C2222F00102C3F81C2285
:10078000D3F80C2222F00102C3F80C22029A02F5DF
:10079000C0666FEA46566FEA1646754AC3F840626D
:1007A000C3F84422D3F8042222F00102C3F8042241
:1007B000D3F8142222F00102C3F81422D3F81C2229
:1007C00042F00102C3F81C22D3F8002222F00102F9
:1007D000C3F8002200238BF80A308BF80B308BF81B
:1007E0000830236023714FF0005393FAA3F2B2FA5A
:1007F00082F293FAA3F2B2FA82F293FAA3F2B2FA75
:1008000082F25C4A696A93FAA3F3B3FA83F303F0C2
:100810001F0321FA03F3D8070BD5012146F201008B
:1008200001F088F80126544B26701B78637031461E
:1008300074E04FF0805393FAA3F1B1FA81F193FA87
:10084000A3F1B1FA81F193FAA3F1B1FA81F1516AFE
:1008500093FAA3F3B3FA83F303F01F0321FA03F32C
:10086000D90714D5022146F2010001F063F8424E87
:100870000223237033786370012146F2010001F0F6
:1008800025F83378FF2B14BF0121052185E04FF0B7
:10089000007393FAA3F1B1FA81F193FAA3F1B1FADB
:1008A00081F193FAA3F1B1FA81F1516A93FAA3F3BA
:1008B000B3FA83F303F01F03D94011F0010609D006
:1008C000042146F2010001F035F8042323702A4B7D
:1008D0001B785BE04FF0006393FAA3F1B1FA81F16A
:1008E00093FAA3F1B1FA81F193FAA3F1B1FA81F18C
:1008F000516A93FAA3F3B3FA83F303F01F0321FAC7
:1009000003F3DB0710D51C4F31463E7046F2010061
:1009100001F010F826703B786370012146F2010067
:1009200000F0D4FF314638E04FF0806393FAA3F132
:10093000B1FA81F193FAA3F1B1FA81F193FAA3F13B
:10094000B1FA81F1526A93FAA3F3B3FA83F303F095
:100950001F0322FA03F313F0010F074E0ED00321F9
:1009600046F2010000F0E6FF03230DE0F410002042
:100970000000FFFF0010024008000020052146F2A1
:10098000010000F0D7FF0523237033786370012145
:1009900046F2010000F09AFF0121B34A00231370D0
:1009A0004FF0807292FAA2F2B2FA82F2AF48D2B25B
:1009B000012640F82260AE4E8BF8091018464FF021
:1009C000FF314FF47A6A4FF47A7740F6FE7E06F1F3
:1009D0001C0C49F6404956F82020B9FBF2F20AFBFC
:1009E00002F2B2FBF7F202F1FF39F1454FEA80085B
:1009F00007D8B1F1FF3F04D11146013218BF58F8B2
:100A00000C3001300728E4D19A4A9B4F136351639D
:100A100003F0070345F255523A6000267B60C1F3AC
:100A20000B014CF6CC43B9603E603B6001F042F8EC
:100A3000904B92499E63EB69914843F01003EB6140
:100A4000EB6903F010030D930D9B8E4B1A681A602F
:100A50004FF47A72DA6248F6A0429A625A6942F01A
:100A600001025A611A6842F001021A60814B83F850
:100A7000406083F83D6083F83C60DE876B6943F03B
:100A800040036B616B6903F040030E930E9B7E4B3A
:100A90009A6822F018029A607C4A5A614FF0FF323D
:100AA0001A619A6822F060029A609A6822F08002C5
:100AB0009A609A6842F001029A601E714AF6AA236F
:100AC0003B600F68091A01F05DF88742054614D0B3
:100AD00081B24FF4C24000F02DFF2B0A25706370E5
:100AE00026712B0C01212D0E4FF4C240A370E5702E
:100AF00000F0ECFE04238BF809305F4B4AF6AA2283
:100B00001A60634B634A53F8036D04939B1A1946AA
:100B10001046059301F036F8864205462DD05D4A11
:100B20004FF0FF335A49914203D952F8041B0B404E
:100B3000F8E701330BD1002146F2012000F0FAFE64
:100B4000002323602371012146F2012010E0A9B2A5
:100B50004FF4C44000F0EEFE002323712B0A280E50
:100B600063702B0CE0702570A37001214FF4C4401A
:100B700000F0ACFE04238BF809309BF80930464C9A
:100B800043B93C4A062191633E4A53620323637290
:100B9000414E28E0052BFBD001F008F80423F6E7CE
:100BA0000133DFF808914FEA18274FEA18454FEA5A
:100BB000186440F02A810021802000F0BBFE002351
:100BC00089F8043089F8008089F8017089F80250AA
:100BD00089F80340802146F2012000F077FE00F002
:100BE000E5FF04237372274B224C1A6912F0010FA0
:100BF00007D06FF001021A61A36B13B1A36B013B25
:100C0000A3631D4B4AF6AA221A6094F84230ABB196
:100C1000DFF89C80214F4FF000650120204BAB4254
:100C200004D208B12846C04700F0010005F5006570
:100C3000BD42F3D110B1184A01231372164B1B7A2F
:100C4000012B00F0D880022B06D1164A136943F419
:100C50000053136100F05CFD13480268D3689907E4
:100C600028D10023AFE000BF0800002080044242EA
:100C7000BC2000086810002000300040FC3F000845
:100C8000000000080010004000300240B71DC10401
:100C9000FFFF070800400008C010002000000808FF
:100CA000FF3F000800200240781A0020F4100020C6
:100CB000C91A002090F83830012B65D0012380F844
:100CC000383090F83930BB49122B0CBF3223222325
:100CD00080F839300D68D36813F0030307D10F682B
:100CE0007F1BC82FF7D9032280F839204AE0D2F8B9
:100CF000B031416B03F004038B6023B9D2F8B031FB
:100D00005B0D0B6003E0D2F8B031DB084B60D2F82A
:100D1000B03103F00203CB60D2F8B43103F00F031B
:100D20000B61D2F8B431C3F30723CB61D2F8B831E9
:100D30000B75D2F8B8311B0A4B75D2F8B8311B0CC1
:100D40008B75D2F8B8311B0ECB75D2F8BC310B764F
:100D5000D2F8BC311B0A4B76D2F8BC311B0C8B7617
:100D6000D2F8BC311B0ECB76D36843F02003D3609E
:100D700090F83920904B322A0CBF1222012283F8BE
:100D80003920002380F83830436B18881A7C208083
:100D9000A27013330021914205D2651813F8017F28
:100DA000EF700131F7E700285CD1022A54D1E378D3
:100DB0007F33DBB2012B4FD8804B1B79002B4BD1FB
:100DC0000523737201237E4A527A052A31D1049B8E
:100DD00005997C481C6800F0D5FE8442804603D00B
:100DE000784A4FF0FF3308E04FF00053764A1A601C
:100DF000083300221A7001F043F8744991427FF6DB
:100E0000CFAE52F8041B0B40F7E71FFA88F18020A1
:100E100000F090FD002389F8043089F8008089F8FB
:100E2000017089F8025089F8034080214FF4C440D2
:100E3000D3E6032A7FF4D7AE2BB1614A0423537261
:100E400000F0B4FECFE65D4B9B6B002B7FF4CBAE86
:100E50005B4A05235372C6E6227933789A427FF4BF
:100E600000AFADE733785A4F03F5B0633B800823FA
:100E7000BB70E378802BB94604D1504A002382F836
:100E80003C306FE003F0E001202910D003D80029A6
:100E900000F02A8204E0402909D0602900F0248271
:100EA00023793B7163797B71A379BB7144E0082A94
:100EB000F6D194F805E094F804C087F805E04CEA10
:100EC0000E2109B241F2180EA2793C48404D87F834
:100ED00004C07145BA715DD048DC41F20100814225
:100EE00051D041F20300814250D0B1F5805F7BD1F7
:100EF000002A77D10425012003F0E30EBEF1230F71
:100F000040F04B81C3F381030238C3F1040301288D
:100F1000DBB200F240819D4240F0978041F6517370
:100F2000994200F09A8042F6FF7399420CD041F248
:100F30000303994200F08480264800F0EFFC1F4A2A
:100F4000002382F83C303EE7012A40F00A81042D5C
:100F50007BD1E279194B702A00F08E801E4800F098
:100F6000DDFC0323023B18BF01232CE741F6517E31
:100F7000714519D042F6FF7E71452FD041F6507E63
:100F8000714531D10BE0002A55D02BE0002A4ED01C
:100F90000A2A02E0002A4ED0042AABD922E0002A15
:100FA00049D0012A1ED123E0002A44D0012A19D1B8
:100FB0003FE000BFB0100020781A00206810002029
:100FC000C01000200040000807B011CAFFFF07084A
:100FD000B410002001000405200000085AB3501E80
:100FE00001282AD9AF48A8E7002AFBD1AE48A4E7D8
:100FF000212B03D0402B05D0AC489EE780F83C2045
:10100000602304E0022280F83C20A94A42640020C8
:10101000EB7000F077FC00F09BFF41F65073E38724
:101020000022012384F8403084F83D209AE701250E
:1010300004E0154602E001255DE7042503205BE797
:10104000002A7FF479AF012D01D09A4875E7E37942
:10105000002B83D1F272B272A4E0012A7FF46CAF4C
:10106000012DF2D1E379002B00F09C80012B7FF45D
:1010700075AF0523737295E0198946F67272914235
:101080007FF46CAF9B7A742B7FF468AF8A4BDFF8E8
:1010900038B21C6800F04EFE884B1A6992055FBF9B
:1010A000874A9A6002F188329A609BF81830012BC7
:1010B00054D0DFF808A201238BF81830DAF820307A
:1010C00023EA04045FFA84F8C4F30727C4F307454E
:1010D000240E1FFA84F900F01BFB00283BD1CBF84B
:1010E0001C0000F009FF002835D1DAF81030B8F103
:1010F000FF0F43F01003CAF8103002D1FF2F0BD1BD
:1011000011E0704A138908EA0308A2F8088000F089
:10111000FFFA0028F2D019E06A4A53891F4057812C
:1011200000F0F6FA90B9FF2D06D0664A93891D406B
:10113000958100F0EDFA48B9FF2C07D0614AD389B8
:1011400009EA0309A2F80E9000F0E2FA5B4A13697B
:1011500023F0100313615C4B00221A7602233372D2
:1011600020E0022A7FF4E8AE042D7FF46EAFE3792D
:10117000652B7FF4F3AE554B1A8946F272139A42EF
:101180007FF4ECAEA37A732B7FF4E8AE4F4B0122D1
:1011900083F8422006E04E48CFE6BEF1400F7FF4D0
:1011A0002BAF06E04B4B60220020DA7000F0AAFB68
:1011B00014E041F21803994214D041DC41F20103DA
:1011C000994219D1002A7FF4B7AEB07AC5F104056F
:1011D000AD0045F0430500F095FBFD7000F0B8FE52
:1011E0000123BFE6042A3FF6A7AEDFE802F00310B2
:1011F000101012000420E9E741F2030399420AD0DB
:10120000B1F5805F7FF498AE002A7FF495AE0020A0
:10121000DCE77068DAE70AB9F07AD7E7F37A934245
:101220000AD32D4902F10F0301EB420231F81300FA
:10123000538943EA0040C9E70A2A3FF67DAEE6E754
:1012400041F65173994206D10AB90120BEE7012A3D
:101250007FF472AEDBE742F6FF73994219D1002AA0
:10126000F3D0012A7FF468AE144A116AD369D369B6
:101270004FF4807393FAA3F3B3FA83F3174B0E4A38
:101280001B68126823EA010393420CBF14481548F7
:101290009CE741F6507399427FF44EAE002A7FF4EA
:1012A0004BAED2E71100090600000206000001065D
:1012B00000400008100007064C1A002000200240E1
:1012C0002301674500F8FF1F181A0020681000204E
:1012D00002000106B4100020C0100020501A0020A7
:1012E00070726F746E6F6E65082A7FF4D9ADB54A5F
:1012F000E08F94F840C002F107084FF0000E02F8AA
:1013000001EF9045FBD194F83CE0AF4ABEF1010FEC
:1013100040F02581002940F08A8192F83D4003F099
:101320001000844201D0A94807E66FEA530313F086
:101330000703079300F00181A54FA64CCDF808E004
:1013400002F1040B8A46F0463D46079B029A0133A0
:101350009A4280F0ED80B8F1000F00F0EC803B780D
:10136000062B00F2DF80DFE813F00700DD0011003C
:101370001A002500420053000023E3602370EB7045
:101380009BF80030A360AB70022306E09BF80020BE
:10139000AB7862601344AB7003232B70C2E09BF800
:1013A00000106268AB7841EA02220B44AB706260C5
:1013B0000423F2E79BF80020AB78EA701344052A77
:1013C000AB700AD80123934003F03303002B824B08
:1013D00004BF4FF000089A4603E0DFF8FCA14FF08D
:1013E0000008A3680BB10523D7E70623D5E7E36818
:1013F0009BF80010E21801331174AA78E3600A44E4
:10140000AA70A26893420CBF062305233B7089E0B3
:10141000AB789BF800105B42DBB2002299422A7045
:10142000AB7075D1FB78052B03D123691BBAFB6028
:1014300078E0042B06D1637C227C1B0403EB02635F
:10144000BB606FE0022B06D1637C227C1B0103EBA7
:1014500002337B6066E0012B01D13B7409E06368D5
:101460007A681A44BB68134323F000636360012366
:1014700023702A7C4AB1002300931A4601211846A2
:1014800000F074FA00F016FB4CE0636813F0010002
:1014900045D1524A43F000618A423CD3504A92F807
:1014A0000628002A3BD0D4F8089003EB0902501E0E
:1014B0004C4A8A4227D2C10A06910698D90A81422B
:1014C0004FEAD32218BF01F1010903924FEAC22269
:1014D00018BFC3EBC9299B1A0022009311464B4643
:1014E000039800F043FA70B1039B069A934219D017
:1014F000A368039800210091C9EB03034A46013019
:1015000000F034FA70B9DFF8E4A04FF0000809E009
:10151000DFF8C4A005E0DFF8D8A0804602E0DFF8DD
:10152000D0A09046029B013302930BF1010B0CE714
:10153000B8F1000F01D15046FFE4234B2A49DA7875
:10154000D70744BF002283F83C2093F83D2042F0A7
:10155000200082F01002C87083F83D203EE6BEF104
:10156000020F5FD1602962D192F83D104B4003F029
:10157000100303F0FF00002B7FF4D5AED2F84480B7
:10158000864642460123154D954233D322F0010091
:1015900040F00060C8EB020C0088D507CC444CBF7B
:1015A000000AC0B28CF8040001330C48DBB2904250
:1015B00008BF4FF0010E082B02F101024FF00100AD
:1015C000E1D118E0B71000206810002000000305EA
:1015D000381A00200419002020000008FFFF070827
:1015E000FC100020FF3F0008B4100020210000087C
:1015F0004700040600B16264C3F1080341EA4303F3
:10160000DBB2FB70BEF1000F07D00A4A43F00103C2
:10161000D370002384F83C30E0E581F0100184F8B9
:101620003D10DBE53871000A787187F806C0024882
:1016300083E400BFB4100020200000081EF0040F57
:101640000CBFEFF30880EFF309807146174A10478B
:101650001EF0040F0CBFEFF30880EFF30980714612
:10166000134A10471EF0040F0CBFEFF30880EFF38E
:10167000098071460F4A1047FEE70F48004708B53A
:1016800000F0FEFB08B500F0FBFB08B500F0F8FB2E
:1016900008B500F0F5FBFEE708B500F0F1FB08B572
:1016A00000F0EEFB08B500F0EBFB00009916000817
:0C16B000A51600089F1600089501000810
:1016BC000021000800100020681000200021000804
:1016CC00000000100000001068100020B81A002064
:0816DC000000001000000010E6
:1016E400024A136801331360704700BFB010002032
:1016F400C00A0023086013607047034BDA680022B5
:1017040083F82320704700BF00ED00E0114B12491D
:10171400186810B54CF25034CA6812F0010F0E4A22
:1017240005D01A68121AA242F6D9032010E0D36831
:10173400990644BF2023D360D368DB0604D4064B48
:10174400D86810F0040003D000F0CCFA012010BDDA
:1017540010BD00BFB0100020002002402DE9F0436E
:101764000D6895FAA5F4B4FA84F44FF0010EE4B2CE
:1017740003260F2735FA04F300F098800EFA04F3D9
:101784002B4000F09180D1F80480D0F8009093FAB7
:10179400A3FCBCFA8CFC93FAA3F2B2FA82F25FFACD
:1017A4008CFC4FEA4C0CD2B206FA0CFC520029EA2B
:1017B4000C0C08FA02F24CEA0202026008F1FF3251
:1017C400012A1AD8826893FAA3FCBCFA8CFC93FA17
:1017D400A3F9B9FA89F95FFA8CFC4FEA4C0C06FAC2
:1017E4000CFC22EA0C0C5FFA89F98A684FEA490971
:1017F40002FA09F24CEA02028260C26893FAA3FC7C
:10180400BCFA8CFC93FAA3F9B9FA89F95FFA8CFC57
:101814004FEA4C0C06FA0CFC22EA0C0C5FFA89F92C
:101824000A694FEA490902FA09F24CEA0202B8F1DC
:10183400020FC26038D193FAA3F2B2FA82F2D2B2A2
:10184400072AD1F814C017D8D0F8208093FAA3F24D
:10185400B2FA82F293FAA3F3B3FA83F3D2B2920008
:10186400DBB29B0007FA02F228EA02020CFA03FC3C
:1018740042EA0C03036217E0D0F824801B0A93FAAF
:10188400A3F2B2FA82F293FAA3F3B3FA83F3D2B2D5
:101894009200DBB207FA02F29B0028EA02020CFA79
:1018A40003FC42EA0C024262013463E74B68013BE9
:1018B400012B06D84268CB6822EA05025D43154332
:1018C40045600120BDE8F0830C4B1A7CD87180324E
:1018D4009A800822D0409A7193F844209A7293F81F
:1018E4004520DA7293F846201A7393F847205A7306
:1018F4000022187259729A7300F028BBB0100020AD
:10190400044B020AD8721A73020C000E5A739873AD
:10191400704700BFB010002008B5044B8022DA7174
:10192400FFF7EEFFBDE8084000F010BBB010002048
:1019340070B50C4AD37E092B9ABF5C1CD47609235C
:1019440053B102EB43055C1E6E8BAE8302EB430383
:10195400ED8D1D86E3B2F3E7012390831186937620
:1019640070BD00BFB01000202DE9F04F4D4CD4F8ED
:101974004C6885B0864281468846019202930BD119
:1019840094F8503843B939B94749019B0E9E0B442A
:1019940076081946002566E0424D94F850B805F1E2
:1019A4004C07BBF1000F04D0002385F85038012008
:1019B40047E0F60246F00063009300F0B9F9DA4616
:1019C400DFF8E8B094F8800937F80A1001281ED02F
:1019D4004FF00103039185F88039FFF797FE98B91A
:1019E400C5F88409DBF81000009B039940F001005E
:1019F400CBF8100023F80A10FFF788FEDBF810106C
:101A040021F00101CBF81010002184F880190AF1AB
:101A1400020ABAF5006FD5D100F080F9002240F235
:101A2400FE71B31843F000638A421888BB5A03D18D
:101A34001A1A5042504104E0834202F10202F0D0EB
:101A4400002000234FF6FF7227F813200133B3F56B
:101A5400806FF9D1134BC3F84C98B8F1000F1DD126
:101A6400002891D11AE0029B9D4216D006EB550046
:101A7400400023182044B3F84C20EB0755BF0B78E3
:101A84000B7802F47F42D2B254BF134342EA0323D9
:101A9400A0F84C3001350131E5E7012005B0BDE87F
:101AA400F08F00BFB0100020141900200020024065
:101AB4002E4ADFF8C8C0F0B500230120D2F8A0599F
:101AC4002B4F82F8883982F88A3982F88B39C2F828
:101AD4008C39C2F8903982F8983982F85438C2F8AF
:101AE4005838C2F86038C2F85C38C2F84C3882F80A
:101AF4005008C2F89C391E4619464AF6AA2E01F52A
:101B04008034BCEBC42FC7F800E008D33D299ABF4A
:101B14004B0800FA03F34FF000431E4301233D2911
:101B240098BF4C0801F1010194BF00FA04F44FF08E
:101B34000044B1F5807F45EA0405E0D10BB1C2F859
:101B44009C690C490C48C2F8A0594FF0FF338842F5
:101B540003D951F8044B2340F9E7591C4B424B413C
:101B6400BDE8F04082F8523800F0D8B8B010002038
:101B74000030004000400008FFFF0708FF3F000856
:101B8400084B9A6821F0030142F0010210B50144A8
:101B94009A601A46884203D050F8044B1460F9E75F
:101BA400186810BD00300240054B1A7C02F5E06253
:101BB4009A8001229A710022DA7100F0C7B900BF3D
:101BC400B0100020064B0022DA61064B1A6942F07D
:101BD40002021A6158611A6942F040021A617047A0
:101BE400181A00200020024008B50C4B1A680AB9E4
:101BF4000B4A1A601A680B49C31C23F003031344ED
:101C04008B4206D900F04AFA0C2303604FF0FF30F0
:101C140008BD024910460B6008BD00BF581A0020D9
:101C2400881B002000000120BFF34F8F0449054B9F
:101C3400CA6802F4E0621343CB60BFF34F8FFEE740
:101C440000ED00E00400FA0508B50120FFF7ECFF01
:101C5400094B5A684FF4E06393FAA3F3B3FA83F39E
:101C640002F4E062DBB222FA03F3044AD35C044ACE
:101C74001068D840704700BF00100240F4200008EC
:101C84000010002038B5154B1A7E012A21D01A788D
:101C940001241C7602F0FF01EAB9114A156945F4E2
:101CA400A05515610568A5420BD102201870D961B1
:101CB400136943F004031361136943F04003136190
:101CC4000AE0826840681C705A609860FFF77AFFE7
:101CD40002E0022100E02146084638BD181A00201F
:101CE400002002400B4AD36813F0100305D00A49C0
:101CF400CB6943F00203CB611023D268520706D5A7
:101D04000549CA6942F00102CA6143F00403014A69
:101D1400D360704700200240181A0020034A136958
:101D240043F0800313610020704700BF002002408D
:101D3400064B1A69120641BF054A5A6002F18832FD
:101D440000204CBF5A600120704700BF00200240B1
:101D540023016745F8B5454B454CDA6812F0100F7E
:101D640002D1DB685A070AD5A3684FF0FF33A3609A
:101D7400FFF7B8FF3F4B01221A70002323703B4A40
:101D8400D3689B0661D52023D3602178384B002982
:101D94005BD01978C9B2012918D158680138586044
:101DA4005D68354865B19D680170986800F500600C
:101DB4009860136923F002031361FFF703FF44E003
:101DC4004FF0FF329A601D7001703EE019780229CD
:101DD40009D1116921F004011161274A012111700F
:101DE40000221A7031E05968013959605968D1B13B
:101DF4009968023199609D68D3E90467300C40EA20
:101E04000740390CC3E90401116921F00101116192
:101E1400D3E904010021D961136980B243F00103BD
:101E24001361288011E01A78032A134A0DBF9B68B6
:101E340019789B6801230CBF137001214FF0FF3305
:101E440018BF1170A36000232370237803F0FF01EF
:101E540053B9064B1A6922F007021A611A6922F46F
:101E6400A0521A61024B1976F8BD00BF002002404F
:101E7400181A0020551A0020541A0020BFF34F8F5F
:101E84000449054BCA6802F4E0621343CB60BFF314
:101E94004F8FFEE700ED00E00400FA0538B5054673
:101EA400FFF734FCF0B9104B104CD861236943F0B0
:101EB40020032361236943F040032361FFF726FCD9
:101EC400236923F02003236160B9236943F01003DD
:101ED4002361074BADB21D80FFF718FC236923F083
:101EE4001003236138BD00BF181A002000200240EF
:101EF40000F8FF1F38B5134BDB6903F00603022B10
:101F040004D0062B0CBFCC25AA2500E0BB25FFF787
:101F1400FDFBA8B90C4A0B4CD061236943F02003A4
:101F24002361236943F040032361FFF7EFFB236937
:101F340023F02003236118B92846BDE83840ADE7F3
:101F440038BD00BF00200240181A0020F0B54D49EA
:101F54004D4B0D8888781D6000229A601861DA6004
:101F6400541CD2B2904205D99E180A44D2783275D4
:101F74002246F5E793F85410434ADB6401297FD0E5
:101F8400012182F8541092F855103F4C22290CBFBD
:101F94003221122182F85510D9698A68560108D471
:101FA4008A68120107D48A6812F0805263D002242E
:101FB40002E0002400E0012401EB041200F00F0011
:101FC400D2F88061186106F00106C2F88061D2F887
:101FD4008061DFF8C4E046EA4555C2F88051D2F882
:101FE40084512A4E25F00F05C2F88451D2F8845149
:101FF4002843C2F884015869C2F888019869C2F874
:102004008C01D2F88001224D40F00100C2F8800119
:10201400204A17681046D1F808C024B91C4A0CEAB3
:102024000202521B0BE0012C04D1184A0CEA0202F2
:10203400921B04E0184A0CEA0202B2EB0E0218BF2B
:1020440001225AB10268D21BC82AE4D9032283F8B8
:102054005520002283F854208B69F0BD93F8551065
:10206400094A32290CBF2221012182F8551000228D
:1020740083F85420F0BD042384F8553084F85420A8
:10208400F0BD00BFB41000205C1A0020000300085B
:1020940003000004B010002000000310014B186876
:1020A400704700BF64100020000000000000000022
:1020B40001020304060708090400000008000000E8
:1020C400100000002000000040000000800000001C
:1020D40000010000000000000100000002000000F8
:1020E40003000000040000000500000006000000DA
:0A20F4000000000001020304430095
:1021000000A24A04000000000000000000000000DF
:1021100000000000000000000000000000000000BF
:1021200000000000FC20000800000000000000008B
:10213000000000000000000000000000000000009F
:10214000000000000000000000000000000000008F
:10215000000000000000000000000000000000007F
:08216000000000000410002043
:10216800024B4AF6AA221A60704700BF00300040AE
:1021780030B587B040F000650024029406AA42F802
:10218800144D02A9284600F04BF804950394012346
:102198000593124B83F8A44983F8A54972B600F059
:1021A80027F803A800F034F803E0FFF7D9FF00F0A0
:1021B80017F80A4B93F8A43913F0FF0FF5D000F085
:1021C8001FF862B6054B93F8A53913F0FF0F01D13C
:1021D800012000E0002007B030BD00BFB010002093
:1021E80001B40248844601BC604700BF591D00087D
:1021F80001B40248844601BC604700BF351D000891
:1022080001B40248844601BC604700BF211D000894
:1022180001B40248844601BC604700BF891C00081D
:1022280001B40248844601BC604700BFF5160008A7
:040000050800019559
:020000040800F2
:043FFC009BC45E778D
:00000001FF
