:020000040800F2
:1040000000100020954100089D410008A5410008CE
:10401000D5410008E14100081142000800000000FD
:104020000000000000000000000000004142000805
:104030004D4200080000000059420008CD5002081F
:104040008142000881420008814200088142000844
:104050008142000881420008814200088142000834
:10406000814200088142000881420008E1AD010858
:104070008142000881420008814200088142000814
:10408000814200088142000881420008AD86000894
:104090009986000881420008C18600088142000814
:1040A00081420008F19C0108019D0108814200083D
:1040B00071AF010881420008E1B0010881420008A7
:1040C000814200087D5A0108915A01088142000886
:1040D00081420008CD730108814200088142000836
:1040E00081420008814200088142000881420008A4
:1040F00081420008159D01088142000881420008A4
:104100008142000800000000000000008142000819
:104110008142000881420008814200088142000873
:10412000F5AD010809AE010881420008814200088E
:1041300081420008814200080000000000000000E9
:1041400031AF010851AF01088142000800000000B2
:10415000000000000000000000000000000000005F
:104160008142000881420008814200088142000823
:104170008142000881420008814200088142000813
:104180008142000881420008000000000000000099
:104190008142000880B500AF00F076F880B400AF2F
:1041A000FEE700BF1EF0040F0CBFEFF30880EFF333
:1041B000098071462F4A104700BF00BF80B582B00A
:1041C00000AF7860396006F0E9FA00BF0837BD46F5
:1041D00080BD00BF80B500AF06F0E0FA00BF80BD33
:1041E0001EF0040F0CBFEFF30880EFF30980714657
:1041F000214A104700BF00BF80B582B000AF786091
:10420000396006F0CBFA00BF0837BD4680BD00BF5D
:104210001EF0040F0CBFEFF30880EFF30980714626
:10422000164A104700BF00BF80B582B000AF78606B
:10423000396006F0B3FA00BF0837BD4680BD00BF45
:1042400080B500AF06F0AAFA00BF80BD80B500AF10
:1042500006F0A4FA00BF80BD80B500AF06F09EFA5C
:1042600000BF80BD80B400AF00BFBD465DF8047BD9
:1042700070470000BD410008F941000829420008CC
:1042800080B400AFFEE700BF80B58EB000AF06F08F
:1042900051FA20F0DDFF394B7B63394B3B61394BE1
:1042A000FB603B69BB6007E0BB681A1DBA607A6BB4
:1042B000111D796312681A60FA68BB689A42F3D8D4
:1042C000314B3B63314BBB613B6B7B6104E07B69F2
:1042D0001A1D7A6100221A60BA697B699A42F6D87F
:1042E00006F03EFA3A463B1D1146184610F0C6FD50
:1042F000274A284BD31A9B103B620023FB6107E03F
:10430000244AFB6952F823309847FB690133FB616B
:104310003A6AFB699A42F3DC1F4A204BD31A9B107E
:104320003B620023FB6107E01C4AFB6952F8233023
:104330009847FB690133FB613A6AFB699A42F3DCF7
:104340007B683A681146184620F09CFFF862144AD0
:10435000144BD31A9B10BB62BB6A7B6208E07B6A7A
:10436000013B104A52F8233098477B6A013B7B623D
:104370007B6A002BF3DCF86A10F07AFD14930208D4
:1043800000100020BC1B0020C01B00202C36002089
:10439000D0430008D0430008D0430008D0430008B1
:0843A000D0430008D0430008DF
:1043A8001493020800100020BC1B0020149302087C
:1043B8000000001000000010C01B00202C36002058
:0843C8000000001000000010CD
:1043D00080B400AF064B002283F8C020044B0022BB
:1043E00083F8C12000BFBD465DF8047B704700BF65
:1043F000C01B002080B483B000AF154B93F8C030D1
:104400000133FB71FB7903F00703FB71104B93F849
:10441000C130FA799A420AD00D4B93F8C0301A464F
:1044200013465B0013449B00094A134409E0094BFF
:1044300093F8243043F01003DAB2064B83F82420BB
:10444000002318460C37BD465DF8047B704700BF5B
:10445000C01B00204C29002080B400AF0A4B93F809
:10446000C0300133DAB2084B83F8C020064B93F812
:10447000C03003F00703DAB2034B83F8C02000BF5B
:10448000BD465DF8047B7047C01B002080B400AFC0
:104490000C4B93F8C0200B4B93F8C1309A420AD0D2
:1044A000084B93F8C1301A4613465B0013449B0037
:1044B000044A134400E000231846BD465DF8047B1F
:1044C000704700BFC01B002080B400AF0A4B93F8B8
:1044D000C1300133DAB2084B83F8C120064B93F8A0
:1044E000C13003F00703DAB2034B83F8C12000BFE9
:1044F000BD465DF8047B7047C01B002080B400AF50
:10450000064B002283F8C220044B002283F8C3200C
:1045100000BFBD465DF8047B704700BFC01B002094
:1045200080B483B000AF154B93F8C2300133FB71F8
:10453000FB7903F00703FB71104B93F8C330FA7952
:104540009A420BD00D4B93F8C2301A4613465B00CB
:1045500013449B006033094A134409E0084B93F865
:10456000243043F00803DAB2054B83F824200023FB
:1045700018460C37BD465DF8047B7047C01B002011
:104580004C29002080B400AF0A4B93F8C2300133AD
:10459000DAB2084B83F8C220064B93F8C23003F01E
:1045A0000703DAB2034B83F8C22000BFBD465DF8B3
:1045B000047B7047C01B002080B400AF0C4B93F805
:1045C000C2200B4B93F8C3309A420BD0084B93F8A0
:1045D000C3301A4613465B0013449B006033044A01
:1045E000134400E000231846BD465DF8047B704785
:1045F000C01B002080B400AF0A4B93F8C3300133D6
:10460000DAB2084B83F8C320064B93F8C33003F0AB
:104610000703DAB2034B83F8C32000BFBD465DF841
:10462000047B7047C01B002080B500AFAC4B1B7FE4
:10463000DB43DAB2AA4B1A77A94B5B7F032B65D019
:10464000032B06DC012B27D0012B3EDC002B07D0EF
:10465000AAE07F2B10D0FF2B08D0042B7BD0A3E047
:10466000012201219F480AF021F99DE00022012149
:104670009C480AF01BF997E0994B1B7F002B05D152
:104680000022012197480AF011F98DE00122012151
:1046900094480AF00BF987E0914B9B7F0133DAB223
:1046A0008F4B9A778E4B9B7F052B08D98C4B002222
:1046B0009A77002201218B480AF0F8F874E0012271
:1046C000012188480AF0F2F86EE0854B9B7F0133A8
:1046D000DAB2834B9A77824B9B7F072B02D9804BB0
:1046E00000229A777E4B9B7F002B03D07C4B9B7FD5
:1046F000022B05D1002201217A480AF0D7F853E0B5
:104700000122012177480AF0D1F84DE0744B9B7FDC
:104710000133DAB2724B9A77714B9B7F092B02D926
:104720006F4B00229A776E4B9B7F002B07D06C4B10
:104730009B7F022B03D06A4B9B7F042B05D1002269
:10474000012168480AF0B2F82EE0012201216548F3
:104750000AF0ACF828E0624B9B7F0133DAB2604B81
:104760009A775F4B9B7F0B2B02D95D4B00229A7788
:104770005B4B9B7F002B0BD0594B9B7F022B07D0B1
:10478000574B9B7F042B03D0554B9B7F062B05D1AA
:104790000022012153480AF089F804E00122012196
:1047A00050480AF083F800BF4D4BDB7F032B70D0DD
:1047B000032B06DC012B28D0012B43DC002B08D077
:1047C000C9E07F2B11D0FF2B09D0042B00F0928081
:1047D000C1E00122022143480AF068F8BBE0002250
:1047E000022140480AF062F8B5E03D4B1B7F002BE8
:1047F00005D1002202213B480AF058F8ABE0012223
:10480000022138480AF052F8A5E0354B93F82030E1
:104810000133DAB2324B83F82020314B93F8203049
:10482000052B09D92E4B002283F8202000220221DB
:104830002C480AF03BF88EE00122022129480AF0B8
:1048400035F888E0264B93F820300133DAB2244B58
:1048500083F82020224B93F82030072B03D9204BDC
:10486000002283F820201E4B93F82030002B04D028
:104870001B4B93F82030022B05D10022022119484E
:104880000AF014F867E00122022116480AF00EF837
:1048900061E0134B93F820300133DAB2104B83F808
:1048A00020200F4B93F82030092B03D90C4B00220A
:1048B00083F820200A4B93F82030002B09D0084BB6
:1048C00093F82030022B04D0054B93F82030042BB2
:1048D0000AD100220221034809F0E8FF3BE000BFB3
:1048E0004C29002000040048012202211B4809F045
:1048F000DDFF30E01A4B93F820300133DAB2184B69
:1049000083F82020164B93F820300B2B03D9144B3F
:10491000002283F82020124B93F82030002B0ED079
:104920000F4B93F82030022B09D00D4B93F8203019
:10493000042B04D00A4B93F82030062B05D100221B
:104940000221064809F0B2FF04E0012202210348D7
:1049500009F0ACFF00BF00BF80BD00BF00040048ED
:104960004C29002080B58EB002AF7860002387F814
:104970002F3097F82F301A469E49786803F0DAFCFA
:104980000346012B2AD0022B2BD000BF7B681B785B
:1049900023F01F0387F82E307B6802331B78BB851A
:1049A000BB8D1B029AB27B6801331B789BB2134408
:1049B000BB857B68DB7887F82B307B685A788D4B1A
:1049C0005A707B689A788B4B9A707B68DA78894B3F
:1049D000DA7097F82E30402B10D00AE0012300F057
:1049E00015BE97F82F30184603F026FC002300F080
:1049F0000DBE97F82E30202B40F0F985BB8DB3F516
:104A0000805F09D197F82B30FF2B05D17A4801F050
:104A1000E3F9002300F0FABDBB8D41F21802934286
:104A20001AD197F82B30042B16D197F82E30402B43
:104A30000CD104F0DDFA0346FB6007F10C030421FE
:104A4000184601F08BF9034600F0E0BD6B4801F019
:104A5000C3F9002300F0DABDBB8DB3F5A05F0CD322
:104A6000BB8DB3F5B05F08D2BB8D7A6819460120C3
:104A700002F02AF9034600F0C9BDBB8DB3F5B05F63
:104A80000CD3BB8DB3F5C05F08D2BB8D7A681946D5
:104A9000012004F0CBFF034600F0B8BDBB8DB3F599
:104AA000C05F0CD3BB8DB3F5D05F08D2BB8D7A68E5
:104AB0001946002002F008F9034600F0A7BDBB8D9F
:104AC000B3F5D05F0CD3BB8DB3F5E05F08D2BB8DDF
:104AD0007A681946002004F0A9FF034600F096BD4D
:104AE000BB8D41F21702934240F0928097F82B3031
:104AF000002B40F08D8097F82E30402B1BD13D4B82
:104B00004B221A703E4BDB89DAB23A4B1A713C4B9E
:104B1000DB891B0A9BB2DAB2364B5A71354803F077
:104B200059FD0346002B03D144F6300004F02EF962
:104B3000012300F06BBD7B681B782B2B43D17B6876
:104B400005331B785BB2002B05DA2E4801F044F9DF
:104B5000002300F05BBD7B6805331B789AB2284BBD
:104B6000DA81274BDB891B029AB27B6804331B78FE
:104B70009BB213449AB2224BDA8104F0DBF803466D
:104B80001A461F4BDB8913449AB21D4B1A82194BEC
:104B900060221A70174B00221A71164B00225A71AC
:104BA000144B00229A71134B0022DA71114803F062
:104BB00011FD0346002B03D144F6300004F0E6F863
:104BC000012300F023BD7B681B78212B03D10E4805
:104BD00001F002F90BE07B681B78232B03D10B4813
:104BE00001F0FAF803E04FF0006001F0F5F800235F
:104BF00000F00CBD4029002011000906020001064A
:104C00004C290020310009060100040510000706A8
:104C1000BB8D41F21802934245D197F82B30002BFF
:104C200041D097F82E30402B3DD17B6804331B7860
:104C3000412B38D17B6805331B78532B33D17B68EC
:104C400006331B78452B2ED17B6807331B78FF2B4F
:104C500029D141233B7553237B754523BB75FF2326
:104C6000FB7597F82B30022B08D14D233B7543235E
:104C70007B754F23BB755023FB750BE097F82B30EA
:104C8000032B07D10623FB751523BB7587237B7583
:104C90000D233B7507F114030421184601F05EF85B
:104CA000034600F0B3BCBB8D41F65172934253D121
:104CB00097F82B30012B4FD197F82E30402B1BD17A
:104CC000A24B4F221A70A14B01221A719F4B002256
:104CD0005A719E4B00229A719C4B0022DA719B48BC
:104CE00003F078FC0346002B03D144F6300004F0B7
:104CF0004DF8012300F08ABC7B681B782F2B25D14F
:104D00007B6804331B78002B20D1914B914A1A60A9
:104D100020F000FA8D4B60221A708C4B00221A7121
:104D20008A4B00225A71894B00229A71874B0022CC
:104D3000DA71864803F04EFC0346002B03D144F69B
:104D4000300004F023F8012300F060BC824801F039
:104D500043F8002300F05ABCBB8D41F20502934298
:104D600040F0008197F82B30002B40F0FB8097F843
:104D70002E30402B21D1754B43221A70774BDB8AA2
:104D8000DAB2724B1A71754BDB8A1B0A9BB2DAB22C
:104D90006E4B5A716D4B00229A716C4B0022DA7186
:104DA0006A4803F017FC0346002B03D144F6300099
:104DB00003F0ECFF012300F029BC7B681B78232B58
:104DC00040F0BD807B6806331B78002B7CD17B686C
:104DD00007331B78002B77D17B6805331B781B02C8
:104DE0007A680432127813447F2B6DDD7B680533BB
:104DF0001B781B027A68043212781344B3F5807F63
:104E00000ADD7B6805331B781B027A68043212784E
:104E10001344B3F5C07F57DD7B6805331B781B0255
:104E20007A68043212781344B3F5B06F0ADD7B68F8
:104E300005331B781B027A68043212781344B3F5E9
:104E4000C06F41DB7B6805331B781B027A68043234
:104E500012781344B3F5C06F0ADD7B6805331B7805
:104E60001B027A68043212781344B3F5D06F2BDB3F
:104E70007B6805331B781B027A680432127813446E
:104E8000B3F5DC6F0ADB7B6805331B781B027A689D
:104E9000043212781344B3F5E06F15DB7B680533F9
:104EA0001B781B027A68043212781344B3F5E06F62
:104EB0000FDD7B6805331B781B027A680432127899
:104EC0001344B3F5006F04DA254800F085FF002392
:104ED0009CE37B6805331B789AB2204BDA821F4B28
:104EE000DB8A1B029AB21D4BDA821C4BDA8A7B6882
:104EF00004331B789BB213449AB2184BDA82174BD7
:104F0000DB8A184603F05CFE104B60221A700F4BD0
:104F100000221A710D4B00225A710C4B00229A711B
:104F20000A4B0022DA71094803F054FB0346002BB8
:104F300003D144F6300003F029FF012366E34FF06C
:104F4000006000F049FF002360E300BF402900201B
:104F5000FC3F004087436521000001064C290020EA
:104F600031000906BB8D41F2140293422BD197F810
:104F70002B30002B27D197F82E30402B1ED1AE4B73
:104F800043221A70AD4B93F82130803BDAB2AA4B22
:104F90001A71A94B00225A71A74B00229A71A64B95
:104FA0000022DA71A44803F015FB0346002B03D15D
:104FB00044F6300003F0EAFE012327E3A04800F0A6
:104FC0000BFF002322E3BB8D41F2150293426CD10B
:104FD00097F82B30002B68D197F82E30402B1FD13B
:104FE000984B9B891A4613469B0013445B003B6118
:104FF000914B4B221A703B69DAB28F4B1A713B69A5
:105000001B0ADAB28C4B5A718B4803F0E3FA034661
:10501000002B03D144F6300003F0B8FE0123F5E283
:105020007B681B782B2B34D17B6805331B783B6165
:105030003B691B027A680432127813443B613B6976
:105040000933814AA2FB0323DB089AB27D4B9A8184
:1050500003F070FE03461A467A4BDA81764B6022E3
:105060001A70754B00221A71734B00225A71724BE1
:1050700000229A71704B0022DA716F4803F0AAFA8D
:105080000346002B03D144F6300003F07FFE0123DA
:10509000BCE27B681B78232B02D16C4800F09CFE9D
:1050A000674800F099FE0023B0E2BB8D41F2030295
:1050B000934240F08E8097F82E30402B4FD197F8D6
:1050C0002B30042B04D9624800F086FE00239DE2B9
:1050D00097F82B30184601F02BFD03463B613B69E6
:1050E000B3F1FF3F36D097F82B30002B10D1524B45
:1050F0004F221A703B69DAB24F4B1A714E4B0022A5
:105100005A714D4B00229A714B4B0022DA7115E017
:10511000494B43221A703B69DAB2474B1A713B691B
:105120001B0ADAB2444B5A713B691B0CDAB2424B90
:105130009A713B691B0EDAB23F4BDA713E4803F0BD
:1051400049FA0346002B03D144F6300003F01EFE5B
:1051500001235BE23A4800F03FFE002356E27B6801
:105160001B782F2B2FD197F82B30002B26D17B6863
:1051700004331B78002B04D0364800F02DFE0023AA
:1051800044E201F08DFC2C4B60221A702A4B002265
:105190001A71294B00225A71274B00229A71264B13
:1051A0000022DA71244803F015FA0346002B03D1DC
:1051B00044F6300003F0EAFD012327E2204800F026
:1051C0000BFE002322E24FF0006000F005FE0023FA
:1051D0001CE2BB8D41F21602934240F0C98097F861
:1051E0002E30402B6AD197F82B30002B1AD1124B5E
:1051F0004F221A70104B01221A710F4B00225A7164
:105200000D4B00229A710C4B0022DA710A4803F010
:10521000E1F90346002B03D144F6300003F0B6FD5C
:105220000123F3E197F82B30012B15D9084800F042
:10523000D3FD0023EAE100BF402900204C290020D3
:105240000000010674290020CDCCCCCC100007064C
:10525000110009063100090697F82B30013B87F849
:105260002B30A94B43221A7097F82B30A74A32F8FB
:105270003330DAB2A44B1A7197F82B30A34A32F8C4
:1052800033301B0A9BB2DAB29F4B5A7197F82B301E
:105290009E4ADB0013449B88DAB29B4B9A719A4B6F
:1052A0000022DA71984803F095F90346002B03D1E8
:1052B00044F6300003F06AFD0123A7E17B681B7808
:1052C000232B48D17B6806331A78914B93F8213011
:1052D0009A4240D07B6806331B785BB2002B3ADBE6
:1052E0007B6806331A7897F82B301146184602F07F
:1052F000E3F90346002B2ED17B68063319787B68CF
:1053000005331B789BB21B029AB27B6804331B786F
:105310009BB213449AB297F82B30184602F004FA65
:10532000794B60221A70784B00221A71764B00225A
:105330005A71754B00229A71734B0022DA717248D0
:1053400003F048F90346002B03D144F6300003F084
:105350001DFD01235AE197F82B30002B03D16D4836
:1053600000F03AFD02E06C4800F036FD00234DE10C
:1053700097F82B20BB8D1146184601F0DBFA034647
:105380003B853B8D4FF6FF72934200F0CF803A8D04
:1053900013465B0013445B00604A13447B627B6AE4
:1053A0005B797B847B8C1B027B847B6A1B799AB242
:1053B0007B8C13447B8497F82E30402B46D17B6A3C
:1053C000DB7803F01003002B3BD07B6ADB7803F023
:1053D0000F03DBB27A8C97F82B10B88D03F0CEFE5A
:1053E000F861FB69002B04D0F86900F0F5FC00239C
:1053F0000CE17B8C4A4A99187B6ADB7803F00F0238
:1054000007F11003184620F0C7F83B69DBB23B7583
:105410003B691B0ADBB27B753B691B0CDBB2BB75BE
:105420003B691B0EDBB2FB757B6ADB7803F00F0375
:10543000DAB207F114031146184600F08FFC034658
:10544000E4E0384800F0C8FC0023DFE07B6ADB784A
:1054500003F02003002B51D07B681B789B10DBB23C
:1054600003F00303DBB2C3F10403FB76FA7E7B6A2D
:10547000DB7803F00F039A4204D0274800F0ACFC1D
:105480000023C3E07A8C97F82B10B88DFB7E009335
:10549000254B03F091FEF861FB69002B04D0F869FD
:1054A00000F09AFC0023B1E07B8C1D4A1344FA7E85
:1054B0001D49184620F070F8FB7E7A8C97F82B1067
:1054C000B88D03F0A3FE104B60221A700E4B002221
:1054D0001A710D4B00225A710B4B00229A710A4B24
:1054E0000022DA71084803F075F80346002B03D157
:1054F00044F6300003F04AFC012387E0094800F03D
:105500006BFC002382E000BF402900209829002086
:105510004C2900200200010610000706B88102088D
:1055200008100020000001068C1C002097F82B209A
:10553000BB8D1146184601F0ABF903463B853B8D08
:105540004FF6FF7293421DD097F82E30402B14D1A6
:105550003B8DDB002F4A1344082219462E4820F0C9
:105560001BF82D4803F036F80346002B03D144F610
:10557000300003F00BFC012348E0284800F02CFC2D
:10558000002343E0BB8D41F20102934229D197F8F9
:105590002B30002B25D197F82E30402B1CD11E4BE1
:1055A0004F221A701E4B93F823201B4B1A711A4B73
:1055B00000225A71184B00229A71174B0022DA719F
:1055C000154803F007F80346002B03D144F63000DA
:1055D00003F0DCFB012319E0104800F0FDFB002381
:1055E00014E04FF0006000F0F7FB00230EE097F8A6
:1055F0002E30802B04D00B4800F0EEFB002305E09A
:1056000097F82F30184602F017FE0123184630375E
:10561000BD4680BD807602084029002002000106B8
:105620004C2900200100040580B582B000AF0023A2
:10563000FB7121E0194B93F822305BB2002B18DB91
:10564000FB79174A1B01134408331B881BB2002B3C
:105650000FDBFB79124A1B01134408331B881846E1
:1056600003F0AEFA0346002B03D148F2220003F008
:105670008DFBFB790133FB71084B5B7EFA799A4213
:10568000D8D3064B93F8223063F07F03DAB2034B92
:1056900083F8222000BF0837BD4680BD4C2900207A
:1056A000C028002090B583B000AF0023FB715EE0FE
:1056B000FB7998B2FA791346DB009B1A9B00324AB9
:1056C0001344194603F0BAFEFC7903F033FB03469A
:1056D000023B99B22C4A2346DB001B1B9B00134460
:1056E00012330A461A80FA7927491346DB009B1ABF
:1056F0009B000B44183302221A70FC7903F01AFB4A
:105700000346023B99B2204A2346DB001B1B9B0049
:10571000134416330A461A80FA79F9791A480B4667
:10572000DB005B1A9B0003441A33187816491346B2
:10573000DB009B1A9B000B44193302461A70FA795E
:1057400011491346DB009B1A9B000B441A331B784C
:10575000002B09D1FA790C491346DB009B1A9B00F8
:105760000B441A33F1221A70FB790133FB71074B9A
:105770001B7EFA799A429BD3054B08221A8000BF00
:105780000C37BD4690BD00BFD42700204C29002017
:105790000010002090B589B004AF78600023FB733F
:1057A000524B1B78052B40F09C800023BB7392E08A
:1057B0007B681A89BB7B4E491B010B4408331B884D
:1057C0009A4240F08580BB7B494A1B011344083351
:1057D0001B881BB2002B7BDB464B9A7ABB7B444970
:1057E0001B010B440E331B789A4233D23F4B93F884
:1057F000233043F00103DAB23C4B83F82320BB7B18
:105800003B4A1B0113440C331B88D9B2BB7B384A7B
:105810001B0113440C331B881B0A9BB2D8B2BB7B01
:10582000334A1B0113440E331C78324B9B7A0122FE
:1058300002920022019200932346024648F2102071
:1058400001F0AEF90346002B3FD144F6100003F0FF
:105850009DFA3AE0BB7B264A1B0113440F331B78A9
:10586000FD2B1CD9BB7B9BB27A681146184603F00E
:10587000A9FDBB7B1E4A1B0113440C331888BB7B5C
:105880001B4A1B0113440A331988BB7B184A1B01AE
:1058900013440E331B781A4603F0C0FB15E0BB7BA4
:1058A000134A1B0113440F331B78F02B0DD8BB7B1D
:1058B0001B010F4A98187968BB7B0D4A1B011344E2
:1058C0000E331B781A461FF067FE0123FB7308E0B6
:1058D000BB7B0133BB73054B5B7EBA7B9A42FFF403
:1058E00067AFFB7B18461437BD4690BD4C2900209E
:1058F000C0280020881C002080B584B000AF03467B
:10590000FB800023FB73FA8894491346DB009B1A43
:105910009B000B4408331B88002B00F01A81FA8887
:105920008E491346DB009B1A9B000B4408331B88EF
:105930001BB2002BC0F20D81FA8888491346DB00A8
:105940009B1A9B000B441A331B78FD2B40F20181FC
:10595000FA8882491346DB009B1A9B000B441033E4
:105960001B88002B30D0FA887C491346DB009B1A39
:105970009B000B4412331B88184603F0E3F90346DF
:10598000002B21D0FA8875491346DB009B1A9B0037
:105990000B440E331B880021184603F079FB0346A5
:1059A000002B11D0FA881346DB009B1A9B006B4A30
:1059B0001A44FB881146184603F040FDFB88184640
:1059C00000F034FA0123FB73FA8864491346DB00C4
:1059D0009B1A9B000B4418331B78002B3DD0FA8890
:1059E0005E491346DB009B1A9B000B4416331B8851
:1059F000184603F0A7F90346002B00F0AA80FA88A6
:105A000056491346DB009B1A9B000B4418331B7846
:105A1000022B17D1FA8851491346DB009B1A9B00D1
:105A20000B440E331B880321184603F031FB034659
:105A3000002B00F08E80FB88184600F0F7F9012358
:105A4000FB7386E0FA8845491346DB009B1A9B00EE
:105A50000B44183300221A707BE0FA883F49134642
:105A6000DB009B1A9B000B4418331B78012B70D86A
:105A7000FA883A491346DB009B1A9B000B44143307
:105A80001B88002B65D0FA8834491346DB009B1A2B
:105A90009B000B4414331988FA8830481346DB0006
:105AA0009B1A9B00034410331B8899420AD3FA883F
:105AB0002A491346DB009B1A9B000B4410331B88BA
:105AC000002B46D1FA881346DB009B1A9B00234A21
:105AD0001A44FB881146184603F0EEFC0346002BDF
:105AE00037D0FA881346DB009B1A9B001B4A1A44E6
:105AF000FB881146184603F0A1FCFA8817491346A3
:105B0000DB009B1A9B000B4418331B78002B16D12B
:105B1000FA8812491346DB009B1A9B000B440E3394
:105B20001B880321184603F0B3FA0346002B10D05C
:105B3000FB88184600F07AF90123FB7309E0FA8824
:105B400006491346DB009B1A9B000B4418330222C4
:105B50001A70FB7B18461037BD4680BDD427002045
:105B600080B584B000AF0346FB800B467B711346C3
:105B70007B80FB88002B01D17D23FB807B79002B70
:105B800003D06F4A7B7982F821306D4B002283F875
:105B900022206B4AFB889381694A7B88D381684BBA
:105BA000002283F82320664B00229A82644B002255
:105BB0005A83634B00221A77614B00229A77604B1D
:105BC000002283F820205E4B00225A775C4BFF2294
:105BD000DA775B4B8022DA82594B00221A76584BD7
:105BE00000225A76FB88184602F058FE0346002B26
:105BF00003D148F2100003F0C9F803F09BF8034604
:105C00001A464F4B9A8203F095F80346C8339AB26E
:105C10004B4B5A834A4B93F821309BB203F5E06318
:105C20009AB2474B1A81464B01229A72444B00228A
:105C30001A70434B93F821309BB203F5B0639AB2CC
:105C4000404B1A813F4B08229A720023FB6008E008
:105C50003D4AFB68DB00134400229A71FB68013364
:105C6000FB60FB68002BF3D00023FB6017E0374993
:105C7000FA681346DB009B1A9B000B4408334FF471
:105C800000421A803149FA681346DB009B1A9B00D8
:105C90000B440E3300221A80FB680133FB60FB6863
:105CA000072BE4D90023FB6011E0294AFB681B01A4
:105CB000134408334FF400421A80254AFB681B0145
:105CC00013440C3300221A80FB680133FB60FB682D
:105CD000072BEAD9002002F073FF0346002B03D103
:105CE00048F2210003F052F8154BDB8A184602F007
:105CF00067FF0346002B03D148F2210003F046F86A
:105D0000144B00229A8100F0CBFE0D4B93F821300A
:105D10009BB203F5C0639BB2184602F051FF0346E5
:105D2000002B03D148F2230003F030F80A4B4FF662
:105D3000FF721A80012318461037BD4680BD00BF90
:105D40004C2900204029002098290020D427002039
:105D5000C0280020742900200010002080B584B0E5
:105D600000AF78600B46FB70FB78C3F104039B0027
:105D70005BB243F043035BB2DAB2164B1A700423F2
:105D8000FB7314E0FA7BFB7804339A4208DAFB7B5E
:105D90007A6811780F4AD1547B6801337B6003E045
:105DA000FB7B0C4A0021D154FB7B0133FB73FB7B53
:105DB000072BE7D9074802F00DFC0346002B03D15F
:105DC00044F6300002F0E2FF012318461037BD46CA
:105DD00080BD00BF4029002080B584B000AF78604E
:105DE000114B80221A700023FB730BE0FB7B043302
:105DF0007A68D1B20C4AD1547B681B0A7B60FB7B6A
:105E00000133FB73FB7B032BF0D9074802F0E2FB65
:105E10000346002B03D144F6300002F0B7FF00BF69
:105E20001037BD4680BD00BF4029002090B583B02B
:105E300000AF0346FB80FA8831491346DB009B1A0A
:105E40009B000B44183301221A70FC8802F072FF89
:105E500003461846FA882A491346DB009B1A9B0022
:105E60000B4414331B88034499B2254A2346DB00B4
:105E70001B1B9B00134416330A461A80FC8802F051
:105E800059FF03461846FA881D491346DB009B1A42
:105E90009B000B4410331B88034499B2184A2346D5
:105EA000DB001B1B9B00134412330A461A80FA883E
:105EB000F98813480B46DB005B1A9B0003441A3336
:105EC00018780F491346DB009B1A9B000B441933CB
:105ED00002461A70FA881346DB009B1A9B00084A98
:105EE0001344184602F076FB0346002B03D144F618
:105EF000200002F04BFF00BF0C37BD4690BD00BF35
:105F0000D427002080B586B004AF0346FB71FB792F
:105F1000802B2BD0802B04DC012B07D0022B19D037
:105F200036E0812B2ED0822B2FD031E0264B1B78F0
:105F3000052B42D0244B05221A70234BFF225A779F
:105F4000214B1B78184603F045F8FFF7ABFBFFF732
:105F50006BFB32E01C4B04221A701B4B01225A7758
:105F6000194B1B78184603F035F829E0164B7F22B1
:105F70001A70154B7F225A77134B1B78184603F083
:105F800029F81DE002F05EFF1AE002F061FF17E061
:105F9000F979012302930023019300230093002346
:105FA00000224FF4024000F0FBFD0346002B06D117
:105FB00044F6100002F0EAFE01E000BF00E000BF7E
:105FC00000BF0837BD4680BD4C29002080B586B093
:105FD00000AFB96011461A460346FB810B467B733E
:105FE0001346FB80FB89002B11D0FB89B3F5007FA2
:105FF0000DD8744B93F82130002B08D0714B93F8D7
:1060000021305BB2002B02DB7B7B082B03D948F2EB
:10601000310002F0BBFEFB8840F6A802934203D990
:1060200048F2320002F0B2FE0023FB820BE0FB8A52
:10603000654A1B0113440C331B88FA899A4209D024
:10604000FB8A0133FB825F4B5B7E9BB2FA8A9A42EA
:10605000EDD300E000BF5B4B5B7E9BB2FA8A9A42B5
:1060600014D3584B5B7E0133DAB2564B5A76554BFC
:106070005B7E082B0AD9534B5B7E013BDAB2514B56
:106080005A7648F2420002F081FE98E0FB8A4E4ABE
:106090001B0113440C33FA891A80FB8A4A4A1B01FC
:1060A00013440E337A7B1A70FB8A474A1B01134450
:1060B0000A33FA881A80BB687F2B27D9BB68B3F5EF
:1060C000807F03D9BB68B3F5C07F1FD9BB68B3F528
:1060D000B06F03D9BB68B3F5C06F17D3BB68B3F516
:1060E000C06F03D9BB68B3F5D06F0FD3BB68B3F5EE
:1060F000DC6F03D3BB68B3F5E06F07D3BB68B3F5C0
:10610000E06F29D9BB68B3F5006F25D2BB68C3F334
:106110000A03002B17D1FB89042B14D8FB8AFA89B8
:10612000013A92B2023292B2120291B2254A92F828
:10613000212092B20A4491B2234A1B01134408332E
:106140000A461A8011E0FB8A1F4A1B0113440833D8
:106150004FF400421A8008E0FB8ABA6891B21A4AEA
:106160001B01134408330A461A80BB68002B11DA5E
:10617000FA8AFB8A14491B010B4408331B886FEA17
:1061800043436FEA534398B20F4913010B4408335A
:1061900002461A80FB8A0C4A1B0113440F33FF226C
:1061A0001A70084B93F8223003F07F03DAB2054BE4
:1061B00083F82220FB891946012003F063FB18377E
:1061C000BD4680BD4C290020C028002080B586B087
:1061D00000AFB96011461A460346FB810B46BB81EE
:1061E0001346FB80FB89002B12D0FB89B3F5007F9F
:1061F0000ED8A84B93F82130002B09D0A54B93F86B
:1062000021305BB2002B03DB97F82030082B03D939
:1062100048F2310002F0BAFDBB8C40F6A80293426E
:1062200003D948F2320002F0B1FD0023FB820EE0F8
:10623000FA8A99491346DB009B1A9B000B440E33E4
:106240001B88FA899A4209D0FB8A0133FB82914B61
:106250001B7E9BB2FA8A9A42EAD300E000BF8D4BC4
:106260001B7E9BB2FA8A9A4214D38A4B1B7E01335F
:10627000DAB2884B1A76874B1B7E082B0AD9854BDE
:106280001B7E013BDAB2834B1A7648F2410002F0E2
:106290007DFDFBE0FA8A80491346DB009B1A9B00D8
:1062A0000B440E33FA891A80FA8A7B491346DB00C5
:1062B0009B1A9B000B440A3397F820201A70FA8A25
:1062C00075491346DB009B1A9B000B440C33BA8CB8
:1062D0001A80BB687F2B27D9BB68B3F5807F03D9B1
:1062E000BB68B3F5C07F1FD9BB68B3F5B06F03D9E6
:1062F000BB68B3F5C06F17D3BB68B3F5C06F03D9E4
:10630000BB68B3F5D06F0FD3BB68B3F5DC6F03D3B5
:10631000BB68B3F5E06F07D3BB68B3F5E06F30D966
:10632000BB68B3F5006F2CD2BB68C3F30A03002B24
:106330001BD1FB89042B18D8FA8AFB89FF339BB247
:106340001B0299B2534B93F821309BB20B449BB282
:1063500003F5C07398B250491346DB009B1A9B00AB
:106360000B44083302461A8017E0FA8A4A4913465A
:10637000DB009B1A9B000B4408334FF400421A8049
:106380000BE0FA8ABB6898B243491346DB009B1ABC
:106390009B000B44083302461A80BB6803F080431D
:1063A000002B15D0FA8AF98A3B480B46DB005B1AB2
:1063B0009B00034408331B8843F4804398B236495A
:1063C0001346DB009B1A9B000B44083302461A80DD
:1063D000BB68002B17DAFA8AF98A2F480B46DB00D4
:1063E0005B1A9B00034408331B886FEA43436FEA40
:1063F000534398B228491346DB009B1A9B000B4479
:10640000083302461A80FA8A23491346DB009B1A96
:106410009B000B441033BA891A80FA8A1E4913462E
:10642000DB009B1A9B000B441433FA881A80FB890B
:1064300003F5BF531F339BB20221184600F028FA20
:106440000346BB82BB8A4FF6FF7293420FD0FA8A93
:10645000BB8ADB0004331149C85C0F491346DB00DB
:106460009B1A9B000B441A3302461A7009E0FA8A01
:1064700009491346DB009B1A9B000B441A33FF2289
:106480001A70FB891946002003F0FCF91837BD4645
:1064900080BD00BF4C290020D42700208076020850
:1064A00080B588B002AFB96011461A460346FB8139
:1064B0000B46BB811346FB80F988BA89F8893B8D6E
:1064C000019397F8243000930B46B968FFF77EFEDE
:1064D0000023FB820EE0FA8A17491346DB009B1A61
:1064E0009B000B440E331B88FA899A4209D0FB8A21
:1064F0000133FB82114B1B7E9BB2FA8A9A42EAD38C
:1065000000E000BF0D4B1B7E9BB2FA8A9A4204D377
:1065100048F2410002F03AFC0AE0FA8A06491346C2
:10652000DB009B1A9B000B441A3397F820201A704B
:106530001837BD4680BD00BFD42700204C2900205D
:1065400080B582B000AF0023FB712D4802F028F81F
:106550000346002B4FD02A4B1B89002B12D1284B0E
:106560005A78284B93F821309A4203D0244B5B7819
:10657000002B40D1224B1B781846FFF7C3FC0123A8
:10658000FB7138E01E4B1A891E4BDB8A9A4207D1F9
:1065900000F06CFF0346002B2DD00123FB712AE095
:1065A0001748FFF7F7F80346012B02D10123FB71CF
:1065B00021E0134B1B891A46124B93F8213003F547
:1065C000C0639A420FD10F4B1B78042B0BD00C4B9E
:1065D0001B89803B9AB20C4B1A810948FEF7C2F91D
:1065E0000123FB7107E0064801F002F90346002B86
:1065F00001D00123FB71FB7918460837BD4680BDE9
:10660000881C00204C2900204029002080B586B03D
:1066100004AF0223FB71934B1B884FF6FD7293422C
:1066200073D9904B1B884FF6FF7293421DD102F035
:1066300081FB034603F57A739AB28B4B1A828A4820
:1066400001F0C8FF0346002B03D144F6400002F0DE
:106650009DFB844B1B88013B9AB2824B1A80002021
:1066600002F0B8FC0123FB7160E001F06FFF03460C
:1066700003F00203002B0BD07B4B1B8A184602F061
:1066800061FB0346002B03D0764B4FF6FF721A8056
:1066900001F05CFF034603F04003002B46D102F0FB
:1066A00049FB03461A46704BDB8913449AB26E4B82
:1066B0001A826D4B7F221A706B4B7F225A776A4B7E
:1066C0000022DA777F2002F085FC02F033FB0346DC
:1066D000013B9AB2654BDA810123029300230193B7
:1066E00000230093002300220021002000F058FA2C
:1066F0000346002B03D144F6100002F047FB594B30
:1067000008221A800123FB7110E0574B5B8B18465F
:1067100002F018FB0346002B08D002F00BFB0346E7
:10672000C8339AB2504B5A83FDF77EFFFB79022B98
:1067300024D14E4BDB89184602F004FB0346002BA4
:106740001CD002F0F7FA0346013B9AB2474BDA81BC
:10675000464B1B89002B11D0444801F03BFF434BB3
:1067600000221A8102F0E6FA03461A463F4B9B8943
:1067700013449AB23D4BDA810123FB71FB79022B62
:106780001DD1394B1B78052B19D1364B1B88013392
:106790009AB2344B1A80344B1B7E9AB2314B1B8811
:1067A0009A4202D82F4B00221A802E4B1B88184683
:1067B000FFF7A2F80346012B01D10123FB71FB79FE
:1067C000022B2DD1284BDB89002B29D0264B1B789F
:1067D0007F2B07D0244B1B78052B03D0224B1B7833
:1067E000042B1DD1204B1B8A184602F0ABFA03463E
:1067F000002B15D01C4801F0EDFE0346002B03D101
:1068000044F6400002F0C2FA02F094FA03461A4637
:10681000154BDB8913449AB2134B1A820123FB7187
:10682000134B1B780133DAB2114B1A70104B1B78E3
:10683000012B02D90E4B01221A700D4B1B78184602
:1068400001F01AF80346032B01D10123FB71FB79F8
:10685000022B01D10023FB71FB7918460837BD4696
:1068600080BD00BF001000204C29002074290020AA
:10687000841C002080B500AFFFF762FE0346002BAA
:1068800001D0012302E0FFF7C1FE0346184680BD98
:1068900080B489B000AF03460A46FB8013467B7183
:1068A0004FF6FF73FB820023FB83FB881B0A9BB21E
:1068B0007B75FB883B751E4BBB612CE0BB693B6164
:1068C000BB690833BB613B6901333B613B691B78A2
:1068D000FB733B6901333B613B691B78BB73FB7BFB
:1068E000FF2B02D1BB7BFF2B1AD0FA7B3B7D9A4258
:1068F0000ED1BA7B7B7D9A420AD13B6901333B6161
:106900003B691B787A799A4202D1FB8BFB8207E0C4
:10691000FB8B0133FB83FB8B4FF6FF729342CDD190
:10692000FB8A18462437BD465DF8047B704700BFDC
:106930008076020880B487B000AF03460A46FB8029
:1069400013467B710023FB824FF6FF73FB811A4BCA
:106950003B6122E03B695B78BB81BB891B02BB8149
:106960003B691B789AB2BB891344BB81BB894FF644
:10697000FF72934217D0BA89FB889A4207D13B69CC
:106980009B787A799A4202D1FB8AFB810CE03B69C1
:1069900006333B61FB8A0133FB82FB8A4FF6FF72B1
:1069A0009342D7D100E000BFFB8918461C37BD4693
:1069B0005DF8047B704700BFB881020880B487B0DF
:1069C00000AF03460A46FB8013467B714FF6FF7308
:1069D000FB82314B1B883B820023BB823B8A013BFD
:1069E0007B824DE0BA8A7B8A13445B10FB810023D3
:1069F000BB81FA89294913465B0013445B000B44B1
:106A00001B78BB81FA89254913465B0013445B0060
:106A10000B4401331B781B021AB2B7F90C30134335
:106A20001BB2BB81FA88BB899A420ED1FA891B49F5
:106A300013465B0013445B000B4402331B787A79E6
:106A40009A4202D1FB89FB821EE0FA88BB899A42F6
:106A50000FD8FA88BB899A420FD1FA890F49134699
:106A60005B0013445B000B4402331B787A799A4233
:106A700003D9FB890133BB8202E0FB89013B7B82A6
:106A8000BA8A7B8A9A42ADD9FB8A18461C37BD4622
:106A90005DF8047B704700BFB2180020B88102087F
:106AA00080B400AF064B002283F82020044B002264
:106AB00083F8212000BFBD465DF8047B704700BF0E
:106AC0007429002080B483B000AF7860174B93F82E
:106AD0002030164904337A6841F82320134B93F889
:106AE00020300133DAB2114B83F820200F4B93F89A
:106AF0002030032B03D90D4B002283F820200B4BB1
:106B000093F821300133DAB2084B83F82120074B88
:106B100093F82130032B03D9044B042283F821205E
:106B200000BF0C37BD465DF8047B70477429002018
:106B300080B485B000AF0346FB714FF0FF33FB60BC
:106B4000FB79002B04D1154B93F82130FB601DE03D
:106B5000124B93F82130FA799A4217D80F4B93F8D9
:106B600020309AB2FB799BB2D31A9BB27B81B7F9E2
:106B70000A30002B03DA7B8904339BB27B81B7F99F
:106B80000A30064A043352F82330FB60FB6818468B
:106B90001437BD465DF8047B704700BF74290020A0
:106BA00090B585B000AF0446084611461A46234604
:106BB000FB8003467B710B463B711346FB7097F8D5
:106BC0002830002B18D02C4B1A78FB88DBB29A4265
:106BD00012D1294B5A78FB881B0A9BB2DBB29A422E
:106BE0000AD1FB88002B07D0FB8848F23012934271
:106BF00002D00023FB7339E0204B93F821309BB285
:106C000080339AB21C4B1A811B4B08229A72FB8864
:106C1000DAB2194B1A70FB881B0A9BB2DAB2164B18
:106C20005A70164B93F82320134B9A70124A7B79B3
:106C3000D370114A3B7913710F4AFB7853710E4A96
:106C400097F8203093710C4A97F82430D3710123C0
:106C5000FB73FB88002B09D0FA887B791B041A444C
:106C60003B791B0613441846FFF72CFFFB7B1846A5
:106C70001437BD4690BD00BF742900204C29002068
:106C800080B582B000AF0F4B60221A700423FB71F5
:106C900006E0FB790B4A0021D154FB790133FB71EB
:106CA000FB79072BF5D9074801F094FC0346002B2C
:106CB00003D144F6300002F069F800BF0837BD4642
:106CC00080BD00BF4029002080B586B000AF0346DC
:106CD0003A60FB710B46BB8000237B823B681B78CC
:106CE0007B74BB88C3F308039BB20133BB827B7CFC
:106CF0009B08DBB203F00303DBB2C3F104033B7474
:106D0000FB79002B1FD10023FB820DE0FB8A0133AE
:106D1000FB82954B1B7E9BB2FA8A9A4204D393481E
:106D2000FFF75AF8002392E3FA8A91491346DB00F1
:106D30009B1A9B000B440E331B88BA8A9A42E5D1FA
:106D4000FB8ABB821BE00023FB820DE0FB8A013340
:106D5000FB82854B5B7E9BB2FA8A9A4204D38348BE
:106D6000FFF73AF8002372E3FB8A824A1B011344BF
:106D70000C331B88BA8A9A42E8D1FB8ABB823B68F3
:106D800003331B78002B17D17B7C402B0FD1FB7971
:106D9000002B02D105233B7201E002233B7207F175
:106DA000080301211846FEF7D9FF01234FE372487B
:106DB000FFF712F800234AE3FB79002B0AD1BA8AC5
:106DC0006B491346DB009B1A9B000B4408331B885E
:106DD0007B8206E0BB8A674A1B01134408331B8889
:106DE0007B823B6803331B78012B40F0CD817B7C99
:106DF000402B33D1B7F91230002B03DB5F4B00225D
:106E0000DA7102E05D4B8022DA71FB79002B06D14A
:106E10005A4BDB7943F04003DAB2584BDA71574BE7
:106E200000229A717B8A1B0A9BB2DBB203F0070334
:106E3000DAB2524B5A717B8ADAB2504B1A714F4B0D
:106E400043221A704D4801F0C5FB0346002B03D1C5
:106E500044F6300001F09AFF0123F8E23B7C042B5A
:106E600004D04748FEF7B8FF0023F0E23B68053343
:106E70001B781B023A680432127813447F2B6DDDB5
:106E80003B6805331B781B023A68043212781344BE
:106E9000B3F5807F0ADD3B6805331B781B023A6837
:106EA000043212781344B3F5C07F57DD3B680533D5
:106EB0001B781B023A68043212781344B3F5B06FA2
:106EC0000ADD3B6805331B781B023A6804321278EE
:106ED0001344B3F5C06F41DB3B6805331B781B02DD
:106EE0003A68043212781344B3F5C06F0ADD3B6888
:106EF00005331B781B023A68043212781344B3F549
:106F0000D06F2BDB3B6805331B781B023A680432D9
:106F100012781344B3F5DC6F0ADB3B6805331B784A
:106F20001B023A68043212781344B3F5E06F15DBA4
:106F30003B6805331B781B023A680432127813440D
:106F4000B3F5E06F20DD3B6805331B781B023A6820
:106F5000043212781344B3F5006F15DA0948FEF7CE
:106F60003BFF002373E200BF4C2900200000020613
:106F7000D4270020C028002002000106402900205C
:106F80001000070630000906FB79002B40F08B80CB
:106F9000BA8AAB491346DB009B1A9B000B440833AB
:106FA0001B881BB2002B1BDBBA8AA5491346DB00EA
:106FB0009B1A9B000B4408331B88C3F30A023B68EF
:106FC00005331B781B023968043109780B449A4257
:106FD00006D03B6807331B785BB2002B80F2CF8072
:106FE000BA8A3B6804331B7819B23B6805331B78B7
:106FF0001B021BB20B431BB298B291491346DB0034
:107000009B1A9B000B44083302461A803B680733E7
:107010001B785BB2002B17DABA8AB98A88480B460C
:10702000DB005B1A9B00034408331B886FEA434371
:107030006FEA534398B282491346DB009B1A9B00C8
:107040000B44083302461A8001F074FE0346FB81AC
:10705000BA8A7B491346DB009B1A9B000B44123310
:10706000FA891A80BA8A76491346DB009B1A9B007C
:107070000B44183300221A70BA8AB98A70480B463A
:10708000DB005B1A9B0003441A3318786C491346E3
:10709000DB009B1A9B000B44193302461A70FFF762
:1070A000EFFD0123D3E1BB8A664A1B011344083379
:1070B0001B881BB2002B17DBBB8A624A1B011344DF
:1070C00008331B88C3F30A023B6805331B781B0295
:1070D0003968043109780B449A4205D03B6807337C
:1070E0001B785BB2002B4ADABB8A564A1B01134459
:1070F00008331B88184601F0CBFD534B93F8223020
:1071000003F07F03DAB2504B83F82220BB8A3A683F
:107110000432127811B23A6805321278120212B2B1
:107120000A4312B291B2474A1B01134408330A467C
:107130001A803B6807331B785BB2002B12DABA8ADD
:10714000BB8A40491B010B4408331B886FEA434349
:107150006FEA534398B23B4913010B44083302468C
:107160001A8008E0BB8A374A1B01134408331B8886
:10717000184601F025FDFFF783FD012367E1334841
:10718000FEF72AFE002362E17B7C232B08D1B7F9AE
:107190001230002B04DB2D48FEF71EFE002356E1C3
:1071A0003B6803331B78022B40F086807B7C402BAE
:1071B0002AD1FB79002B18D1BA8A21491346DB006A
:1071C0009B1A9B000B441A331B78F12B02D100232E
:1071D0003B7211E0BA8A1A491346DB009B1A9B00E6
:1071E0000B441A331B783B7206E0BB8A154A1B011D
:1071F00013440F331B783B7207F108030121184633
:10720000FEF7ACFD012322E13B7C012B04D01048AA
:10721000FEF7E2FD00231AE13B6804331B78FD2BE7
:1072200004D10C48FEF7D8FD002310E13B6804337D
:107230001B78FC2B10D10748FEF7CEFD002306E19A
:10724000D4270020C02800204C290020000001067F
:107250001000070630000906FB79002B1FD1BA8AFF
:107260003B6818797C491346DB009B1A9B000B4452
:107270001A3302461A70BA8AB98A77480B46DB007D
:107280005B1A9B0003441A33187873491346DB00DA
:107290009B1A9B000B44193302461A7008E0BB8A04
:1072A0003A6811796D4A1B0113440F330A461A706C
:1072B000FFF7E6FC0123CAE0FB79002B04D0684805
:1072C000FEF78AFD0023C2E03B6803331B78032BE3
:1072D00050D17B7C402B1DD1BA8A5F491346DB001D
:1072E0009B1A9B000B4414331B881A4692001344CC
:1072F0005B007B827B8ADBB23B727B8A1B0A9BB280
:10730000DBB27B7207F1080302211846FEF726FD67
:1073100001239CE03B7C022B04D05248FEF75CFD2D
:10732000002394E03B6805331B781B023A68043263
:107330001278134409334C4A82FB03129210DB1774
:10734000D31AFB81BA8A44491346DB009B1A9B007F
:107350000B441433FA891A80BA8A3F491346DB007A
:107360009B1A9B000B44183300221A70FFF788FC0D
:1073700001236CE03B6803331B78052B63D17B7CD6
:10738000402B19D1BA8A34491346DB009B1A9B0063
:107390000B4410331B887B827B8ADBB23B727B8A77
:1073A0001B0A9BB2DBB27B7207F10803022118466D
:1073B000FEF7D4FC01234AE03B7C022B04D0294891
:1073C000FEF70AFD002342E03B6805331B789BB2C1
:1073D0001B029AB23B6804331B789BB21344FB81B7
:1073E000BA8A1D491346DB009B1A9B000B441033DD
:1073F000FA891A80BA8A18491346DB009B1A9B0047
:107400000B4410331B881BB2002B0ADABA8A1249CC
:107410001346DB009B1A9B000B44103347F6FF72A8
:107420001A8001F087FC0346FB81BA8A0A49134699
:10743000DB009B1A9B000B441233FA891A80FFF77A
:107440001FFC012303E00648FEF7C6FC0023184694
:107450001837BD4680BD00BFD4270020C0280020BB
:1074600011000906100007066766666680B582B0DF
:1074700000AF8E4B1B78052B01D0002312E10023B7
:107480007B710023FB80C6E0FA8889491346DB0044
:107490009B1A9B000B4408331B881BB2002BC0F2C5
:1074A000B780FA8882491346DB009B1A9B000B4485
:1074B0001A331B78002B0AD0FA887D491346DB006B
:1074C0009B1A9B000B441A331B78F12B47D1FA8887
:1074D0001346DB009B1A9B00754A1A44FB88114631
:1074E000184601F0E9FF0346002B0AD1FA887049DB
:1074F0001346DB009B1A9B000B441A331B78F12BBD
:107500002DD1FA886A491346DB009B1A9B000B4475
:107510001A3300221A70FA8865491346DB009B1A59
:107520009B000B440E331B880221184601F0B0FD6E
:107530000346002B13D0FA881346DB009B1A9B00EE
:107540005B4A1A44FB881146184601F077FFFB8816
:107550001846FEF76BFC7B7943F001037B71FA88D8
:1075600053491346DB009B1A9B000B441A331B78CC
:10757000002B4DD0FA884E491346DB009B1A9B0026
:107580000B441A331B78F02B42D8FA88484913462B
:10759000DB009B1A9B000B4419331B78013BD8B2CC
:1075A00043491346DB009B1A9B000B4419330246E8
:1075B0001A70FA883E491346DB009B1A9B000B4465
:1075C00019331B78002B23D1FA8839491346DB0085
:1075D0009B1A9B000B440E331B880121184601F0B7
:1075E00057FD0346002B13D0FA881346DB009B1A85
:1075F0009B002F4A1A44FB881146184601F01EFFD3
:10760000FB881846FEF712FC7B7943F001037B717F
:10761000FB880133FB80254B1B7E9BB2FA889A4284
:10762000FFF432AF0023FB8035E0FB88214A1B01C9
:10763000134408331B881BB2002B29DBFB881D4A2F
:107640001B0113440F331B78F02B21D8FB881B013F
:10765000184A1A44FB881146184601F0B3FEFB880D
:10766000144A1B0113440C331888FB88114A1B0170
:1076700013440A331988FB880E4A1B0113440E3346
:107680001B781A4601F0CAFC7B7943F002037B7138
:10769000FB880133FB80054B5B7E9BB2FA889A42E4
:1076A000C3D37B7918460837BD4680BD4C290020DE
:1076B000D4270020C028002080B485B000AF034646
:1076C0000A46FB711346BB710023BB73FB79013B78
:1076D000FB71FB79134ADB0013449B881A46BB7984
:1076E00003F5E0639A4215D00123FB730FE0FB7BA7
:1076F000013BFB73BB7903F5E062FB7B0949DB00CF
:107700000B449B889A4202D10123BB7302E0FB7BAE
:10771000002BECD1BB7B18461437BD465DF8047BCB
:10772000704700BF9829002080B582B000AF0346A3
:10773000FB710B46BB711346BB8097F90630002BDB
:1077400005DBFB79002B02D0FB79012B03D949F62D
:10775000011001F01BFBFB79013BFB71BB79002B96
:1077600002D0BB88002B11D1FB79204ADB001344E7
:1077700000229A71FB791D4A002122F83310FB790F
:107780001A4ADB00134400229A802BE0B7F9043038
:10779000002B02DA47F6FF73BB80FB791349BA88E6
:1077A00021F83320FB79BA7992B202F5E06291B206
:1077B0000E4ADB0013440A469A80FB790B4ADB0031
:1077C000134401229A71FB79084ADB0013449B8819
:1077D000184601F0F5F90346002B03D149F60210D3
:1077E00001F0D4FA00BF0837BD4680BD98290020BB
:1077F00090B585B000AF78600023BB730023FB73A6
:107800002EE0FB7B1A4ADB0013449B79002B24D02B
:107810007B681A89FB7B1649DB000B449B889A42E4
:107820001BD1FB7B124ADB00134402229A71FC7BC2
:1078300001F080FA03461946FB7B0D4A32F83330DB
:107840000B4499B20A4AE30013440A465A80094B92
:107850000022DA770123BB7305E0FB7B0133FB7366
:10786000FB7B002BCDD0BB7B18461437BD4690BDAB
:10787000982900204C29002080B586B004AF03462B
:10788000FB71FB79002B02D0FB79012B03D949F660
:10789000031001F07BFAFB79013BFB71FB79234A72
:1078A000DB0013449B79022B36D1FB791F4ADB00A6
:1078B00013445B88184601F045FA0346002B2BD091
:1078C000FB791A4ADB0013449B88D9B20123029347
:1078D00000230193002300930023002248F230107C
:1078E000FFF75EF9124B0222DA77FB790F4ADB00D1
:1078F00013449B88DBB2184601F082FB0C4B7F22BD
:107900001A700B4B1B78184601F064FBFB79074A91
:10791000DB00134401229A71FB79044ADB00134413
:107920009B7918460837BD4680BD00BF98290020C6
:107930004C29002080B584B000AF78607B6860225D
:107940001A700423FB7306E0FB7B7A680021D15494
:10795000FB7B0133FB73FB7B072BF5D9786800F0C9
:1079600039FE0346002B03D14FF4EE6001F00EFA0E
:1079700000BF1037BD4680BD80B584B000AF7860D1
:107980000B46FB70FA7821491346DB009B1A9B00DB
:107990000B441A331B7803F01003DAB27B681A70B9
:1079A0007B681B782033DAB27B681A700123FB7383
:1079B00006E0FB7B7A680021D154FB7B0133FB732B
:1079C000FB7B072BF5D9786800F004FE0346002BFB
:1079D00003D14FF4EE6001F0D9F9FA78F9780B4849
:1079E0000B46DB005B1A9B0003441A331B78DB4316
:1079F000D8B206491346DB009B1A9B000B441A338E
:107A000002461A7000BF1037BD4680BD941C00208E
:107A100080B483B000AF3A601A460346FB710B4650
:107A2000BB7113467B713FE07A7924491346DB0032
:107A30009B1A9B000B441B68002B01D1002337E0ED
:107A40007A791E491346DB009B1A9B000B441433C2
:107A50001B683A6812781A703B6801333B607A7988
:107A600016491346DB009B1A9B000B4414331B681A
:107A7000591C12481346DB009B1A9B000344143325
:107A80001960BB79013BBB717A790C491346DB0065
:107A90009B1A9B000B441B68591E08481346DB00C9
:107AA0009B1A9B0003441960BB79002BBCD10123B6
:107AB00018460C37BD465DF8047B7047941C0020C7
:107AC00090B585B000AF78600B46FB707B68BB60FB
:107AD0000723FB737B6801337B6033E0FA787E49D0
:107AE0001346DB009B1A9B000B4414331B681A7867
:107AF0007B681A707B6801337B60FA78764913469D
:107B0000DB009B1A9B000B4414331B68591C724802
:107B10001346DB009B1A9B00034414331960FB7B64
:107B2000013BFB73FA786C491346DB009B1A9B0000
:107B30000B441B68591E68481346DB009B1A9B00C8
:107B400003441960FB7B002B09D0FA786249134685
:107B5000DB009B1A9B000B441B68002BBED1FA78FC
:107B60005D491346DB009B1A9B000B441B68002BEE
:107B70007DD1FB780133D8B2FA7857491346DB0040
:107B80009B1A9B000B440C331C88FA78524913460D
:107B9000DB009B1A9B000B4418331978FA781346C4
:107BA000DB009B1A9B004C4A13440A46214601F015
:107BB00065FBFA7848491346DB009B1A9B000B448F
:107BC0001B68002B46D0FA78F97843480B46DB0057
:107BD0005B1A9B000344103319683F481346DB00CF
:107BE0009B1A9B0003441433196033E0FA783A4936
:107BF0001346DB009B1A9B000B4414331B681A7856
:107C00007B681A707B6801337B60FA7832491346CF
:107C1000DB009B1A9B000B4414331B68591C2E4835
:107C20001346DB009B1A9B00034414331960FB7B53
:107C3000013BFB73FA7828491346DB009B1A9B0033
:107C40000B441B68591E24481346DB009B1A9B00FB
:107C500003441960FB7B002B09D0FA781E491346B8
:107C6000DB009B1A9B000B441B68002BBED1FA78EB
:107C700019491346DB009B1A9B000B441A331B78EF
:107C80001B01DBB203F01003DAB2FB7B5B00DBB25B
:107C90001344DAB2BB681A70FA780F491346DB0056
:107CA0009B1A9B000B441B68002B10D1BB681B78F0
:107CB00043F00103DAB2BB681A70FA78064913463A
:107CC000DB009B1A9B000B44193300221A7000BF83
:107CD0001437BD4690BD00BF941C0020B0B58AB0DB
:107CE00002AFB9607A601A460346FB8113467B7384
:107CF0000023FB7700233B617A7BA2491346DB001C
:107D00009B1A9B000B4419331B78022B0AD07A7BF9
:107D10009C491346DB009B1A9B000B4419331B78CC
:107D2000042B62D1BB681B7803F0E003002B0BD05F
:107D30007A7B94491346DB009B1A9B000B44193352
:107D400000221A70F02370E2BB681B7819117A7B4D
:107D50008C481346DB009B1A9B0003441A331B78A4
:107D60004B4003F00103002B0BD07A7B854913466F
:107D7000DB009B1A9B000B44193300221A7002236C
:107D800053E2BB681B7803F00103D8B2BB681B78D1
:107D90005B10DBB2DB43DBB203F00703D9B2BB6895
:107DA0005A1C7B7BFFF734FE0346012B0BD07A7BFA
:107DB00074491346DB009B1A9B000B4419330022C5
:107DC0001A70032331E2BB681B7803F00103002B18
:107DD00009D07A7B6B491346DB009B1A9B000B444E
:107DE000193300221A7001231FE27A7B654913467A
:107DF000DB009B1A9B000B4419331B78012B4AD1E3
:107E0000BB681B7803F0E003602B0BD07A7B5D49E5
:107E10001346DB009B1A9B000B44193300221A7097
:107E2000F02302E2BB681B7819117A7B5548134690
:107E3000DB009B1A9B0003441A331B784B4003F072
:107E40000103002B0BD07A7B4E491346DB009B1AB3
:107E50009B000B44193300221A700223E5E17B7B5F
:107E600019467868FFF72CFE7A7B797B45480B46EC
:107E7000DB005B1A9B0003441A331B78DB43D8B248
:107E800040491346DB009B1A9B000B441A33024601
:107E90001A702023C9E1BB681B7803F0F003202B84
:107EA00040F0D880FB7F002B1BD1BB6803331978CF
:107EB0007A7B1346DB009B1A9B00324A9C187A7B24
:107EC0001346DB009B1A9B0010332E4A13440433E5
:107ED00007F11702F8890093234600F0C5F903461D
:107EE000FB77FB7FFF2B00F0B380FB7D03F02003CB
:107EF000002B09D07A7B23491346DB009B1A9B0099
:107F00000B441B68032B01D804238EE1BB681B784C
:107F100003F00203002B37D07A7B1A491346DB00AB
:107F20009B1A9B000B4414331B68BA6812791A70B1
:107F30007A7B14491346DB009B1A9B000B441433D5
:107F40001B680133BA6852791A707A7B0D4913465F
:107F5000DB009B1A9B000B4414331B680233BA6886
:107F600092791A707A7B07491346DB009B1A9B00B3
:107F70000B4414331B680333BA68D2791A70102388
:107F800053E100BF941C0020BB6807331B78BB6122
:107F9000BB691B02BB61BB6806331B781A46BB6911
:107FA0001344BB61BB691B02BB61BB6805331B7813
:107FB0001A46BB691344BB61BB691B02BB61BB684A
:107FC00004331B781A46BB691344BB617A7B994919
:107FD0001346DB009B1A9B000B441A68BB699A424C
:107FE00001D2072321E17A7B92491346DB009B1AD9
:107FF0009B000B44BA691A607A7B8E491346DB00FA
:108000009B1A9B000B44193302221A707A7B894910
:108010001346DB009B1A9B000B441A3300221A7094
:108020007A7B84491346DB009B1A9B000B440C337C
:10803000FA891A807A7BBB68D8787E491346DB00C0
:108040009B1A9B000B44183302461A701023ECE075
:108050000023EAE0BB681B78402B40F0E5807B7B87
:108060000133D8B2BB6803331D787A7B1346DB003B
:108070009B1A9B006F4A99187A7B1346DB009B1A68
:108080009B0010336B4A1344043307F11002FC8940
:108090000193009113462A46214601F0D5F8034684
:1080A000FB77FB7F012B01D9FB7FBEE0FB7F002B21
:1080B00011D07A7B797B5F480B46DB005B1A9B0013
:1080C0000344143319685B481346DB009B1A9B007A
:1080D0000344103319601023FB75FB7F002B1BD169
:1080E000BB68033319787A7B1346DB009B1A9B002D
:1080F000504A9C187A7B1346DB009B1A9B00103376
:108100004C4A1344043307F11702F88900932346BD
:1081100000F0AAF80346FB77FB7FFF2B00F084807A
:10812000FB7D03F01003002B01D105237DE07A7B5A
:1081300040491346DB009B1A9B000B441933012274
:108140001A707A7B3B491346DB009B1A9B000B4459
:108150001A3300221A707A7B36491346DB009B1AC9
:108160009B000B440C33FA891A807A7BBB68D87861
:1081700030491346DB009B1A9B000B441833024620
:108180001A707B6841221A703B69002B17D07B68FC
:1081900004333A69D2B21A707B6805333A69120A1D
:1081A000D2B21A707B6806333A69120CD2B21A70D6
:1081B0007B6807333A69120ED2B21A7032E07B68DC
:1081C000191D7A7B1B481346DB009B1A9B00034456
:1081D0001B68DBB20B707B68591D7A7B1548134610
:1081E000DB009B1A9B0003441B681B0ADBB20B706D
:1081F0007B68991D7A7B0F481346DB009B1A9B0016
:1082000003441B681B0CDBB20B707B68D91D7A7BA7
:1082100008481346DB009B1A9B0003441B681B0E97
:10822000DBB20B70202300E0002318462037BD4648
:10823000B0BD00BF941C002080B483B000AF0346E3
:10824000FB71FA7907491346DB009B1A9B000B442C
:10825000193300221A7000BF0C37BD465DF8047B4D
:10826000704700BF941C002080B489B000AFBA6092
:108270007B600346FB810B467B730023FB7749E061
:10828000FB7FDB00294A1344BB61BB695B78FB823F
:10829000FB8A1B02FB82BB691B789AB2FB8A1344E0
:1082A000FB82FB8A4FF6FF72934237D0FA8AFB8932
:1082B0009A422CD1BB699B787A7B9A4227D1BB69C1
:1082C000DA78BB681A70BB695B791A467B681A60FA
:1082D0007B681B681A027B681A607B681B68BA6936
:1082E00012791A447B681A60BB69DB79FB82FB8ACE
:1082F0001B02FB82BB699B799AB2FB8A1344FB8207
:10830000FB8A0B4A1A44BB6A1A60FB7F08E0FB7FBA
:108310000133FB77FB7FFF2BB2D100E000BFFF23CF
:1083200018462437BD465DF8047B7047409202082A
:108330000810002080B586B000AFF860B960134621
:10834000FB71FB685A78BB685A70FB689A78BB6807
:108350009A70FB68DA78BB68DA70FB681B78802B50
:108360000BD1FA7960491346DB009B1A9B000B4442
:10837000193300221A700023B1E0FB681B7803F068
:10838000E003E02B03D0FB681B78A02B0ED1FA7919
:1083900055491346DB009B1A9B000B4419330022FE
:1083A0001A705248FDF718FD022398E0FB6802336B
:1083B0001B78FB82FB8A1B029AB2FB6801331B7895
:1083C0009BB21344FB82BA68FB79F88AF968FFF71D
:1083D00085FC03467B757B7D212B78D801A252F862
:1083E00023F000BFDB8400086D8400087B84000854
:1083F000858400088F84000899840008A3840008FD
:10840000CF840008CF840008CF840008CF84000800
:10841000CF840008CF840008CF840008CF840008F0
:10842000CF840008AD840008CF840008CF84000802
:10843000CF840008CF840008CF840008CF840008D0
:10844000CF840008CF840008CF840008CF840008C0
:10845000CF840008CF840008CF840008CF840008B0
:10846000CF840008B7840008B7840008FB79194658
:10847000B868FFF781FA012331E01D48FDF7ACFC35
:1084800002232CE01B48FDF7A7FC022327E01A4833
:10849000FDF7A2FC022322E01848FDF79DFC022311
:1084A0001DE01748FDF798FC022318E0B868FFF7B5
:1084B00041FA012313E0B86800F08CF80346002B62
:1084C00003D14FF4EE6000F061FC012307E04FF0B0
:1084D0000060FDF781FC022301E000BF0023184685
:1084E0001837BD4680BD00BF941C00200100040564
:1084F000000003052000000802000106010001063B
:108500000000020680B400AF0F4B1B689B6803F0AD
:108510008063002B0DD10C4B1B689B6803F000633C
:10852000002B06D1084B1B689B6803F08053002B7F
:1085300001D0012300E0002303F00103DBB2184661
:10854000BD465DF8047B7047B01C002080B500AFCD
:10855000FBF79CFF0346002B07D1FFF7D3FF034631
:1085600083F00103DBB2002B09D00C4B93F82430CD
:1085700043F04003DAB2094B83F8242008E0074BAC
:1085800093F8243023F04003DAB2044B83F824201C
:10859000024B93F82430184680BD00BF4C290020C0
:1085A00080B584B000AF78600023FB73FCF704F85B
:1085B000B860BB68002B08D00C22B96878681CF042
:1085C000EBFFFCF717F80123FB73FB7B1846103712
:1085D000BD4680BD80B586B000AF78600023FB75D6
:1085E000FFF790FF0346002B2CD0294B1B6B7A68BA
:1085F00012891A60264B1B6B00229A60244B1B6B5E
:108600007A68927A1A6100233B610DE0204B1A6B65
:1086100079683B690B4419783B69134414330A4663
:108620001A703B6901333B613B69072BEED918484F
:1086300003F0D0FE0346002B02D10123FB7501E0BD
:108640000023FB75FB7D83F00103DBB2002B1AD006
:10865000FBF7D0FEF860FB68002B09D00C2279688C
:10866000F8681CF099FFFBF7F7FE0123FB750AE0A1
:10867000084B93F8243043F01003DAB2054B83F82B
:1086800024200023FB75FB7D18461837BD4680BDAE
:10869000B01C00204C29002080B500AF024804F037
:1086A0007FF800BF80BD00BFB01C002080B500AFC8
:1086B000024804F075F800BF80BD00BFB01C002068
:1086C00080B500AF024804F06BF800BF80BD00BF6A
:1086D000B01C002080B584B000AF7860244B1B68CC
:1086E000DB6803F01003002B08D0224B93F82430F2
:1086F00043F00803DAB21F4B83F82420FBF710FF86
:10870000B860BB68002B22D0194B5B6B1B689AB218
:10871000BB681A81164B5B6B1B69DAB2BB689A7235
:108720000023FB600DE0124B5A6BFB6813441433BB
:108730001978BA68FB6813440A461A70FB6801335B
:10874000FB60FB68072BEED9FBF71CFF08E0094B29
:1087500093F8243043F00803DAB2064B83F8242060
:108760000021034803F0A2FF00BF1037BD4680BDC3
:10877000B01C00204C29002080B584B000AF786088
:10878000FBF784FEB860BB68002B33D01B4B1B6B20
:10879000BA6812891A60194B1B6B00229A60174B3A
:1087A0001B6BBA68927A1A610023FB600DE0134BD1
:1087B0001A6BB968FB680B441978FB6813441433CF
:1087C0000A461A70FB680133FB60FB68072BEED981
:1087D0000A4803F0FFFD0346002B08D0084B93F82E
:1087E000243043F01003DAB2054B83F82420FBF762
:1087F0006BFE00BF00BF1037BD4680BDB01C00201F
:108800004C29002080B483B000AF7860214B012256
:10881000DA77214B1B689B6903F00103002B06D11B
:108820001D4B1B689B6903F00203002B08D0194BFA
:1088300093F8243043F00403DAB2164B83F8242073
:10884000154B1B689B6903F00403002B0BD0114BE5
:1088500093F8243063F07F03DAB20E4B83F82420C0
:108860000C4BFF22DA777B681B689B6903F070036F
:10887000002B08D0074B93F8243043F00203DAB200
:10888000044B83F8242000BF0C37BD465DF8047B01
:10889000704700BF4C290020B01C002080B584B078
:1088A00000AF0346FB806B4B6B4A1A60694B00229A
:1088B0009A61684B0122DA61664B01221A62654BAC
:1088C00000225A62634B0122DA62624B00229A60F4
:1088D000604B624A1A635F4B614A5A635D4B1B6887
:1088E0001A6842F480321A60FB88FA2B53D0FA2BB4
:1088F00006DC322B25D07D2B38D0142B0BD09EE0FC
:10890000B3F5487F71D0B3F57A7F00F08380B3F57B
:10891000FA7F55D093E009F0EBF803469B09514AE2
:10892000A2FB03239B084B4A53604A4B0022DA60A8
:10893000484B4FF460221A61464B4FF480125A6143
:108940007FE009F0D5F80246474BA3FB0223DB0C7E
:10895000404A53603F4B0022DA603E4B4FF46022A6
:108960001A613C4B4FF480125A616AE009F0C0F87A
:1089700002463E4BA3FB0223DB0C364A5360354BC9
:108980000022DA60334B4FF440221A61314B4FF42E
:1089900080125A6155E009F0ABF80246344BA3FB54
:1089A00002239B0D2B4A53602A4B0022DA60294B8D
:1089B0004FF460221A61274B4FF480125A6140E055
:1089C00009F096F802462A4BA3FB0223DB0D214A4D
:1089D0005360204B0022DA601E4B4FF460221A6174
:1089E0001C4B4FF480125A612BE009F081F80246CB
:1089F0001D4BA3FB0223DB0D164A5360154B0022CF
:108A0000DA60144B4FF460221A61124B4FF480125B
:108A10005A6116E009F06CF80246154BA3FB0223DD
:108A20001B0E0C4A53600B4B0022DA60094B4FF4CB
:108A300060221A61074B4FF480125A6101E0002353
:108A4000B3E01BF099FF034803F0C6FA0023FB6074
:108A500083E000BFB01C002000640040F01C002038
:108A60000C1D0020779A2E00B17C219583DE1B43DC
:108A7000B5FA9BEE4F49FA6813469B001344DB009E
:108A80000B441433FA681A604A49FA6813469B008B
:108A90001344DB000B44183300221A604549FA687E
:108AA00013469B001344DB000B441C3300221A6066
:108AB0004049FA6813469B001344DB000B44002234
:108AC0001A603C49FA6813469B001344DB000B44D0
:108AD000043300221A603749FA6813469B00134496
:108AE000DB000B4408334FF6FF721A603149FA6815
:108AF00013469B001344DB000B440C334FF6FF720C
:108B00001A602C49FA6813469B001344DB000B449F
:108B1000103300221A602749FA6813469B00134459
:108B2000DB000B44203300221A602249FA68134606
:108B30009B001344DB000B44243300221A60FA68C4
:108B400013469B001344DB001A4A134419461A4883
:108B500003F066FBFB680133FB60FB680D2B89D9D2
:108B6000164B012283F82420FBF732FCFBF7C6FCEE
:108B7000114B1B685A6942F002025A610E4B1B6886
:108B80005A6942F008025A610B4B1B685A6942F05D
:108B900001025A61084B1B685A6942F40F425A613C
:108BA0000021054803F082FD012318461037BD4619
:108BB00080BD00BF301D0020B01C00204C290020CB
:108BC00080B590B000AF0346FB800023FB632E4BC3
:108BD0001B68D3F81C32BB6300237B63002387F838
:108BE000333013E029497A6B13469B001344DB00B2
:108BF0000B441A68FB889A4202D1012387F833306C
:108C0000BB6B5B08BB637B6B01337B63BB6B03F0AC
:108C10000103002B02D07B6B0E2BE3D997F8333086
:108C2000002B02D00123FB6328E07B6B0D2B23D8A4
:108C30007B6BFB6100233B6200237B62FB885B0153
:108C4000BB60FB885B01FB604FF6FF733B614FF637
:108C5000FF737B610023BB610123BB620023FB62C6
:108C600007F108031946084803F0DAFA0346002B17
:108C700004D10123FB6301E00023FB63FB6BDBB248
:108C800018464037BD4680BDB01C0020301D002076
:108C900080B584B000AF0346FB800023FB60002357
:108CA000BB603AE02149BA6813469B001344DB00DD
:108CB0000B441A68FB889A422CD11C49BA681346A7
:108CC0009B001344DB000B4400221A601749BA686A
:108CD00013469B001344DB000B44043300221A604C
:108CE0001249BA6813469B001344DB000B4420333F
:108CF00000221A60BA6813469B001344DB000B4A3B
:108D0000134419460A4803F08BFA0346002B01D19D
:108D10000123FB60BB680133BB60BB680D2BC1D96D
:108D2000FB68DBB218461037BD4680BD301D002001
:108D3000B01C002080B500AF01F03AFE03469BB2A4
:108D4000184680BD80B584B000AF0346FB80FFF7B6
:108D5000F1FF0346FB81FA89FB889A4209D9FA8917
:108D6000FB88D31AB3F5004F01DA01230AE0002390
:108D700008E0FA88FB89D31AB3F5004F01DB012321
:108D800000E0002318461037BD4680BD80B588B08E
:108D900004AF0346FB80194AFB885382002202215C
:108DA000174805F083FD154BFF22DA77FB881B0A75
:108DB0009BB2D9B2FB88DAB201230293002301935C
:108DC0000023009300234FF4C240FDF7E9FEFFF7B4
:108DD000B1FF03460A33FB8100BFFB891846FFF74A
:108DE000B1FF0346002BF8D0B7F90630002B01DAAB
:108DF00000F028F800BF1037BD4680BD4C29002088
:108E00000004004880B483B000AF0346FB80044AEE
:108E1000FB88138000BF0C37BD465DF8047B7047AC
:108E20000210002080B483B000AF0346FB71044AF7
:108E3000FB79137000BF0C37BD465DF8047B7047AB
:108E40000410002080B500AF1CF048F900BF80BDC1
:108E500080B500AF1CF04EF900BF80BD80B586B074
:108E600004AF5A4B1B78FB71594B1B88BB80F979B7
:108E7000BB8800221846FCF773FE0346002B00F067
:108E8000A0800023002240F232210120FDF79EF84D
:108E90000023002240F232310220FDF797F8002330
:108EA000002240F232410320FDF790F80023002217
:108EB00040F232510420FDF789F80023002240F2ED
:108EC00033210520FDF782F80023002240F23331E0
:108ED0000620FDF77BF80023002240F233410720F3
:108EE000FDF774F80023002240F233510820FDF70B
:108EF0006DF80023029300230193FF2300930023C6
:108F000000224FF4D9710120FDF7CAFA0023029321
:108F100000230193FF2300930023002240F2B2219B
:108F20000220FDF7BDFA0023029300230193FF23E3
:108F300000930023002240F2B2310320FDF7B0FA83
:108F40000023029300230193FF23009300230022B8
:108F500040F2B2410420FDF7A3FA0023029300235C
:108F60000193FF2300930023002240F2B311052058
:108F7000FDF796FA0023029300230193FF23009349
:108F80000023002240F2B3210620FDF789FA0023D6
:108F9000029300230193FF2300930023002240F259
:108FA000B3310720FDF77CFA0023029300230193DD
:108FB000FF2300930023002240F2B3410820FDF775
:108FC0006FFA00BF0837BD4680BD00BF0410002007
:108FD0000210002080B582B000AF0346FB71FB7920
:108FE00018461CF017F900BF0837BD4680BD00BF0A
:108FF00080B500AF1CF0F6F80346184680BD00BFF0
:1090000080B582B000AF0346FB71FB7918461CF0B7
:10901000F5F800BF0837BD4680BD00BF80B586B0FB
:1090200000AF0346FB800B46BB801346FB70FB88FA
:109030001946012000F0D2FE0346BB750123FB75E3
:109040001EE0FA7DFB881946012000F0FFFE034672
:109050003B613B7CDB087B757B7D002B0DD0788AE8
:10906000797C7B7D07F10C0200F06AFF788A797CBD
:109070007B7D07F10C0201F09FF9FB7D0133FB754D
:10908000FA7DBB7D9A42DCD900BF1837BD4680BD52
:1090900080B586B000AF03460A46FB8013467B715D
:1090A0007B79012B01D8012364E00023BB75FB8889
:1090B0001946002000F092FE03467B750123FB75E4
:1090C00023E0FA7DFB881946002000F0BFFE03462E
:1090D0003B613B7CDB083B753B7D002B12D0788AE3
:1090E000797C3B7D07F10C0200F02AFF788A797CBD
:1090F0003B7D07F10C0201F095F80346DAB2BB7D27
:109100001343BB75FB7D0133FB75FA7D7B7D9A4272
:10911000D7D9BB7D002B2CD0FB881946002000F04E
:109120005DFE03467B750123FB751EE0FA7DFB881F
:109130001946002000F08AFE03463B613B7CDB08B9
:109140003B753B7D002B0DD0788A797C3B7D07F108
:10915000080200F0F5FE788A797C3B7D07F1080271
:1091600001F0AEF8FB7D0133FB75FA7D7B7D9A4201
:10917000DCD9BB7D18461837BD4680BD90B585B09B
:1091800000AF0446084611461A462346FB800346B4
:109190007B710B467B8013463B710023FB607A7921
:1091A000FB881146184601F0C7F8F860FB681846BE
:1091B0001437BD4690BD00BF90B589B002AF7B604B
:1091C0000346FB810B467B7313467B8100237B6147
:1091D0007B69002B10D17B890A4A9C187B890A4A3B
:1091E0001344797BF88997F828200192009323464D
:1091F0007A6801F019F978617B6918461C37BD4619
:1092000090BD00BF28650208D46D020890B583B0F8
:1092100000AF0446084611461A462346FB80034623
:109220007B710B467B8013463B717B88054A1A4451
:109230003B797979F88801F0BFF800BF0C37BD465B
:1092400090BD00BF0810002080B584B002AF3B6025
:109250000346FB710B46BB801346BB71BA79B988D4
:10926000F8797B6901933B6900933B681BF064FFCD
:10927000034618460837BD4680BD00BF80B582B0A2
:1092800000AF3B600346FB710B46BB801346BB71CE
:10929000BA79B988F8793B681BF090FF00BF0837AE
:1092A000BD4680BD80B485B000AF0346FB71074B5F
:1092B0001B68FB60FB79FA681344FB60FB681B7852
:1092C00018461437BD465DF8047B7047601F0020C8
:1092D00080B584B000AF03460A46FB711346BB80DD
:1092E000FB79012B06D8BB88002B03D0BB88B3F5D4
:1092F000007F03D942F23510FFF748FD0023FB81C0
:10930000FB79002B2DD1BB88082B1CD8BB885A1E9B
:1093100029491346DB009B1A9B000B440E331B8824
:10932000BA889A420FD1BB88013B9BB240E0FB89CF
:109330000133FB81214B1B7E9BB2FA899A4202D3F7
:109340004FF6FF7334E0FA891B491346DB009B1A82
:109350009B000B440E331B88BA889A42E7D1FB89E5
:1093600026E0BB88082B19D8BB88013B144A1B0197
:1093700013440C331B88BA889A420FD1BB88013B37
:109380009BB215E0FB890133FB810C4B5B7E9BB2EA
:10939000FA899A4202D34FF6FF7309E0FB89084A23
:1093A0001B0113440C331B88BA889A42EAD1FB890B
:1093B00018461037BD4680BDD42700204C29002018
:1093C000C028002080B485B000AF03463960FB8020
:1093D000FB88DB005B00164A1344BB600023FB7371
:1093E0000FE0BB681B881A463B681978114B9954EB
:1093F0003B6801333B60BB680233BB60FB7B0133DE
:10940000FB73FB880C4A1B0113440E331B78FA7B59
:109410009A4205D2BB681B884FF6FF729342E0D197
:10942000FB7B18461437BD465DF8047B704700BFD0
:10943000202A002008100020C028002080B485B019
:1094400000AF03463960FB80FB88DB005B00174AF6
:109450001344BB600023FB730FE0BB681B881A46F4
:10946000134B9A5C3B681A703B6801333B60BB68E6
:109470000233BB60FB7B0133FB73FA880D49134653
:10948000DB009B1A9B000B440A331B78FA7B9A4241
:1094900005D2BB681B884FF6FF729342DDD1FB7B80
:1094A00018461437BD465DF8047B7047A02900209C
:1094B00008100020D427002080B485B000AF0346F8
:1094C0003960FB80FB88DB005B001A4A1344BB60F9
:1094D0000023FB7315E03B681A78BB681B881946AC
:1094E000154B5B5C9A4203D0FB7B0133DBB21BE084
:1094F0003B6801333B60BB680233BB60FB7B0133DD
:10950000FB73FA880D491346DB009B1A9B000B4442
:109510000A331B78FA7B9A4205D2BB681B884FF648
:10952000FF729342D7D1002318461437BD465DF829
:10953000047B7047A029002008100020D4270020B9
:1095400080B588B000AF03460A46FB711346BB8066
:109550000023BB6100237B6100237B82B7F90430C9
:10956000002B04DABB88C3F30E03BB8010E0BB887A
:10957000C3F30E039AB2FB7911461846FFF7A8FE13
:109580000346BB80BB884FF6FF72934200F0BB805E
:10959000FB79012B13D1BB88DB005B005D4A1344D0
:1095A000BB61BA881346DB0013445B005A4A13447C
:1095B0007B617B691B887B827B6902337B61FB79E2
:1095C000002B13D1BB88DB005B00544A1344BB6102
:1095D000BA881346DB0013445B00514A13447B6195
:1095E0007B691B887B827B6902337B6100237B74F0
:1095F0000023BB7782E07B7C9BB27A8A9A421BD89D
:10960000BB694FF6FF721A80FB79012B06D1BB882C
:10961000444A1B0113440E33BA7F1A70FB79002BA6
:1096200073D1BA8840491346DB009B1A9B000B4458
:109630000A33BA7F1A7068E03C4B3D4A1A603B4BD4
:109640001A687B691B8819460B465B000B445B005C
:109650001344364A13600320FFF724FE034603F049
:1096600007033B740520FFF71DFE0346FB81FB89C2
:109670001B02FB810420FFF715FE03469AB2FB890B
:109680001344FB813B7C042B04D8FB8940F6A802E1
:1096900093420CD93B7C9BB21B029AB2FB891344C8
:1096A0009BB203F5C0439BB21846FFF76FFB002344
:1096B000FB7717E0BB69FA891A80BB691A8897F9AA
:1096C0001F309BB213449AB2BB691A80BB69023344
:1096D000BB61BB7F0133BB7797F91F30DBB201332E
:1096E000DBB2FB7797F9103097F91F209A42E1DB44
:1096F0007B7C01337B747B6902337B61BB7F082BEE
:109700007FF679AF02E000BF00E000BF2037BD4622
:1097100080BD00BF202A0020302B0020A02900207F
:10972000A02A0020C0280020D4270020601F00208D
:10973000B881020890B587B000AF044608461146CC
:109740001A462346FB710346BB800B46BB7113468A
:109750007B80BA88FB7911461846FFF7B9FD0346AE
:109760007B617B694FF6FF72934201D100237FE05A
:109770007A691346DB0013447B61FB79002B3BD1F4
:10978000BB79002B30D097F828207B8811461846EB
:10979000FDF7D0F803463B613A6913465B0013447A
:1097A0005B00354A1344FB603B694FF6FF729342FE
:1097B00007D097F82C20FB68DB7803F007039A4268
:1097C00009D0BA797B6913442C4A4FF6FF7122F80D
:1097D000131000234CE0BA797B6913443A6991B2C3
:1097E000264A22F8131042E097F82C3099B2234A07
:1097F0007B6922F813103AE0BB79002B30D097F840
:1098000028207B8811461846FDF794F803463B61F3
:109810003A6913465B0013445B00174A1344FB602C
:109820003B694FF6FF72934207D097F82C20FB68F4
:10983000DB7803F007039A4209D0BA797B691344B5
:109840000F4A4FF6FF7122F81310002310E0BA7987
:109850007B6913443A6991B2094A22F8131006E071
:1098600097F82C3099B2064A7B6922F8131001232D
:1098700018461C37BD4690BDB8810208A02A0020BA
:10988000302B0020B0B58AB002AF03460A46FB7108
:109890001346BB80BA88FB7911461846FFF718FDBE
:1098A00003467B617B694FF6FF72934201D100232F
:1098B000B1E07A691346DB0013447B61FB79002B2E
:1098C00021D1BB8803F5CF531F339BB2002118462B
:1098D000FCF7DEFF0346FB61514A7B69002122F859
:1098E00013100123BB760AE0BA7E7B6913444C4A0D
:1098F0004FF6FF7122F81310BB7E0133BB76BB7E9F
:10990000082BF1D920E0BB8803F5AF531F339BB27E
:1099100000211846FCF7BCFF0346FB61414A7B6906
:10992000002122F813100123BB760AE0BA7E7B697E
:1099300013443C4A4FF6FF7122F81310BB7E0133EB
:10994000BB76BB7E082BF1D90023FB760023BB76C8
:10995000FB694FF6FF72934201D100235BE0FB6984
:10996000DB00FB61304B3B61FB6904333A69134414
:109970001B78FB76FB7E082B38D90823FB7635E075
:10998000FB690833FB61BB7E0133BB76FB690733A0
:109990003A6913441B78FB81FB891B02FB81FB693D
:1099A00006333A6913441B789AB2FB891344FB814E
:1099B000FB6905333A6913441B78FA690432396943
:1099C0000A441278D208D2B202F00702D2B2FD895C
:1099D000BC7EB988F879019200932B462246FFF7A6
:1099E000A9FE0346002B01D10023FB76BA7EFB7E45
:1099F0009A42C5D3B988F879FB7E0193002300937E
:109A000000230022FFF796FEBA88FB79114618461C
:109A1000FFF796FD012318462037BD46B0BD00BFB5
:109A2000A02A0020302B00208076020880B586B066
:109A300000AF03463A60FB710B46BB80BB88C3F3A3
:109A400008039BB201333B823A8AFB7911461846E0
:109A5000FFF73EFC0346FB81FB894FF6FF72934202
:109A600005D14FF00060FCF7B7F90023A4E1FB89B2
:109A70003B82FB79002B12D13A8A8D491346DB00D9
:109A80009B1A9B000B4408331B887B823A8A13463F
:109A9000DB0013445B00874A13447B610EE03B8A82
:109AA000854A1B01134408331B887B823A8A13467C
:109AB000DB0013445B00814A13447B613B681B78E5
:109AC00023F01F037B737B691B88DBB27B723B68CF
