:040000050800019559
:020000040800F2
:100000000010002017170008151700080117000836
:100010001B170008ED160008D916000800000000A4
:100020000000000000000000000000002D17000884
:10003000271700080000000021170008811700089A
:100040003317000833170008331700083317000868
:100050003317000833170008331700083317000858
:100060003317000833170008331700083317000848
:100070003317000833170008331700083317000838
:100080003317000833170008331700083317000828
:100090003317000833170008331700083317000818
:1000A0003317000833170008331700083317000808
:1000B00033170008331700083317000833170008F8
:1000C00033170008331700083317000833170008E8
:1000D00033170008331700083317000833170008D8
:1000E00033170008331700083317000833170008C8
:1000F00033170008331700083317000833170008B8
:10010000331700080000000000000000331700084B
:100110003317000833170008331700083317000897
:100120003317000833170008331700083317000887
:10013000331700083317000800000000000000001B
:1001400033170008331700083317000800000000B9
:10015000000000000000000000000000000000009F
:100160003317000833170008331700083317000847
:100170003317000833170008331700083317000837
:1001800033170008331700080000000000000000CB
:1001900033170008944B954CD3F8882042F4700232
:1001A0002DE98048C3F88820226842F001022260CD
:1001B00061688F4A0A406260226822F0847222F4E9
:1001C00080322260226822F480222260626822F457
:1001D000FE026260E26A22F00F02E262216B854A4F
:1001E0000A40226300214FF00062A1609A60824AB7
:1001F0009A60D3F8882042F47002C3F888204FF048
:1002000000537E4A1868904299B003D119607C4B24
:100210001B6898477B4A7C4B7C498B4204D252F83E
:10022000040F43F8040BF8E7794A7A4B7A498B427A
:1002300004D252F8040F43F8040BF8E7774B784ADE
:100240000021934202D243F8041BFAE7626867492F
:10025000744E754B02F00C02042A0DD0082A0BD103
:100260004A684868C96AC2F38342023201F00F014A
:100270000131B3FBF1F35343336063686B4D6C4F53
:10028000C3F303134FF00008EA5C3368D3403360D4
:10029000684BFF1ABF109A46474505DD5AF82830CB
:1002A000984708F10108F7E7634B644FFF1ABF1046
:1002B0004FF000089A46474505DD5AF82830984720
:1002C00008F10108F7E75E4A4749136843F0100355
:1002D0001360CB684FF6FF021A405A4B1343CB60B2
:1002E00033684FF47A72B3FBF2F3013BB3F1807FD2
:1002F00008D2554A5360F02381F8233000239360DD
:100300000723136001F044FA4D4A136823F00703F2
:1003100043F002031360236823F4802323602368DF
:1003200043F4803323602368304A9803FBD5136875
:1003300043F00103136023682C4A9907FBD5536AE5
:1003400043F001035362626A284B9207FBD55A6857
:1003500022F4761242F4E8125A60DA6A22F00F02AE
:10036000DA621A6842F080721A6023681F4A9B01A1
:10037000FBD5536823F0F0035360536823F0030365
:1003800043F0020353606268184B02F00C02082A23
:10039000F9D15A682C4922F4E06242F4A0625A6012
:1003A0005A6822F460525A600A6842F004020A60F5
:1003B0005A6802F00C02082A48D15A68D86A5B6869
:1003C0004FF4701191FAA1F1B1FA81F103F47012B6
:1003D000CBB222FA03F3023300F00F0201321249CA
:1003E000B1FBF2F25A4332E000ED00E000100240AF
:1003F0000CC07FF8CCFC00FF0000000807B011CA59
:100400000440000898210008001000206810002017
:1004100000220008B81A0020881B00206810002065
:10042000B81A00200010002000127A0048210008AD
:100430008017000880170008801700088017000840
:10044000002002400003FA0510E000E07D4A6168E8
:10045000F02393FAA3F3B3FA83F301F0F001DBB2D4
:1004600021FA03F3EB5C22FA03F362684FF4E062D3
:1004700092FAA2F2B2FA82F262684FF4605292FAF1
:10048000A2F2B2FA82F27049002505224FF47A7086
:10049000B3FBF0F0013848608D600A600A6842F0F2
:1004A00002020A60336001F073F96369674843F43C
:1004B000001363616369139503F4001318AF0D9380
:1004C0000D9B1595022347F8183D4FF003080126B0
:1004D0003946CDF850801696179501F089F9636971
:1004E0005A4843F4001363616369CDF8508003F404
:1004F00000130C934FF0040A39460C9B1395159585
:1005000016961795CDF848A001F072F963694F4827
:1005100043F4001363616369CDF8508003F4001362
:100520000B930B9B1395082339461293159516963A
:10053000179501F05DF96369444843F40013636162
:100540006369CDF8508003F400130A930A9B139556
:1005500010233946129315951696179501F048F910
:1005600063693A4843F4001363616369CDF85080CE
:1005700003F400130993099B139520233946129322
:1005800015951696179501F033F96369304843F4D1
:10059000801363616369CDF8508003F4801308937E
:1005A0003946089B1395159516961795CDF848A0D2
:1005B00001F01EF9274B1A689846D8F800309B1AAC
:1005C000022BFAD300222149214C10460B6903F07B
:1005D0000203B3FA83F35B0963F300090B6903F0C9
:1005E0000403B3FA83F35B0963F341090B6903F076
:1005F0000803B3FA83F35B0963F382090B6903F021
:100600001003B3FA83F35B0963F3C3090B6903F0C7
:100610002003B3FA83F35B0963F30419236903F03E
:100620000403B3FA83F35B0963F345196FF3871986
:100630005FFA89F6731CDBB283420DD000221846A4
:10064000C4E700BF00127A0010E000E0001000488C
:10065000000C0048B01000200132FF2AEFD13236E2
:10066000C44ADFF840C3DFF820E3F3B24FF0FF31B4
:1006700003939DF80C305160BF49137000235370F1
:10068000934601F10C051A4603EB0C00EC18C270FE
:1006900003EB0E0000260275C8180133082BC27048
:1006A0002275B648F0D1B64CB64DB74B2363EB6913
:1006B000606343F00073EB61EB69B44803F00073CF
:1006C0001093109B6B6943F480136B616B6903F4A7
:1006D00080130F930F9B6B6943F480136B616B69FD
:1006E00003F480130E934FF0010903224FF0020A26
:1006F0000E9B149207233946059217930493CDF865
:1007000048A0CDF84CA0CDF85490CDF8589001F009
:100710006FF8059A049B9D48149239461793CDF8BB
:100720004890CDF84CA0CDF85490CDF8589001F0F9
:100730005FF8974B2360A661C4F81C90C4F8209022
:100740006662C4F82C90A66001F0C0FA914BB0FB31
:10075000F3F04FF4602323614FF48013636194F846
:1007600039306060E66003F0FF020BB984F838208E
:10077000236884F839A01A6822F002021A601A6805
:1007800042F001021A60D8F800705A6812F00102B3
:1007900008D1D8F80010C91B0A29F6D9032184F81A
:1007A000391050E05A68D70757D5A269012A1A684C
:1007B0000CBF42F0800222F080021A60E269012A36
:1007C0001A680CBF42F0400222F040021A60226A0E
:1007D000012A1A680CBF42F0200222F020021A609F
:1007E000626A012A1A680CBF42F0100222F010025D
:1007F0001A60A26A012A1A680CBF42F0080222F0AD
:1008000008021A60E26A012A1A680CBF42F0040268
:1008100022F004021A60A268013842F4F012104378
:10082000D8611A6822F001021A60D8F800105A68DC
:10083000D6070BD5D8F80020521A0A2AF7D9032276
:1008400084F83920002284F8382009E05A6812F030
:10085000010202D1E263012200E0042284F839207F
:10086000D3F800224C4C42F00102C3F80022D3F826
:100870001C2222F00102C3F81C22D3F80C2222F021
:100880000102C3F80C22039A02F5C0666FEA4656CD
:100890006FEA1646414AC3F84062C3F84422D3F8CF
:1008A000042222F00102C3F80422D3F8142222F019
:1008B0000102C3F81422D3F81C2242F00102C3F84B
:1008C0001C22D3F8002222F00102C3F800220023E8
:1008D0008BF80A308BF80B308BF8083023602371CB
:1008E0004FF0005393FAA3F2B2FA82F293FAA3F212
:1008F000B2FA82F293FAA3F2B2FA82F2214A696A58
:1009000093FAA3F3B3FA83F303F01F0321FA03F37B
:10091000D8070BD5012146F2010001F053F801265A
:100920001F4B26701B7863703146B3E04FF0805345
:1009300093FAA3F1B1FA81F193FAA3F1B1FA81F13B
:1009400093FAA3F1B1FA81F1516A93FAA3F3B3FADE
:1009500083F303F01F0321FA03F3D90724D50221FF
:1009600046F2010001F02EF8022323700C4B1B7895
:100970008EE000BFC010002068100020741000201E
:10098000781A0020001002405C1A0020000C004879
:1009900000640040A0BB0D00F41000200000FFFF29
:1009A00004000020B41000204FF0007393FAA3F16C
:1009B000B1FA81F193FAA3F1B1FA81F193FAA3F1BB
:1009C000B1FA81F1516A93FAA3F3B3FA83F303F016
:1009D0001F03D94011F0010606D0042146F20100A0
:1009E00000F0F0FF0423C0E74FF0006393FAA3F197
:1009F000B1FA81F193FAA3F1B1FA81F193FAA3F17B
:100A0000B1FA81F1516A93FAA3F3B3FA83F303F0D5
:100A10001F0321FA03F3DB0710D5B24F314646F22C
:100A200001003E7000F0CEFF26703B78637001211C
:100A300046F2010000F092FF314630E04FF0806353
:100A400093FAA3F1B1FA81F193FAA3F1B1FA81F12A
:100A500093FAA3F1B1FA81F1526A93FAA3F3B3FACC
:100A600083F303F01F0322FA03F313F0010F9D4EEB
:100A700006D0032146F2010000F0A4FF032305E0A5
:100A8000052146F2010000F09DFF05232370337815
:100A90006370012146F2010000F060FF01214FF078
:100AA000807393FAA3F3B3FA83F38F4A8F4EDBB2CA
:100AB000012042F823008BF8091000214FF0FF328B
:100AC00008464FF47A6A4FF47A7740F6FE7E06F1D4
:100AD0001C0C49F6404956F82030B9FBF3F30AFBE9
:100AE00003F3B3FBF7F303F1FF39F1454FEA800855
:100AF00007D8B2F1FF3F04D11A46013318BF58F8A6
:100B00000C1001300728E4D1794B7A4F19635A63EE
:100B100045F255533B60002601F00701C2F30B027A
:100B20004CF6CC437960BA603E603B6001F00AF855
:100B30006F4B71499E63EB69704843F01003EB61A2
:100B4000EB6903F010031193119B6D4B1A681A6047
:100B50004FF47A72DA6248F6A0429A625A6942F019
:100B600001025A611A6842F001021A60604B83F870
:100B7000406083F83D6083F83C60DE876B6943F03A
:100B800040036B616B6903F040031293129B5D4B52
:100B90009A6822F018029A605B4A5A614FF0FF325D
:100BA0001A619A6822F060029A609A6822F08002C4
:100BB0009A609A6842F001029A601E714AF6AA236E
:100BC0003B600F68091A01F025F88742054614D0EA
:100BD00081B24FF4C24000F0F5FE2B0A257063701D
:100BE00026712B0C01212D0E4FF4C240A370E5702D
:100BF00000F0B4FE04238BF809303E4B4AF6AA22DB
:100C00001A60424B424A53F8036D04939B1A1946EB
:100C10001046059300F0FEFF864205462DD03C4A63
:100C20004FF0FF333949914203D952F8041B0B406E
:100C3000F8E701330BD1002146F2012000F0C2FE9B
:100C4000002323602371012146F2012010E0A9B2A4
:100C50004FF4C44000F0B6FE002323712B0A280E87
:100C600063702B0CE0702570A37001214FF4C44019
:100C700000F074FE04238BF809309BF80930254CF2
:100C800033B91B4A062191631D4A5362032302E0D4
:100C900000F0D4FF04236372194B1A69D20708D5F8
:100CA0006FF001021A61124B9A6B12B19A6B013A02
:100CB0009A63104B174C4AF6AA221A60237A012B2A
:100CC00000F0D180022B06D1134A136943F400537C
:100CD000136100F065FD11480268D3689B071FD1BE
:100CE0000023A9E0040000208004424258210008AB
:100CF0006810002000300040FC3F000800000008A1
:100D00000010004000300240B71DC104FFFF07087B
:100D100000400008C010002000200240781A002087
:100D200090F83830012B65D0012380F8383090F8E6
:100D30003930BE49122B0CBF3223222380F83930C0
:100D40000D68D36813F0030307D10E68761BC82E15
:100D5000F7D9032280F839204AE0D2F8B031416B4C
:100D600003F004038B6023B9D2F8B0315B0D0B6044
:100D700003E0D2F8B031DB084B60D2F8B03103F0B9
:100D80000203CB60D2F8B43103F00F030B61D2F849
:100D9000B431C3F30723CB61D2F8B8310B75D2F865
:100DA000B8311B0A4B75D2F8B8311B0C8B75D2F8D1
:100DB000B8311B0ECB75D2F8BC310B76D2F8BC31F2
:100DC0001B0A4B76D2F8BC311B0C8B76D2F8BC31A7
:100DD0001B0ECB76D36843F02003D36090F8392004
:100DE000934B322A0CBF1222012283F839200023B0
:100DF00080F83830436B8F4E1888197C3080B17082
:100E00001333002235468A4206D2AF1813F801EF99
:100E100087F803E00132F6E7002873D102296BD18D
:100E2000F3787F33DBB2012B66D8824B1B79002B22
:100E300062D1052363720123DFF8189299F8092023
:100E4000052A48D1049B05997B481C6800F0E2FE06
:100E50008442804603D0784A4FF0FF3305E04FF0DC
:100E60000053764A1A6000F083FF7549914203D916
:100E700052F8041B0B40F8E70133724C4FEA182775
:100E80004FEA18464FEA18650ED10021802000F085
:100E900099FD0023237184F800806770A670E570C7
:100EA000802146F201200EE01FFA88F1802000F038
:100EB00089FD0023237184F800806770A670E570B7
:100EC00080214FF4C44000F049FD00F0B7FE042338
:100ED00089F80930E0E6032A7FF4DEAE2BB1042363
:100EE00089F8093000F0AAFED6E6524B9B6B002B26
:100EF0007FF4D2AE0523EBE7327923789A427FF470
:100F0000EFAE96E72378504FF27803F5B0633B805D
:100F1000802A4FF00803BB70B84604D1454A00232D
:100F200082F83C306BE002F0E003202B10D003D8B5
:100F3000002B00F02C8204E0402B09D0602B00F045
:100F4000268233793B7173797B71B379BB7141E050
:100F50000829F6D196F805E096F804C087F805E070
:100F60004CEA0E2109B241F2180EB3793148364DE0
:100F700087F804C07145BB716ED044DC41F20100BA
:100F800081424DD041F2030081424BD0B1F5805FE8
:100F900074D1002B70D10425012002F0E30EBEF1C4
:100FA000230F40F02F81C2F381020238C2F1040204
:100FB0000128D2B200F22481954270D141F65172DB
:100FC000914274D042F6FF7291420BD041F203027B
:100FD000914260D01D4800F0E9FC164A002382F8D7
:100FE0003C3029E7012B40F0E180042D57D1F27904
:100FF000104B702A68D0164800F0D8FC0323023B3F
:1010000018BF012318E741F6517E71452CD042F6F6
:10101000FF7E71452CD041F6507E71452ED11FE0E8
:10102000A3B329E073B30A2B18E000BFB01000206F
:10103000781A0020681000200040000807B011CA8C
:10104000FFFF0708F4100020B41000200100040581
:1010500020000008C0100020C3B1042B9BD90BE076
:10106000A3B1012B08D1D2E083B1012B04D10BE055
:1010700063B1581E01280BD9A048ACE7002BFBD167
:101080009F48A8E7012504E01D4602E0012583E70B
:101090000425032081E7002B9CD1012D01D0994824
:1010A00099E7F279002AA6D1E372A372CDE0012B71
:1010B00090D1012DF3D1F379002B00F0C680012BE4
:1010C00099D105236372C0E0198946F67272914284
:1010D00091D19B7A742B8ED18B4BDFF83CB21D687B
:1010E00000F034FE894B1A6997055FBF884A9A6001
:1010F00002F188329A609BF81830012B54D0DFF847
:101100000CA201238BF81830DAF8203023EA050509
:101110005FFA85F8C5F30727C5F307462D0E1FFABA
:1011200085F900F03DFB00283BD1CBF81C0000F016
:101130006DFE002835D1DAF81030B8F1FF0F43F01A
:101140001003CAF8103002D1FF2F0BD111E0714A01
:10115000138908EA0308A2F8088000F021FB0028A0
:10116000F2D019E06B4A53891F40578100F018FBF9
:1011700090B9FF2E06D0674A93891E40968100F0F1
:101180000FFB48B9FF2D07D0624AD38909EA03094A
:10119000A2F80E9000F004FB5C4A136923F01003E0
:1011A00013615D4B00221A76022327E0022B7FF4A5
:1011B00011AF042D7FF473AFF379652B7FF41BAF70
:1011C000564B1A8946F272139A427FF414AFB37ADF
:1011D000732B7FF410AF524F524E4FF00065012039
:1011E000514BAB4204D208B12846B84700F0010089
:1011F00005F50065B542F3D138B30123237224E02D
:101200004A48E8E6BEF1400F26D04948E3E6212AE5
:1012100008D0402AF9D1022380F83C30454B436482
:10122000EA7003E080F83C306023EB70002000F0AF
:10123000B1FB00F0DBFE41F65073F387002201237F
:1012400086F8403086F83D20D9E63B4B60220020EE
:10125000DA7000F09FFB14E041F21802914214D0C2
:1012600041DC41F20102914219D1002B7FF4B2AE70
:10127000A07AC5F10405AD0045F0430500F08AFBF6
:10128000FD7000F0B3FE0123B9E6042B3FF6A2AED9
:10129000DFE803F00310101012000420E9E741F228
:1012A000030291420AD0B1F5805F7FF493AE002B28
:1012B0007FF490AE0020DCE76068DAE70BB9E07AF3
:1012C000D7E7E17A1D4A994209D303F10F0102EBF6
:1012D000430332F811005B8943EA0040C9E70A2B57
:1012E0003FF678AEE6E741F65172914228D10BB94C
:1012F0000120BEE7012B7FF46DAEDBE7110009068C
:1013000000000206100007064C1A002000200240D0
:101310002301674500F8FF1F181A002068100020FD
:10132000C91A002000000808FF3F0008020001065B
:101330000000010600400008B4100020C01000208A
:1013400042F6FF72914219D1002BD1D0012B7FF4CC
:1013500041AEA64A116AD369D3694FF4807393FAF8
:10136000A3F3B3FA83F3A24BA24A1B68126823EAE1
:10137000010393420CBFA048A0487AE741F650729F
:1013800091427FF427AE002B7FF424AEB0E708290A
:101390007FF4D7AD9A49F08F96F840E001F1070C41
:1013A000002401F8014F8C45FBD196F83C10954C78
:1013B000012940F03D81002B40F0868194F83D509A
:1013C00002F01000854201D08F4804E66FEA520215
:1013D00012F00702079200F0F7808C4F039104F19E
:1013E000040A8B4C1E4688463D46079B039A0133F0
:1013F0009A4280F0E480B8F1000F00F0E3803B787F
:10140000062B00F2D680DFE813F00700D4001100AD
:101410001A002500410052000023E3602370EB70A6
:101420009AF80030A360AB70022306E09AF800201F
:10143000AB7862601344AB7003232B70B9E09AF869
:1014400000106268AB7841EA02220B44AB70626024
:101450000423F2E79AF80020AB78EA701344052AD7
:10146000AB700AD80123934003F03303002B694B80
:1014700004BF4FF000081E4602E0664E4FF0000821
:10148000A3680BB10523D8E70623D6E7E3689AF8EB
:101490000010E21801331174AA78E3600A44AA70BC
:1014A000A26893420CBF062305233B7081E0AB7812
:1014B0009AF800105B42DBB2002299422A70AB70AE
:1014C00070D1FB78052B03D123691BBAFB6070E058
:1014D000042B06D1637C227C1B0403EB0263BB60FC
:1014E00067E0022B06D1637C227C1B0103EB0233F5
:1014F0007B605EE0012B01D13B7409E063687A6890
:101500001A44BB68134323F0006363600123237014
:101510002A7C4AB1002300931A460121184600F0A4
:101520006DFA00F00FFB44E0636813F001003ED158
:10153000394A43F000618A4236D3384A92F8062885
:10154000AAB3D4F80890364A03EB090B8A420BF190
:10155000FF3023D24FEAD32BC10A8B4518BF0BF1C2
:1015600001094FEACB2218BFC3EBC9299B1A0022FD
:101570000691009311464B46584600F03FFA68B179
:10158000069B9B4515D0A36800210091C9EB03037E
:101590004A460BF1010000F031FA50B9214E4FF0EC
:1015A000000806E01B4E03E01F4E804601E01E4E81
:1015B0009046039B013303930AF1010A15E7B8F142
:1015C000000F01D1304606E50E4A1849D378DE07F0
:1015D00044BF002382F83C3092F83D3043F02000B5
:1015E00083F01003C87082F83D304AE600200240C4
:1015F000501A00204C1A002070726F746E6F6E6566
:10160000B71000206810002000000305381A0020E1
:101610000419002020000008FFFF0708FC1000202C
:10162000FF3F00082100000847000406B410002016
:10163000022944D1602B47D194F83D104A4002F072
:10164000100202F0FF00002A7FF4BEAED4F844C0BE
:101650000123624604461D4D95421AD322F0010033
:1016600040F00060CCEB020E0088D507C6444CBFAA
:10167000000AC0B28EF8040001331448DBB2904275
:1016800008BF0124082B02F101024FF00100E2D152
:1016900000E000B17264C3F1080341EA4303DBB226
:1016A000FB703CB10A4A43F00103D370002386F873
:1016B0003C30E6E581F0100186F83D10E1E5387137
:1016C000000A787187F806E0024884E4FFFF070803
:1016D000B4100020200000081EF0040F0CBFEFF330
:1016E0000880EFF309807146174A10471EF0040F77
:1016F0000CBFEFF30880EFF309807146134A1047DF
:101700001EF0040F0CBFEFF30880EFF30980714661
:101710000F4A1047FEE70F48004708B500F028FBC6
:1017200008B500F025FB08B500F022FB08B500F075
:101730001FFBFEE708B500F01BFB08B500F018FB27
:1017400008B500F015FB0000351700084117000828
:101750003B170008950100089C210008001000209C
:10176000681000209C2100080000001000000010FC
:1017700068100020B81A00200000001000000010BF
:10178000024A136801331360704700BFB010002095
:10179000024BDA68002283F82320704700ED00E056
:1017A000114B1249186810B54CF25034CA6812F047
:1017B000010F0E4A05D01A68121AA242F6D9032068
:1017C00010E0D368990644BF2023D360D368DB06BA
:1017D00004D4064BD86810F0040003D000F090FA4F
:1017E000012010BD10BD00BFB0100020002002403D
:1017F0002DE9F0430D6895FAA5F4B4FA84F44FF09E
:10180000010EE4B203260F2735FA04F300F09880A6
:101810000EFA04F32B4000F09180D1F80480D0F848
:10182000009093FAA3FCBCFA8CFC93FAA3F2B2FAF0
:1018300082F25FFA8CFC4FEA4C0CD2B206FA0CFC36
:10184000520029EA0C0C08FA02F24CEA0202026089
:1018500008F1FF32012A1AD8826893FAA3FCBCFA75
:101860008CFC93FAA3F9B9FA89F95FFA8CFC4FEA78
:101870004C0C06FA0CFC22EA0C0C5FFA89F98A6817
:101880004FEA490902FA09F24CEA02028260C26890
:1018900093FAA3FCBCFA8CFC93FAA3F9B9FA89F980
:1018A0005FFA8CFC4FEA4C0C06FA0CFC22EA0C0C9A
:1018B0005FFA89F90A694FEA490902FA09F24CEA22
:1018C0000202B8F1020FC26038D193FAA3F2B2FA61
:1018D00082F2D2B2072AD1F814C017D8D0F82080EB
:1018E00093FAA3F2B2FA82F293FAA3F3B3FA83F370
:1018F000D2B29200DBB29B0007FA02F228EA02029F
:101900000CFA03FC42EA0C03036217E0D0F82480CF
:101910001B0A93FAA3F2B2FA82F293FAA3F3B3FA90
:1019200083F3D2B29200DBB207FA02F29B0028EAFC
:1019300002020CFA03FC42EA0C024262013463E741
:101940004B68013B012B06D84268CB6822EA0502AE
:101950005D43154345600120BDE8F0830C4B1A7CC4
:10196000D87180329A800822D0409A7193F844202E
:101970009A7293F84520DA7293F846201A7393F816
:1019800047205A730022187259729A7300F02EBBC6
:10199000B0100020044B020AD8721A73020C000E19
:1019A0005A739873704700BFB010002008B5044BFD
:1019B0008022DA71FFF7EEFFBDE8084000F016BBA9
:1019C000B010002070B50C4AD37E092B9ABF5C1C66
:1019D000D476092353B102EB43055C1E6E8BAE83B4
:1019E00002EB4303ED8D1D86E3B2F3E70123908301
:1019F0001186937670BD00BFB01000202DE9F04F26
:101A00004D4CD4F84C6885B0864281468846019298
:101A100002930BD194F8503843B939B94749019B27
:101A20000E9E0B4476081946002566E0424D94F858
:101A300050B805F14C07BBF1000F04D0002385F826
:101A40005038012047E0F60246F00063009300F0B2
:101A50007DF9DA46DFF8E8B094F8800937F80A1023
:101A600001281ED04FF00103039185F88039FFF75C
:101A700097FE98B9C5F88409DBF81000009B03991C
:101A800040F00100CBF8100023F80A10FFF788FEA1
:101A9000DBF8101021F00101CBF81010002184F8C0
:101AA00080190AF1020ABAF5006FD5D100F044F9A5
:101AB000002240F2FE71B31843F000638A42188896
:101AC000BB5A03D11A1A5042504104E0834202F13A
:101AD0000202F0D0002000234FF6FF7227F81320F7
:101AE0000133B3F5806FF9D1134BC3F84C98B8F1BB
:101AF000000F1DD1002891D11AE0029B9D4216D003
:101B000006EB5500400023182044B3F84C20EB07A7
:101B100055BF0B780B7802F47F42D2B254BF134307
:101B200042EA0323A0F84C3001350131E5E70120FA
:101B300005B0BDE8F08F00BFB010002014190020E0
:101B4000002002402E4ADFF8C8C0F0B50023012073
:101B5000D2F8A0592B4F82F8883982F88A3982F856
:101B60008B39C2F88C39C2F8903982F8983982F8EA
:101B70005438C2F85838C2F86038C2F85C38C2F835
:101B80004C3882F85008C2F89C391E4619464AF66D
:101B9000AA2E01F58034BCEBC42FC7F800E008D3AF
:101BA0003D299ABF4B0800FA03F34FF000431E4350
:101BB00001233D2998BF4C0801F1010194BF00FAAF
:101BC00004F44FF00044B1F5807F45EA0405E0D10C
:101BD0000BB1C2F89C690C490C48C2F8A0594FF0EF
:101BE000FF33884203D951F8044B2340F9E7591CCD
:101BF0004B424B41BDE8F04082F8523800F09CB8AF
:101C0000B01000200030004000400008FFFF07082F
:101C1000FF3F0008084B9A6821F0030142F00102DF
:101C200010B501449A601A46884203D050F8044B1C
:101C30001460F9E7186810BD00300240054B1A7CAB
:101C400002F5E0629A8001229A710022DA7100F0B6
:101C5000CDB900BFB0100020C00A00230860136097
:101C60007047000008B50C4B1A680AB90B4A1A6095
:101C70001A680B49C31C23F0030313448B4206D993
:101C800000F05CFA0C2303604FF0FF3008BD0249FE
:101C900010460B6008BD00BF581A0020881B0020AA
:101CA00000000120BFF34F8F0449054BCA6802F4BE
:101CB000E0621343CB60BFF34F8FFEE700ED00E01F
:101CC0000400FA0508B50120FFF7ECFF094B5A683C
:101CD0004FF4E06393FAA3F3B3FA83F302F4E06200
:101CE000DBB222FA03F3044AD35C044A1068D840FA
:101CF000704700BF00100240902100080010002033
:101D00000B4AD36813F0100305D00A49CB6943F09E
:101D10000203CB611023D268520706D50549CA6970
:101D200042F00102CA6143F00403014AD3607047E4
:101D300000200240181A0020034A136943F0800370
:101D400013610020704700BF00200240064B1A6953
:101D5000120641BF054A5A6002F1883200204CBF8A
:101D60005A600120704700BF0020024023016745F0
:101D7000BFF34F8F0449054BCA6802F4E062134376
:101D8000CB60BFF34F8FFEE700ED00E00400FA05E3
:101D9000064B0022DA61064B1A6942F002021A6110
:101DA00058611A6942F040021A617047181A0020FF
:101DB0000020024038B50546FFF7F2FCF0B9104BA1
:101DC000104CD861236943F020032361236943F059
:101DD00040032361FFF7E4FC236923F02003236120
:101DE00060B9236943F010032361074BADB21D8036
:101DF000FFF7D6FC236923F01003236138BD00BF31
:101E0000181A00200020024000F8FF1F38B5134BBD
:101E1000DB6903F00603022B04D0062B0CBFCC2594
:101E2000AA2500E0BB25FFF7BBFCA8B90C4A0B4C68
:101E3000D061236943F020032361236943F0400309
:101E40002361FFF7ADFC236923F02003236118B958
:101E50002846BDE83840ADE738BD00BF002002404D
:101E6000181A002038B5154B1A7E012A21D01A788D
:101E700001241C7602F0FF01EAB9114A156945F404
:101E8000A05515610568A5420BD102201870D961D3
:101E9000136943F004031361136943F040031361B2
:101EA0000AE0826840681C705A609860FFF770FF13
:101EB00002E0022100E02146084638BD181A002041
:101EC00000200240F8B5454B454CDA6812F0100F7F
:101ED00002D1DB685A070AD5A3684FF0FF33A3602D
:101EE000FFF70EFF3F4B01221A70002323703B4A7D
:101EF000D3689B0661D52023D3602178384B002915
:101F00005BD01978C9B2012918D1586801385860D6
:101F10005D68354865B19D680170986800F500609E
:101F20009860136923F002031361FFF731FF44E067
:101F30004FF0FF329A601D7001703EE0197802295F
:101F400009D1116921F004011161274A01211170A1
:101F500000221A7031E05968013959605968D1B1CD
:101F60009968023199609D68D3E90467300C40EAB2
:101F70000740390CC3E90401116921F00101116125
:101F8000D3E904010021D961136980B243F0010350
:101F90001361288011E01A78032A134A0DBF9B6849
:101FA00019789B6801230CBF137001214FF0FF3398
:101FB00018BF1170A36000232370237803F0FF0182
:101FC00053B9064B1A6922F007021A611A6922F402
:101FD000A0521A61024B1976F8BD00BF00200240E2
:101FE000181A0020551A0020541A0020F0B54D4947
:101FF0004D4B0D8888781D6000229A601861DA6068
:10200000541CD2B2904205D99E180A44D278327537
:102010002246F5E793F85410434ADB6401297FD048
:10202000012182F8541092F855103F4C22290CBF20
:102030003221122182F85510D9698A68560108D4D4
:102040008A68120107D48A6812F0805263D0022491
:1020500002E0002400E0012401EB041200F00F0074
:10206000D2F88061186106F00106C2F88061D2F8EA
:102070008061DFF8C4E046EA4555C2F88051D2F8E5
:1020800084512A4E25F00F05C2F88451D2F88451AC
:102090002843C2F884015869C2F888019869C2F8D7
:1020A0008C01D2F88001224D40F00100C2F880017D
:1020B000204A17681046D1F808C024B91C4A0CEA17
:1020C0000202521B0BE0012C04D1184A0CEA020256
:1020D000921B04E0184A0CEA0202B2EB0E0218BF8F
:1020E00001225AB10268D21BC82AE4D9032283F81C
:1020F0005520002283F854208B69F0BD93F85510C9
:10210000094A32290CBF2221012182F855100022F0
:1021100083F85420F0BD042384F8553084F854200B
:10212000F0BD00BFB41000205C1A002000030008BE
:1021300003000004B010002000000310014B1868D9
:10214000704700BF64100020000000000000000085
:10215000010203040607080904000000080000004B
:10216000100000002000000040000000800000007F
:10217000000100000000000001000000020000005B
:10218000030000000400000005000000060000003D
:0A21900000000000010203044300F8
:10219C0000A24A0400000000000000000000000043
:1021AC000000000000000000000000000000000023
:1021BC000000000098210008000000000000000052
:1021CC000000000000000000000000000000000003
:1021DC0000000000000000000000000000000000F3
:1021EC0000000000000000000000000000000000E3
:1021FC000000000004100020024B4AF6AA221A60CC
:10220C00704700BF0030004030B587B040F000652B
:10221C000024029406AA42F8144D02A9284600F0A4
:10222C003BF80495039401230593124B83F8A449BE
:10223C0083F8A54972B600F027F803A800F01CF843
:10224C0003E0FFF7D9FF00F02FF80A4B93F8A439FD
:10225C0013F0FF0FF5D000F02FF862B6054B93F892
:10226C00A53913F0FF0F01D1012000E0002007B0C9
:10227C0030BD00BFB010002001B40248844601BC40
:10228C00604700BF651E000801B40248844601BCCB
:10229C00604700BF4D1D000801B40248844601BCD4
:1022AC00604700BF591C000801B40248844601BCB9
:1022BC00604700BFC51E000801B40248844601BC3B
:0822CC00604700BF391D000846
:043FFC00F3F9684C21
:00000001FF
