:040000050800419519
:020000040800F2
:1040000000100020475300084553000831530008B2
:104010004B5300081D53000809530008000000001E
:104020000000000000000000000000005D530008D8
:104030005753000800000000515300081D8D000870
:104040006353000863530008635300086353000878
:104050006353000863530008635300086353000868
:1040600063530008635300086353000871BE0008DF
:104070006353000863530008635300086353000848
:10408000635300086353000863530008A3D4000877
:1040900069D2000863530008A1D4000863530008E4
:1040A0006353000819BB000815B6000863530008E5
:1040B0009DC300086353000863530008635300085E
:1040C00063530008635300086353000863530008F8
:1040D00063530008635300086353000863530008E8
:1040E00063530008635300086353000863530008D8
:1040F00063530008635300086353000863530008C8
:104100006353000800000000000000006353000833
:1041100063530008635300086353000863530008A7
:104120007DBE000863530008635300086353000812
:104130006353000863530008000000000000000003
:10414000F9BD000863530008635300080000000035
:10415000000000000000000000000000000000005F
:104160006353000863530008635300086353000857
:104170006353000863530008635300086353000847
:1041800063530008635300080000000000000000B3
:1041900063530008944BD3F888202DE9804842F4FB
:1041A0007002924FC3F888203A6842F001023A60E8
:1041B00079688F4A0A407A603A6822F0847222F461
:1041C00080323A603A6822F480223A607A6822F4B7
:1041D000FE027A60FA6A22F00F02FA62396B854AAF
:1041E0000A403A630022BA604FF000629A60824A45
:1041F0009A60D3F88820814942F47002C3F888207D
:104200007F4A804BA9B08B4204D252F8040F43F886
:10421000040BF8E77C4B7D4A0021934202D243F81D
:10422000041BFAE77A687149DFF80882784B02F0DC
:104230000C02042A0DD0082A0BD14A684868C96AC2
:10424000C2F38342023201F00F010131B3FBF1F3FB
:104250005343C8F800307B686E4C6F4EC3F30313B2
:104260004FF00009E25CD8F80030D340C8F80030C5
:104270006A4BF61AB6109A464E4505DD5AF82930B3
:10428000984709F10109F7E7654B664EF61AB61033
:104290004FF000099A464E4505DD5AF829309847F7
:1042A00009F10109F7E7604A4F49136843F0100329
:1042B0001360CB684FF6FF021A405C4B1343CB6090
:1042C000D8F800304FF47A72B3FBF2F3013BB3F14C
:1042D000807F08D2564A5360F02381F823300023B0
:1042E000936007231360002211464FF0FF3005F062
:1042F0003BFF4D4A136823F0070343F002031360AA
:104300003B6823F480233B603B6843F480333B608D
:104310003B68364A9803FBD5136843F001031360EA
:104320003B68324A9907FBD5536A43F00103536255
:104330007A6A2E4B9207FBD55A6822F4761242F421
:10434000E8125A60DA6A22F00F02DA621A6842F062
:1043500080721A603B68254A9B01FBD5536823F0A5
:10436000F0035360536823F0030343F002035360E8
:104370007A681E4B02F00C02082AF9D15A682C49BF
:1043800022F4E06242F480625A605A6822F4605279
:104390005A60DA6A22F4F87242F48072DA621A6BB6
:1043A00022F020021A630A6842F004020A605A6886
:1043B00002F00C02082A3FD15A68D86A5A684FF4B2
:1043C000701393FAA3F3B3FA83F302F47011DAB221
:1043D00021FA02F2023200F00F0301330C49B1FB63
:1043E000F3F3534329E000BF00ED00E0001002406A
:1043F0000CC07FF8CCFC00FF004000083C190020F6
:104400007C1C01080010002040190020602F0020B3
:1044100000127A0018010108B0530008B0530008D8
:10442000B0530008B0530008002002400003FA0512
:1044300010E000E0101000209E4B7968F02292FA04
:10444000A2F2B2FA82F201F0F001D2B221FA02F243
:10445000A25CD3407A684FF4E06292FAA2F2B2FA18
:1044600082F27A684FF4605292FAA2F2B2FA82F2C1
:10447000914ADFF864924FF47A76B3FBF6F1013992
:1044800000245160052194601160116841F002011F
:1044900011604FF0FF3022462146C8F8003005F089
:1044A00063FE864B86484FF0010883F800807B69E5
:1044B00089F8004043F4001389F80140C9F80490DA
:1044C0007B617B69239403F400130DF1A00B0E9321
:1044D0000E9B259402234BF8183D4FF0030A5946D2
:1044E000CDF898802794CDF890A009F0E1FA7B6987
:1044F000734843F400137B617B69239403F4001336
:1045000004220D935946229203920D9B2594CDF8D7
:1045100098802794CDF890A009F0CAFA7B69684882
:1045200043F400137B617B69239403F400130C9321
:104530000C9B259408235946CDF898802794229304
:10454000CDF890A009F0B4FA7B695D4843F40013FC
:104550007B617B69239403F400130B930B9B2594DD
:1045600010235946CDF8988027942293CDF890A037
:1045700009F09EFA7B69524843F400137B617B6922
:10458000239403F400130A930A9B2594202359468D
:10459000CDF8988027942293CDF890A009F088FA5E
:1045A0007B69039A474843F480137B617B692292BD
:1045B00003F4801309935946099B23942594CDF85D
:1045C00098802794CDF890A009F072FA7B693E4854
:1045D00043F480237B617B69CDF88C8003F48023D6
:1045E0000893089B25944FF480735946249426948D
:1045F000229305F0DBFA7B69334843F480237B6127
:104600007B69324F249403F480230793079B594618
:104610004FF48063229340F6FE7805F0C7FA2246F5
:1046200020464FF0FF314C4649F6404E4FF47A6C2D
:10463000039607F11C09039E57F82030BEFBF3F3E5
:104640000CFB03F3B3FBF6F35E1E464588BF4FF049
:10465000FF334E1C4FEA800A04D15E1C1CBF5AF87F
:104660000920194601300728E5D1194BA26045F20F
:10467000555002F00702E1601860C1F30B015A6067
:1046800000229960134F1A604CF6CC421A600393D3
:10469000039B1A464AF6AA23136063685B78042BCF
:1046A00000F2F385DFE813F01A0016051B05D605A6
:1046B000330500BF00127A0010E000E00400002083
:1046C00000100048000C00480004004828010108C0
:1046D0000030004000100240701A00200023C04942
:1046E000C04E237018460A6902F00202B2FA82F242
:1046F000520962F300050A6902F00402B2FA82F27A
:10470000520962F341050A6902F00802B2FA82F224
:10471000520962F382050A6902F01002B2FA82F2CB
:10472000520962F3C3050A6902F02002B2FA82F26A
:10473000520962F30415326902F00402B2FA82F2FD
:10474000520962F345156FF38715EAB28242039866
:1047500008BF0133864618BF00234AF6AA20FF2B64
:10476000CEF800001046BED14FF0FF332274A36193
:1047700039329D4B9C49D2B21A7032234B8022753C
:104780009A4B0AB183F8212032229A81FF224FF0FE
:104790000008974EDA77802283F8228083F82380FE
:1047A00083F81C8083F81E8083F8208083F81D80A6
:1047B000DA8283F8188083F81980A3F80E80A3F8B2
:1047C0001480A3F81A808B4B33608B4BC6F818808B
:1047D0004FF00109C6F81C90C6F82090C6F8248056
:1047E000C6F82C90C6F8088033631C3373633268B4
:1047F000136843F48033136005F0BFF97F4BB0FBBF
:10480000F3F04FF460237060C6F80C8033614FF40E
:104810008013736103F18043A3F55F23784ADB695A
:10482000704843F00073D361D36903F000731193B0
:10483000119B536943F480135361536903F480134C
:104840001093109B536943F4801353615369CDF85F
:10485000949003F480130F930F9BCDF8989002234C
:104860004FF0030A22932393594607232793049377
:10487000CDF890A009F01CF9022323935946049B1C
:1048800058482793CDF88890CDF89490CDF898901B
:10489000CDF890A0DFF8709109F00AF94246514630
:1048A000132005F061FC4FF40023C9F800304246A4
:1048B0005146142005F058FC4FF48013C9F800301D
:1048C00042465146162005F04FFC4FF48003C9F8CC
:1048D000003096F83930022103F0FF020BB986F858
:1048E000382086F8391033681A6822F002021A60FC
:1048F0001A6842F001021A60424A106811465A686A
:1049000012F001020CD1D1F800E0C0EB0E0EBEF1A6
:104910000A0FF4D9032386F8393086F8382057E097
:104920005A68D00740F1DD84B269012A1A680CBFC9
:1049300042F0800222F080021A60F269012A1A68AD
:104940000CBF42F0400222F040021A60326A012A93
:104950001A680CBF42F0200222F020021A60726A2C
:10496000012A1A680CBF42F0100222F010021A60ED
:10497000B26A012A1A680CBF42F0080222F008024B
:104980001A60F26A012A1A680CBF42F0040222F08F
:1049900004021A60B068F268104332690243706919
:1049A00010437268013A0243DA611A6822F0010288
:1049B0001A60144A10685A68D20729D50A68121A70
:1049C0000A2AF8D9032386F83930002386F83830CC
:1049D0000022DFF8389092464FF6FF7321E000BFC7
:1049E00000100048000C00482C100020182E002059
:1049F000402E002000640040B81A0020A0BB0D002B
:104A0000001002401C1F002000E100E0201F0020D9
:104A10005B6813F0010340F06484F363012300F04A
:104A200061BCC9F81420C9F80830C9F80C30C9F8BD
:104A300018A0C9F81CA0C9F800A0C9F804A0C9F8BA
:104A400010A0C9F820A0C9F824A0484605920493F4
:104A500008F08AFF059A049B01320E2A4FF00008E5
:104A600009F12809DDD1DFF87093CB4B326883F868
:104A7000C0804FF0010A89F824A083F8C18083F830
:104A8000C28083F8C380536943F0020353613268E4
:104A9000536943F0080353613268536943EA0A03D8
:104AA00053613268536943F40F43536108F0C2FF06
:104AB000BA4BBB481B68A9F81430B84B89F80AA058
:104AC0001B6889F80080C833A9F81A3099F821309A
:104AD00084F88E8003F5E062A9F80820B14A03F556
:104AE000B0631381082393724FF40041424608EBF0
:104AF000000308F11C08B8F1E00F1981DA81F6D142
:104B00000023A94E4FF4004019469A191033802B08
:104B100010819181F9D1002008F0ACFD18B948F25C
:104B2000210008F0D5FCB9F8160008F0A3FD18B96B
:104B300048F2210008F0CCFC99F821009B4B0022A0
:104B400000F5C0609A8183F8202083F8212008F0C6
:104B500091FD18B948F2230008F0BAFC944A4FF6C8
:104B6000FF73938040F2392100230822012009F0CD
:104B7000BBF908231A4640F23931022009F0B4F992
:104B80001023082240F23941032009F0ADF9002337
:104B90001A4640F23951042009F0A6F900231A46BA
:104BA00040F23A21052009F09FF900231A4640F20D
:104BB0003A31062009F098F900231A4640F23A41AA
:104BC000072009F091F900231A4640F23A510820D3
:104BD00009F08AF91823082240F2B911012009F0DE
:104BE000ADF82023082240F2B921022009F0A6F8EE
:104BF0002823082240F2B931032009F09FF830231E
:104C0000022240F2B941042009F098F83423072227
:104C10004FF4DD71052009F091F83C23052240F2A4
:104C2000BA21062009F08AF84423042240F2BA315E
:104C3000072009F083F800231A4640F2BA41082001
:104C400009F07CF85B4B002203F5807143F8042CDB
:104C50001A605A609A60DA601A615A619A61203368
:104C60008B424FF00008F1D1534B84F89081534AA6
:104C700000934146524B534E404602F0F1FF4FF035
:104C8000010A14224FF003094146584609F025FA5B
:104C9000CDF88CA0CDF894907B694B4843F4002369
:104CA0007B617B6903F400231393139B59464FF4F4
:104CB0008043229304F07AFF7B69434843F4002346
:104CC0007B617B6903F400231293129B59464FF4D6
:104CD0000043229304F06AFF14224146584609F02B
:104CE000FCF94C224146304609F0F7F91223239390
:104CF000CDF890A0CDF894907B69344843F48003BC
:104D00007B617B6903F480031693169B40232293F7
:104D1000594604232693049304F048FF7A69049BC0
:104D200042F400327A617A69269302F400321592D5
:104D3000159A59464FF480624FF09040229204F049
:104D400035FFFB69224943F48003FB61FB69716015
:104D500003F4800314932222149BB26096F841203E
:104D60001C4B3360C6F80CA0C6F81080C6F814902F
:104D7000C6F81C80C6F8208002F0FF000AB986F849
:104D800040004FF0240E86F841E0D3F800C00D48F3
:104D9000104A2CF0010C21E0502100201C1F0020A3
:104DA000802E0020101F0020EC1D0020F42D00207C
:104DB0002C100020041B0020EDB80008A1BA000848
:104DC000A1B900081422002000080048001400487F
:104DD000CC8DC11000580040182E0020C3F800C030
:104DE0001961996821F40041996048F222019960A3
:104DF000596841F0007141F400415960B1690902FC
:104E000041F00301D96000211960D3F800C04CF0D3
:104E1000010CC3F800C02023716486F8413031636F
:104E200086F8421096F84130DBB2202B17D190F86B
:104E30004060012E13D080F841E0166826F001068C
:104E40001660166826F48056166016681660166896
:104E500046F00106166080F8413080F84010DFF817
:104E6000208314220021404609F037F904214FF431
:104E7000115006F042FF022319465A464FF41150D2
:104E800002F038FF584606F006FFA44BA44AA54995
:104E9000A5480093A54B02F0E3FE06F053FF3E2326
:104EA00000268DF8883001220223594650208DF8C3
:104EB000896003F00BFEB8F80E209D499D484FF421
:104EC0007A7393FBF2F3C8F804309B4B9B4A1B6840
:104ED000C8F800309A4B00939A4BDFF8A88202F092
:104EE000BFFE994B994A9A4900939A489A4B02F00F
:104EF000B7FE06F087FA142231461DA809F0EDF836
:104F000054223146954809F0E8F83C2231464046A3
:104F100009F0E3F87B69924A43F001037B617B6906
:104F2000C8F81C6003F001031C931C9BC8F8002008
:104F30008023C8F80C304FF48073C8F810304FF459
:104F40008063C8F814302023C8F81830136888F834
:104F5000206023F47F5323F030034FF0010943F422
:104F6000B463136002217D4BC8F824304A460B20FD
:104F7000C8F8386088F82190C4F8D08105F0F4F8BA
:104F8000784B79484FF400621A6003231E931F96F2
:104F900020937B6943F400237B617B6903F4002346
:104FA0001B931B9B1DA902231D9304F0FFFD7B692E
:104FB0006D4843F400237B617B6903F400231A935B
:104FC0004FF004081DA91A9BCDF8748004F0EEFD83
:104FD0007B69654843F400237B617B69CDF874905D
:104FE00003F4002319931DA9199B04F0DFFD7B69CD
:104FF0005A4843F080537B617B6903F080531893D8
:10500000189B7B6943F080537B617B69C4F898618E
:1050100003F080531793179BC4F89C614FF0A04393
:10502000C4F894310823C4F8A831C4F8A061C4F8C6
:10503000A491C4F8AC61C4F8B091C4F8B481C4F8C8
:10504000B861C4F8BC91C4F8C091C4F8C461C4F894
:10505000C891C4F8CC6102F089FC94F8D4314B4576
:1050600002D03E4803F070FC102322934FF0070853
:1050700000235946012639482593269327932396E2
:10508000CDF8908002F0FAF9022359463348239371
:10509000CDF8888002F0F2F90923229359460323C0
:1050A0002E48239302F0EAF906232293594604235B
:1050B0002A48239302F0E2F940222C49274802F0C3
:1050C0006BFB08B92A4B1E60002001F01BFA02207E
:1050D00001F018FA6678217826480022DEE094F87C
:1050E0009061012E0FD006F02DFE022E0BD1224A28
:1050F00000231370214A82F82F3082F8633082F83F
:10510000973082F8CB3007F0CDFD0123BAE094F858
:105110009031012B38D106F02BFE37E0FBBC0008A4
:10512000CDB90008E5B50008E7B5000805B90008E5
:105130002D8D00082F8D00081C1F0020798F00087E
:10514000378D0008ED8D000829AC000839A700084C
:1051500041A2000843A20008BDA20008041C0020D0
:105160000800024000E100E000080048742D002023
:105170006C2D00203210002098230020C82200202F
:1051800094270020A8270020022B0BD0574A012388
:105190001370574A82F82E3082F8623082F89630C7
:1051A00082F8CA3007F07EFD524E534B7268D3F836
:1051B00000903368C3EB0903934236D90DF1A00880
:1051C0001A2308F8853D06225946404607F076FB2B
:1051D000BDF88A307381BDF88C30B3810121BDF8F0
:1051E0008830338142F2414006F08CFB022142F2CA
:1051F000414006F087FB032142F2414006F082FB6A
:1052000028A934238DF81B30002301F82C3D0122FE
:10521000404607F053FB9DF874307374012142F24D
:10522000464006F06FFBC6F80090344B1A7812F037
:10523000010F334A4FF4804114BF916191621B7892
:1052400013F0020F2E4B4FF4004214BF9A619A6282
:10525000022317E094F89031012B02D106F088FD6B
:105260000DE0022B0BD1214A00231370204A82F853
:105270002F3082F8633082F8973082F8CB3007F015
:1052800011FD032384F8903124E700F091F821E721
:10529000002303322A2A0CD0002BFAD1135CB3422C
:1052A000F6D1831893F801E03EEA010E18BF0023FF
:1052B000EFE72BB15A789B78637021EA02012170E5
:1052C000B4F8E8314BB10C4B0E4A1B68B2F8EA2136
:1052D0009BB29A4201D204F023F800F069F8FFF77C
:1052E000D7B9042386F83930FFF772BB9823002022
:1052F000C8220020942700201C1F00209027002097
:1053000000080048701A00201EF0040F0CBFEFF3D5
:105310000880EFF309807146174A10471EF0040F0A
:105320000CBFEFF30880EFF309807146134A104772
:105330001EF0040F0CBFEFF30880EFF309807146F5
:105340000F4A1047FEE70F48004708B502F086F8FD
:1053500008B502F083F808B502F080F808B502F04D
:105360007DF8FEE708B502F079F808B502F076F8A6
:1053700008B502F073F80000655300087153000887
:105380006B53000895410008801C010800100020A4
:105390003C190020801C01080000001000000010D3
:1053A00040190020602F00200000001000000010B5
:1053B0002DE9F04FBC4890F8C33090F8C2209A42D3
:1053C00089B000F098860C2202FB0302B74F116EE1
:1053D0003960516E79600133916EB96003F0070353
:1053E00080F8C3303B89DFF8CC82002B40F08B8003
:1053F0007B7898F821209A4202D0002B40F07B86DF
:10540000397880296AD00ED8012915D0022974D1A3
:105410000423A74A88F80030012388F81D30137848
:1054200043F0080367E0812962D0822965D1A04A50
:10543000137843F001035EE098F800209D4B052AA5
:1054400000F05E8105221A70FF225A77984ADFF831
:1054500078921378984E43F00403137000251C27AC
:1054600098F81830E8B2834213D907FB009421461C
:1054700002F0D2FD3368023B638202232376336855
:10548000023BE382A37E63760BB9F123A376013559
:10549000E6E78A4B874D8A4E08221A80002498F846
:1054A0001910844AE3B2994211D995F92220002AB1
:1054B0000BDB06EB03131889070406D408F0DAF8AF
:1054C00018B948F2220008F003F80134E7E792F82F
:1054D000223063F07F0382F8223011E1744A7F2387
:1054E00088F8003088F81D30137843F0020302E09A
:1054F00003F016FF04E1137002E1002300931A4643
:105500004FF4024093E0B8F8162098F800109A4241
:1055100065D1052940F0EF85DFF8ACA100263546BE
:105520001C27D14698F81830B4B2A34236D907FBED
:1055300004A3B3F90820002A2EDB9B7E0BB1F12BCC
:1055400017D107FB049B59462046029302F03EFD0B
:1055500010B9029BF12B0CD11C2303FB04930022F6
:105560009A765946204602F057FD204608F04CFD39
:10557000012507FB04918B7E013BDBB2EF2B0BD89F
:105580004B7E013BDBB24B7633B9204602F044FD43
:10559000204608F039FD01250136C3E7484F0026B3
:1055A00098F81930B0B2834214D907EB0014B4F95B
:1055B0000830002B0CDBE37BF02B09D8214602F0EE
:1055C0004DFDA27B6189A08907F0F8FF45F0020537
:1055D0000136E5E7002D40F0938000F08CBD0529F1
:1055E00040F0918098F81950354E00220FFA83FE52
:1055F00000E00132D0B2A84280F0858006EB0214B0
:10560000B4F808C09C45F4D1BEF1000FF1DBBD7ABF
:10561000A37B9D4212D298F82320A18942F0010277
:1056200088F8232048F210200A0A0095C9B208F031
:1056300051F9002864D144F6100032E0E27BFD2AE3
:1056400008D91A4902F00AFDA27B6189A08907F0F6
:10565000B5FF55E0F02A53D81A461449204608F001
:1056600031FD4DE003F0E001E0296BD0A02B69D0C3
:10567000707E02286AD100296BD000237376F02354
:10568000042B23D9102B00F0AC8140F27F81203B0A
:10569000012B00F2A1810B4808F024F880BB4FF4E5
:1056A000EE6007F015FF2BE050210020FC1E0020CB
:1056B000701A0020182E00201C1F0020301000201F
:1056C000EC1D0020101F0020802E0020012B40F038
:1056D0005681B37E03F0100320332370B14B0021B9
:1056E000DA1D03F8011B9A42FBD1AF4807F0FAFF1D
:1056F00018B94FF4EE6007F0EBFEB37EDB43B376F0
:10570000012000F0EABE98F8212002F5C060834233
:1057100040F08681042900F08381A34C3B7897F800
:10572000029097F803A084F8029002F5B0622281FB
:10573000802B7A78627084F803A09C4E92D100236B
:10574000737656E100237376994847E1042823D104
:1057500091E7B27E82EA1312D50703D50023737650
:1057600002238DE76FEA53039248904903F0070242
:10577000002A00F06D813368002B00F065814B69D1
:1057800010F8015B1D704B6901334B610B68013AE6
:10579000013BD2B20B60EBE701283FD160297FF4D7
:1057A0006CAFB17E81EA1313D807D7D47D4D7F4803
:1057B000072332686AB1D0F814E0013B1EF801CB30
:1057C00005F801CB013A13F0FF03C0F814E00260C2
:1057D000EFD13068754A78B910606BB1306858B154
:1057E000D2F814E0013B1EF801CB05F801CBC2F85A
:1057F00014E0DBB20138EFE70A0102F0100202EB1D
:1058000043033268DBB223702AB9674843F00103CF
:105810000370664B5A76CB43B376AAE002EB0929B4
:1058200003F0F002202A1FFA89F942D106F114038D
:10583000009307AA33465146484607F0B7FFFF28B2
:1058400001D100231CE79DF81C30990640F1A68089
:10585000D6F800E0554ABEF1030F40F29F803B7836
:105860005549387903F0020303F0FF0C5BB153692B
:1058700018705369487958705369887998705369DA
:10588000CA79DA7013E0CD798B7903EB05234D7972
:1058900005EB032300EB03239E456CD31360022327
:1058A0005376CB7882F81AC0A2F80C9013761023A6
:1058B000E6E6402BC5D141F2080399450FD1337F6D
:1058C000DFF8E8B0432B1CD10BF11C031846029300
:1058D00008F00BFC029BCBF8143005460FE041F2B8
:1058E0000A0399450DD1DFF8ECB09BF80030762B18
:1058F00007D1584608F0F9FBC6F814B00546012355
:1059000001E000252B46294A35600BB15169116130
:1059100010228DF81C2023B19DF81C30DA062CD5FE
:105920000AE0264B009307AA143B5146484607F06D
:105930003DFFFF2885D0EFE7012373760023B37680
:105940004122FB783376A6F80C90174B22703DB1BC
:105950002A0A5A71280E2A0C1D719A71D87108E012
:10596000124A12681A71110A5971110C120E9971AA
:10597000DA71202384E6072382E6052380E638D304
:10598000022B09D0032B27D10D4827E0052B07D088
:10599000062B21D10B4821E00B481FE00B481DE0EE
:1059A0000B481BE0111F0020101F00204019002091
:1059B00001000405FD1E0020FC1E002054190020DB
:1059C0002000000800000206000003050200010696
:1059D00001000106001000204FF0006008F034FBC9
:1059E0001BE060232370002323716371A371E371B3
:1059F00051E697F80090BA787B78FD78637009F0EB
:105A0000E00ABAF1400FA270E5702AD0BAF1200F77
:105A100027D0BAF1800F40F0D180002373766FE673
:105A2000AB4A9179002900F066839188994240F051
:105A3000628302239371A74B196813880B44538028
:105A4000002388F81F305BE6A34A5376032317E64A
:105A50003B7813F0010F4FF001033FF411AE727663
:105A60000EE603EB0226B3B2B3F5805F029303D1D7
:105A7000FF2D4DD19948AFE2029A41F218039A42A4
:105A800046D1042D44D1BAF1400F3FD1944B08A820
:105A90005B6840F8043D29465EE2029A41F2170332
:105AA0009A425DD0029A41F218039A4200F0948023
:105AB000029A41F651739A4200F0D180029A41F263
:105AC00005039A4200F0F480029A41F214039A42CC
:105AD00000F05481029A41F215039A4200F05C8171
:105AE000029A41F203039A4200F07781029A41F24E
:105AF00016039A4240F0E081BAF1400F00F0AD8108
:105B0000B9F1230F00F0BA81002D5CD1754863E232
:105B1000029BA3F5A053B3F5007F02D202990120A6
:105B200010E0029BA3F5B053B3F5007F02D20299B7
:105B3000012012E0029BA3F5C053B3F5007F04D20D
:105B40000299002002F0B2FBDAE5029BA3F5D053E4
:105B5000B3F5007FA1D20299002002F09DFACFE5B3
:105B6000002D40F0A981BAF1400F0FD14B232370D3
:105B7000B8F80E3023711B0A63715B4807F0B2FD61
:105B800000287FF4BDAD44F630008AE5B9F12B0F53
:105B900011D17A79130601D554481DE2544B1B7973
:105BA00003EB02234B4A12689BB2A8F80E30134451
:105BB000A8F810304DE1B9F1210F01D14D480BE2A9
:105BC000B9F1230F05D14C4806E2B9F1230F00F0DB
:105BD0009F804FF00060FFE1002D00F06D81BAF171
:105BE000400F40F069813B79412B40F06581404B8B
:105BF0005B79532B40F06081BA79452A40F05C8193
:105C00003B4BDB79FF2B40F0578141218DF8181079
:105C1000022D4FF053018DF819108DF81A208DF8D0
:105C20001B300CD14D238DF8183043238DF81930DB
:105C30004F238DF81A3050238DF81B300DE0032DC3
:105C40000BD106238DF81B3015238DF81A308723CE
:105C50008DF819300D238DF8183004217BE1012DCA
:105C600040F02A81BAF1400F03D14F232370012362
:105C70008FE0B9F12F0F19D13B79BBB91F4A2049E9
:105C80001160204A01211180124A1F4912683232E4
:105C90000A806022227023716371A371E3716CE743
:105CA000B9F1230F02D1144808F0CEF9174893E157
:105CB000002D40F00181BAF1400F86D143232370BB
:105CC000B8F8163023711B0A63710023E5E700BFA3
:105CD000F81A00201C1F002040190020110009069E
:105CE000841A002002000106101F0020310009065E
:105CF000FC1E00200100040510000706FC3F0040C8
:105D000087436521581C00205A1C00200000010612
:105D1000BA79BF4B002A7FF43FAFDD79002D7FF4C5
:105D20003BAF58791B7903EB00207F287FF734AF16
:105D30006FF4807900EB09037F2B7FF62DAF6FF4B2
:105D4000B06C00EB0C037E2B7FF626AF6FF4C06EB9
:105D500000EB0E037E2B7FF61FAFA0F5DC631F2B3D
:105D60007FF61AAF6FF4E067C319FE2B7FF614AF0E
:105D700080B2A8F8160007F07DFC6AE0002D40F024
:105D80009B80BAF1400F91D14323237098F82130C2
:105D9000803B237100237FE7002D40F08D80BAF116
:105DA000400F07D19B4B9A890A2353434B220793F9
:105DB0002270DFE6B9F12B0F7FF472AF7A793B796D
:105DC00003EB0223934A07930A210933B3FBF1F350
:105DD0009381914B1B68D3813BE0BAF1400F28D1EE
:105DE000042D3FF647AE8B4991F8213085B1AB4287
:105DF0000CD391F820305B1B9BB21AB2002ABCBFB7
:105E000004331AB2131D51F8233001E04FF0FF3371
:105E10005E1C07933FF44AAF15B94F22227030E160
:105E2000432222701A0A62711A0C2371A2711B0E8E
:105E300034E7B9F12F0F7FF4CCAE002D7FF436AFED
:105E40003B79002B7FF4A8AE724B83F8205083F887
:105E5000215060232370257114E1002D3FF405AF1C
:105E6000012D3FF607AE6D4A43232370138823713B
:105E70001B0A63719388A37100230FE797F806B09C
:105E800098F821305B453FF43FAE1BF0800F7FF464
:105E90003BAE6A1E614BD2B24FEAC20803EB080167
:105EA0000BF5E069898849459A4600F0EF809B88A8
:105EB000994540F0EB8027E62946029807F0C6FC9A
:105EC0004FF6FF739842074600F0B8805448062307
:105ED00003FB0700BAF1400F42790379C17803EB65
:105EE00002231FFA83FB3BD1C8067FF5DFAE4D4C82
:105EF000DFF84081DFF8409101F00F0704F5807A68
:105F000054F8043C63B123684B4509D1A3694B4560
:105F100006D12369029829469847012818BF804670
:105F20002034A245ECD1B8F1000F01D0404653E037
:105F30003D493A46594407A808F0C4F8079B8DF834
:105F400018301A0A8DF819201A0C1B0E8DF81A2019
:105F50008DF81B30394606A808F08EF8FFF7D0BB45
:105F60008A067FF5A3AEC9F38109C9F104095FFA76
:105F700089F301F00F018B4203937FF424AE2B4B86
:105F8000284FDFF8B4A003F6750903EB0B0209EB09
:105F90000B030492059307F580784FF0006957F8DA
:105FA000043C93B13B6853450FD1BB6953450CD1B9
:105FB000039B0193059B00931D4A049B0298FE6876
:105FC0002946B047012818BF81462037B845E6D199
:105FD000B9F1000F04D0484608F036F8FFF790BB3F
:105FE000114F039A12495F44384608F06BF8039B3F
:105FF00002983A46294601F015FE6023237084F882
:10600000049084F8059084F8069084F80790B4E52D
:10601000FC1E0020F42D00201C1F0020F81A002078
:1060200068010108041B00205C10002008F0000833
:10603000001F0020000001061EAB11CA294602986D
:1060400007F024FCB8420BD0BAF1400F7FF45EADEC
:10605000B14B03EBC00003682360436863608CE5C9
:10606000029A41F201039A427FF4B3AD002D7FF40E
:10607000B0ADBAF1400F7FF449AD4F23237098F8CB
:10608000233023716571A571E57176E57E793B79E1
:10609000012D03EB0626B6B205D049F60110029297
:1060A00007F016FA029ABBF1000F00D046B9D044AF
:1060B000002388F806302AF83230A8F8043016E0B9
:1060C00016F4004F47F6FF73D04418BF1E461FFA60
:1060D00089F001232AF83260A8F8040088F8063015
:1060E00007F0C8FA18B949F6021007F0F1F9602371
:1060F00023700023CFE5894D2B884FF6FD72934224
:1061000047D94FF6FF74A3420FD1854B85481B68D2
:1061100003F57A73038207F0E5FA18B944F64000F4
:1061200007F0D6F92B88013B31E007F01FFB83070E
:1061300005D57C4B188A07F0B5F900B12C8007F023
:1061400015FB00F0400000F0FF03002840F0F9804C
:10615000744A7348D1890468D377214411827F211E
:106160001170517770490A7842F002020A70026891
:106170006E49013ACA81184600931A46194607F03B
:10618000A9FB18B944F6100007F0A2F908232B80E8
:10619000EDE0644C608B07F085F92346002800F0A1
:1061A000D0805F4A217F1268C8326283627FC94310
:1061B000C9B2032A21773AD006D8012A5C481DD0FB
:1061C0002AD84FF4807225E07F2A12D0FF2A0CD003
:1061D000042A44D1A27F0132D2B20B2A88BF002206
:1061E000A277A27F12F0F90F32E04FF48070504A8C
:1061F00032E04F4A4FF4807081BB2DE0A27F013224
:10620000D2B2052AA2774FF4807203D900249C777A
:10621000826224E0826122E0A27F0132D2B2072AA8
:1062200088BF0022A277A27F12F0FD0F10E0A27FAC
:106230000132D2B2092A88BF0022A277A47F3C4A49
:1062400014F0FD0F4FF4807006D0042C06D103E04B
:10625000374A4FF4807001D1906200E09061D87F9E
:10626000304A032844D006D80128314921D031D8FA
:106270004FF480632CE07F2815D0FF280FD004282E
:106280005FD192F820100131C9B20B2988BF0021DB
:1062900082F8201093F8203013F0F90F4AE04FF401
:1062A0008062234B4AE0224B4FF48062002947D1A1
:1062B00044E092F820300133DBB2052B82F8203025
:1062C0004FF4806304D9002082F820008B6238E00C
:1062D0008B6136E092F820100131C9B2072988BFDE
:1062E000002182F8201093F8203013F0FD0F21E0F8
:1062F00092F820100131C9B2092988BF002182F823
:10630000201093F820100A4B11F0FD0F4FF480621B
:1063100014D0042914D111E05811010830100020C4
:106320001C1F0020182E0020701A0020F42D0020C1
:10633000000400486A4B4FF4806201D19A6200E089
:106340009A61684CE08907F0ADF800284ED0664E9F
:106350003368013BE3812389002B47D0204607F0B7
:10636000C1F9002323813268A3891344E381012505
:106370005E4B93F823200132D2B2012A88BF01225A
:1063800083F8232093F82340012C03D049F603100F
:1063900007F09EF8013CE4B2554EE400371997F837
:1063A0000680B8F1020F17D1788807F07BF898B112
:1063B00000231A463979009348F2301007F08AFA20
:1063C0004C4B7F221A704C4A83F81F80137843F09D
:1063D000020313700123BB713444A379032B3FF4F0
:1063E0008FA9022D7FF48CA9002076E0414E3378EE
:1063F000052B54D12B88327E404F01339BB29A42F9
:106400002B809EBF3E4B00221A802D881C2404FB4B
:106410000574B4F90830002B41DDA37EFD2B3ED975
:10642000238A13B94FF000080DE0608A07F03AF8AC
:106430000028F7D02146284601F0EEFD284607F057
:10644000E3FD4FF001081C2404FB0574237E43B1D7
:10645000E08A07F027F8F0B1237E022B15D0002345
:1064600018E0A28ABAB1238A9A4200D39BB91C23AE
:1064700003FB05742146284601F0A8FD58B12146CA
:10648000284601F0C9FD237E1BB9284607F0BCFD54
:106490006DE702232376B8F1000F7FF468AFF3892C
:1064A0000BB9022564E7134B1B787F2B02D0043B0A
:1064B000012BF6D8308A06F0F5FF0028F1D00D4800
:1064C00007F010F918B944F6400007F001F8064B40
:1064D0001A68F3891344338249E709B0BDE8F08FA5
:1064E00000040048F42D00201C1F0020401900204B
:1064F000F81A0020182E0020701A0020802E00208C
:10650000301000202DE9F04F07461B4CDFF86C805F
:10651000342207F10C0602FB0045F602B7B0B6B212
:106520000021284607F0D9FDF01D002180B202F0BD
:1065300002FC06F2024080B2002102F0FCFB06F1F0
:10654000400080B2002102F0F6FB06F1600080B24C
:1065500000214FF4AC7902F0EEFB09FB0789002320
:10656000AB80C5F8309085F82C30384604F00CFA32
:1065700030B1012309E000BFC82200200828002014
:10658000384604F0FDF910B1032385F82A3034228F
:1065900002FB074300254FF4AC7483F82E5083F8B8
:1065A0002F5022462946484607F097FD04FB0782F4
:1065B000FC211171917111724FF4FA61C2F8B81097
:1065C00041F28831A2F89A1040F24D11C2F88810B9
:1065D00042F210734FF4E1514FF00108C2F8483114
:1065E000C2F85031C2F884100223A7214FF0050AE7
:1065F000A2F85431D367A2F84C81C2F82C81C2F8BA
:106600003081C2F878A0C2F80C80C2F81080C2F8BD
:106610001C80C2F82080C2F84080C2F83C80C2F8DA
:106620003480C2F83880D171517282F845503846B2
:10663000019304F089FA384604F022FA384604F04F
:10664000BCF9019B002F40F06982BF4ADFF8249318
:10665000BE4C1760BE4ADFF820B3C4F86071C4F8BE
:106660006871C4F86471176099F800200BF8027023
:1066700099F801200BF8028099F802200BF80230FB
:1066800099F803304FF003080BF8038099F80430B1
:1066900004220BF8032005F1804599F8053005F533
:1066A0000435142239462BA80BF803A007F015FD7A
:1066B0001422394604F1680007F00FFDEB6943F03E
:1066C0000053EB61EB6903F000530C930C9B6B6977
:1066D00043F400336B616B69CDF8B08003F4003391
:1066E0000B930B9B2BA910234FF090402B9303F09F
:1066F0005DFA984BA36694F86C30CDF808B0CDF8ED
:1067000004900BB984F86D7094F86D208F484FF0A9
:10671000010E00210223724584F86C302491A16798
:10672000259184F86CE0269110D08A4A80F86C306C
:10673000136823F47F6323F00E031360136823F0C0
:10674000C003136080F86CE080F86D104FF0000912
:10675000142200212BA807F0C0FC342249467E48B1
:10676000DFF8188207F0B9FC6B6943F400336B6102
:106770006B6903F400330A930A9B04232B932BA920
:1067800003234FF090402C9303F010FA6B6943F40D
:1067900000336B616B6903F400330993099B2BA9E8
:1067A00040234FF090402B9303F000FA6021C4F88F
:1067B00080100C21C4F8881094F8AE10674A634B1F
:1067C000E2670529C4F88C90C4F8A09034D093F8FF
:1067D000AE10022930D0D8F8181041F00101C8F8E5
:1067E0001810D8F8181001F001010D910D9993F8C7
:1067F000AE1001F0FF0009B983F8AD00D4F8941091
:10680000D4F8983010680B43D4F89C1043F06C0314
:106810001943534B03400B43D4F8A41043EAC1433C
:10682000D4F8A81043EA0163136094F8AE301BB9A2
:10683000464B012283F8AE20142200214FF00009BC
:106840002BA807F04AFC2C2249464648DFF8FC807A
:1068500007F043FC444BE36340F27F434020A364D2
:10686000032323664A462064012103F07DFC3F4B4D
:1068700001229A6094F86530DB0647D4AB69134374
:10688000AB61AB6913400F930F9B98F8653003F031
:10689000FF020BB988F864200023E16B0E930B68AC
:1068A0000E930E9B226C23F4800323F0700313439A
:1068B0000E930E9B23F00202636C13430E930E9B08
:1068C00023F44022636D13430E930E9BA26C23F4BA
:1068D000705302F4705213430E930E9B23F4004244
:1068E000E36C13430E930E9A236D13430E930E9A8B
:1068F000A36D13430E930E9B23F40072E36D1343B9
:106900000E930E9B0B60012384F865304FF0000856
:10691000DFF838901422414624A807F0DEFB3C2221
:106920004146484607F0D9FBEB69114843F00103A3
:10693000EB61EB6903F001030893089B6B6943F477
:1069400080136B611CE000BF6C2D00209C24002094
:10695000702D002000740040182500203C000140EC
:10696000113800E0D82400202000014000E100E0C0
:10697000000C0048F200010808100020001002403E
:106980006B6903F480130793079B4FF0020A4FF0E3
:10699000010B0323CDF894A0CDF898B027936B6931
:1069A00043F480136B616B69CDF8A0A003F48013EE
:1069B0000693069B24A90823249303F0F7F86B6938
:1069C000504843F480136B616B69CDF8A0A003F4C9
:1069D00080130593059B24A910232493039303F0AC
:1069E000E5F86A69474842F480126A616A69CDF83D
:1069F000A0A002F480120492049A24A98022249276
:106A000003F0D4F8424641461C2003F0ADFB3E4A59
:106A1000029B4FF0805111604FF0804222609A68D3
:106A20003A49C4F8088002FA0BF2B2FBF1F2013ADB
:106A300062604FF6FF72E260C4F81080484603F0CF
:106A40006FF8039B41461A461AA807F046FB4FF41D
:106A500080531A9394F838305B4513D0D9F800204E
:106A600089F839A091682A4B89F838B00B409360B7
:106A7000936823F4803323F00703936089F839B0D7
:106A800089F83880102200211FA807F026FB0F2369
:106A9000219394F8393003F0FF0213B91D4B83F8AA
:106AA00038201C492068022381F83930043102F073
:106AB0002BFF236818481A6A22F001021A628342E7
:106AC0009A69196A00F05081B3F1804F00F04C814F
:106AD000A0F59430834200F0478100F58060834246
:106AE00000F0428100F59630834200F03D8100F5D0
:106AF0004060834200F0388100F58050834240F0CE
:106B0000A28431E1000C004800E100E000512502C0
:106B10008800FEFF9C240020002C0140022F40F042
:106B2000CC8036A98F4C41F82C5D284602F0B4FB8E
:106B30008A23A4F8B030A4F8B2304123A4F8B430CA
:106B40002723A4F8B8304FF48163A4F8BE3019238A
:106B500084F8C030292384F8C13084F8C23070230F
:106B600084F8C630FF234FF015094FF0080B84F866
:106B7000C8304FF4C873A4F8CA302A4641462846A4
:106B8000C4F8A050A4F8A450C4F8A850A4F8B65073
:106B900084F8BA9084F8BB9084F8BC9084F8BD90D7
:106BA00084F8C35084F8C5B084F8C75004F0C8FF17
:106BB000B4F8A4203946284604F0C2FFD4F8A8202F
:106BC0000321284604F0BCFFB4F8B0205146284603
:106BD00004F0B6FFB4F8B2200621284604F0B0FF56
:106BE000B4F8B4200721284604F0AAFFB4F8B62070
:106BF0005946284604F0A4FFB4F8B8204946284670
:106C000004F09EFF94F8BA200921284604F098FF6A
:106C100094F8BB200A21284604F092FF94F8BC2087
:106C20000B21284604F08CFF94F8BD200C21284647
:106C300004F086FFB4F8BE200D21284604F080FF42
:106C400094F8C0200E21284604F07AFF94F8C12061
:106C50000F21284604F074FF94F8C2201021284622
:106C600004F06EFF94F8C3201121284604F068FF59
:106C700094F8C6201421284604F062FF94F8C52039
:106C80001321284604F05CFF94F8C72016212846FB
:106C900004F056FF94F8C8201721284604F050FF4E
:106CA00018212846B4F8CA2004F04AFF04F5807180
:106CB0002846C4F8005102F0EFFA06F189000021DD
:106CC00080B203F0B1FF06F18A0080B2002103F028
:106CD000ABFF06F18B00002180B203F0A5FF06F1A7
:106CE0008C0080B2002103F09FFF06F18D0000218F
:106CF00080B203F099FF06F18F0406F18E00A4B272
:106D000080B2002103F090FF2046012103F08CFFA8
:106D1000204606F19004A4B2022103F085FF20462C
:106D2000012103F081FF204606F19104A4B2022163
:106D300003F07AFF92362046012103F075FFB6B2C8
:106D40002046022103F070FF3046012103F06CFF62
:106D50000221304603F068FF384603F0B7FD37B034
:106D6000BDE8F08F6819002042F003022068DFF8C8
:106D7000A8B342F0F00221F00A019A611962836916
:106D800023F00C03836183698361436843F08003CC
:106D90004360836823F070038360836843F040039B
:106DA0008360836823F4803323F007038360836860
:106DB00043F004034FF0000883602BA970232B934A
:106DC000CDF8BC80CDF8C080CDF8C480CDF8B880B7
:106DD000CDF8B480CDF8B08002F048FD23685A6841
:106DE00022F070025A605A6842F050025A60012341
:106DF00084F83930142241460BF1B00924A807F079
:106E00006CF90BF5827A54224146484607F065F941
:106E10003C224146504607F060F96B69B44A43F0A2
:106E200002036B616B69C4F8042103F0020312933F
:106E3000129BC4F808818023C4F810314FF480738A
:106E4000C4F814314FF48063C4F818312023C4F817
:106E50001C3194F82531C4F80C81C4F820810BB999
:106E60008BF82431136823F47F5323F030034FF061
:106E7000010B4FF0000843F4B463136002215A463B
:106E80003820C4F83C8184F825B1C4F8ECA0C4F8DB
:106E9000289103F069F9974B97484FF080725A6038
:106EA0006B6943F080536B616B6903F080531193FE
:106EB000119B6B6943F080536B616B69C4F8B480BC
:106EC00003F080531093109B8C4BC4F8B030082310
:106ED000C4F8C430C4F8B880C4F8BC80C4F8C0B0EA
:106EE000C4F8C880C4F8CCB0C4F8D0B0C4F8D4801A
:106EF000C4F8D8B0C4F8DCB0C4F8E080C4F8E4B09A
:106F0000C4F8E88000F032FD94F8F0305B4502D020
:106F1000794801F019FD4FF000084FF0010A0723EE
:106F20004FF003092BA97448CDF8B0A02D93CDF8EC
:106F3000AC90CDF8B880CDF8BC80CDF8C08000F022
:106F40009DFA23686E4CC3F838A050224146204673
:106F500007F0C3F8404605F005FA6A4984F84D8009
:106F600000EB0A0E06239EFBF3F203FB12E301EB98
:106F7000830301EB8001E3632164142241461AA8D4
:106F800007F0ABF83C224146204607F0A6F8AB6973
:106F90005D4843F40063AB61AB69CDF874904FF08A
:106FA000020A03F400631993CDF86CA0CDF870A029
:106FB000199B6B6943F400136B616B69CDF878A082
:106FC00003F400131893189B1AA94FF400731A9333
:106FD00002F0ECFD6B694C4843F400136B616B6984
:106FE000CDF878A003F400131793179B1AA94FF458
:106FF00080731A9302F0DAFD6B69434843F400137F
:107000006B616B69CDF878A003F400131693169B9F
:107010001AA94FF400631A9302F0C8FD6B693A484D
:1070200043F400136B616B69CDF878A003F400138F
:107030001593159B1AA94FF480631A9302F0B6FDBD
:107040006B69314843F400136B616B69CDF878A02C
:1070500003F400131493149B1AA94FF400531A93CA
:1070600002F0A4FD6B69284843F400136B616B695F
:10707000CDF878A003F400131393139B1AA94FF4CF
:1070800080531A9302F092FD424641461A2003F0C3
:107090006BF8184B4FF080621A601C4BC4F81080DC
:1070A00084E808016A6802F00C03082B36D14FF41B
:1070B000701191FAA1F1B1FA81F1154B0F25DB6A3C
:1070C00095FAA5F5B5FA85F503F00F00EBB220FAB5
:1070D00003F30198034402F4701298790D4BB3FB4B
:1070E000F0F0C9B2019BCA401A44937D434316E0B5
:1070F0000804024000E100E04C250020000100509F
:10710000FC2300201410002000100048002C014037
:107110000010024000127A009C240020394B3A4DA6
:107120004FF0000844F620625B00C4F80880B3FB0F
:10713000F2F3C4F81480E360284602F0F1FC142254
:1071400041461FA806F0C9FF4FF4803394F8382059
:107150001F9320232093012A4FF00203219319D07B
:107160002A6885F83930936823F4803323F0770355
:1071700043F4803343F020039360D36823F040034B
:10718000D360D36823F48043D360012385F839307A
:1071900085F838801C22002124A806F09EFF94F870
:1071A00038206023012A2493174B60D0022283F8F1
:1071B00039201B68154D1A6A22F001021A621A6AF8
:1071C0005868996921F4803121F07301AB4241F094
:1071D00060011DD005F50065AB4219D005F540658D
:1071E000AB4215D005F58065AB4211D005F5806541
:1071F000AB420DD005F50065AB4209D022F002028A
:1072000021E000BF00127A00FC230020002C014086
:107210008E4DAB4222F00E0213D005F50065AB4255
:107220000FD005F54065AB420BD005F58065AB424C
:1072300007D005F58065AB4203D005F50065AB428C
:1072400001D120F4407058609961002159631A629D
:107250009A6942F008029A619A6922F004029A61DE
:107260009A699A61012384F8393084F8381094F8C7
:107270003830774D012B1DD002234FF0010885F8DF
:10728000393024A985F83880286802F0EFFA2B6895
:1072900028999A6942F400629A619A6922F480629C
:1072A0009A619A6942EA01229A61002385F839803D
:1072B00085F8383094F83820654B012A5CD00222DA
:1072C00083F839201B68249D1A6A22F480721A629E
:1072D0001A6A5868D96921F4803121F07301294371
:1072E000269D22F4007242EA0522584DAB4207D097
:1072F00005F50065AB4203D005F5E055AB420DD175
:10730000279D22F4006242EA0522504DAB4222F44E
:10731000806212D005F50065AB420ED04D4DAB42F8
:107320000BD005F58065AB4207D005F58065AB4213
:1073300003D005F50065AB4207D1299D20F44050EC
:1073400040EA05102A9D40EA05105860D961259948
:10735000D9631A62DA6942F00802DA61DA6922F066
:107360000402DA61D969289A0A43DA61012384F8B0
:107370003930002384F838302C2200212BA806F065
:10738000ACFE4FF480532F9388232E934FF4006369
:107390002B9394F838204FF480632C934FF40053D0
:1073A0003093012A4FF480433593294B06D01A6855
:1073B00047F688415164002283F8382094F8383029
:1073C0002349012B1BD00B689A6822F070029A6047
:1073D0009A6842F010029A605A6842F001025A60BC
:1073E0005A6822F004025A605A6842F004025A6055
:1073F000DA6842F02002DA60002381F83830164D56
:107400004FF0000B28225946284606F066FEE46835
:107410006C624FF0010A4FF064094FEA0448C5F866
:1074200018A0C5F81C90C5F820802822594605F1FF
:10743000500006F052FEC5F868A0C5F86C906C6765
:10744000C5F8708039E442F001028FE4002C01405D
:10745000FC2300200040014068190020BFF34F8F3B
:107460000449054BCA6802F4E0621343CB60BFF3E2
:107470004F8FFEE700ED00E00400FA05F0B597B08D
:107480000023009390F84030012B00F0EB8003685C
:107490009C680122670780F8402000F1D9804D6880
:1074A0000C68042D4FF006020AD86A431E6B1F2594
:1074B000954026EA050504FA02F22A431A6326E0FB
:1074C000092D0BD86A435E6B1E3A1F25954026EAAC
:1074D000050504FA02F22A435A6318E00E2D0BD870
:1074E0006A439E6B3C3A1F25954026EA050504FA3F
:1074F00002F22A439A630AE06A43DE6B5A3A1F2576
:10750000954026EA050504FA02F22A43DA639A68EE
:1075100012F00C0F78D1092C4FEA44028E680CD976
:107520001519A5F11E029F690725954027EA050553
:1075300006FA02F22A439A6109E05F6922440725AC
:10754000954027EA050506FA02F22A435A61DA68ED
:107550004F69C2F3C102520097400A69013A4FEAEB
:10756000846E032A2CD8DFE802F0020D18221A6E6E
:10757000814E164046EA0E0646F0004646EA0702ED
:107580001A6641E05A6E7C4D154045EA0E0545F0FD
:10759000004545EA07025A6636E09D6E764A2A4063
:1075A00042EA0E0242F000423A439A662CE0DD6E57
:1075B000714A2A4042EA0E0242F000423A4322E077
:1075C0001A6E02F0F842724502BF1A6E22F00042B3
:1075D0001A665A6E02F0F842964502BF5A6E22F0C1
:1075E00000425A669A6E02F0F842964502BF9A6EC1
:1075F00022F000429A66DA6E02F0F842964503D114
:10760000DA6E22F00042DA669A6802F00302012A7A
:1076100002D11A68D60719D4CA68012A24D0D3F82F
:10762000B0100122A24021EA0202C3F8B020B3F157
:10763000A04F3DD05149524A524DAB4208BF0A4675
:10764000102C37D1916811F4000F3FD0002304E0D3
:10765000436C43F0200343641346002280F840202B
:10766000184687E0022085E0D3F8B050A2402A43B4
:10767000092CC3F8B0208D680DD904EB4401A1F1A9
:107680001B029E690721914026EA010105FA02F2D8
:107690000A439A61CBE7621C5E6902EB4202072152
:1076A000914026EA010105FA02F20A435A61BEE757
:1076B000324AC5E7112C03D1916811F0807FC4E7ED
:1076C000122CC3D1916811F4800FBEE7B3F1A04F23
:1076D0002C490DD08B4202D14FF0A04108E02A493D
:1076E0002A4D8B4201D1019503E0AB4218BF002126
:1076F0000191996801F00301012902D11968CD07B0
:1077000009D4019969B18D6805F00305012D08D1EF
:107710000968C90705D5436C43F02003436401237E
:107720009BE7102C14D1B3F1A04F8FD1936843F491
:1077300000039360164B174A1B68B3FBF2F20A234F
:1077400053430093009B002B80D0009B013BF8E744
:10775000112C07D1B3F1A04F7FF478AF936843F0B9
:10776000807305E0122C7FF471AF936843F48003BB
:1077700093606BE717B0F0BD00F0FF83000300508B
:1077800000070050000100500004005000050050A8
:107790001010002040420F00036870B59C68640719
:1077A00000F1D08090F84040012C00F0CB80012403
:1077B000B3F1A04F80F8404002D0634CA34201D106
:1077C000624C00E0624CA46814F01F0F0CBF01244F
:1077D0000024002C00F0B1809C6804F00304012C0C
:1077E00040F091801C68E60740F18D80446C24F4E1
:1077F000706424F0010444F48074B3F1A04F446435
:1078000002D0514CA34204D1504CA468E6060BD0E0
:1078100004E04F4CA468E50606D017E0B3F1A04F92
:1078200002D04C4CA34207D1446C24F4801444642D
:10783000DC68A4011CD515E0446C44F48014446455
:10784000414CA34209D14FF0A04407E0414CA34270
:10785000EAD0446C44F4801444643E4CE468C4F3BD
:1078600040642CB1446C24F4405444F48054446487
:10787000446C14F480541CBF846C24F006048464AB
:10788000002480F84040C46B3348A0623348E06273
:10789000334820631C201860586840F0100058607E
:1078A000D86840F00100D86094F82000012824D066
:1078B000012084F82000022084F821002068056857
:1078C00025F0010505604260626803F14006102A58
:1078D0000BBF81608660C660C160026842F0020230
:1078E0000260026842F004020260026842F008028C
:1078F0000260026842F0010202609A6842F00402EB
:107900009A60002070BD9D68164C2C406CB99C6834
:1079100044F001049C60144C26681D68ED073FF597
:1079200065AF2568AD1B022DF7D9436C43F01003FA
:107930004364836C43F001038364002380F8403088
:10794000012070BD022070BD0001005000030050F6
:10795000000700500004005005970008D596000865
:10796000C19600083F0000801C1F002030B597B072
:10797000002200920446002863D0436CD90644D408
:10798000436C0BB100222EE083640365C36480F86E
:10799000403003689B68DB00F4D402F019FC636C90
:1079A000DD0602461FD4F0B9636C23F4885323F03C
:1079B000020343F00203636423689A6822F0405292
:1079C0009A609A6842F080529A60794B794A1B68B3
:1079D000B3FBF2F20A2353430093009B002BD1D058
:1079E000009B013BF8E723689968C90002D59B68B2
:1079F0009D000AD5636C23F0120343F01003636407
:107A0000A36C43F00103A3640122636CD80612D473
:107A10008AB92368996849070DD4616C21F4817192
:107A200041F00201B3F1A04F616463490BD08B4276
:107A300040F0AA80B4E0636C23F0120343F010031B
:107A400063640120B2E05D4A0191996801F003018D
:107A5000012902D11968CD070DD40199002900F040
:107A60008C80886800F00300012840F08680096857
:107A7000C80740F18280A26BE568E069012AA2682C
:107A800042EA05020CBF00214FF4805142EA403225
:107A90001143626A012A11D130B9A26A013A41EA5E
:107AA000424141F4803109E0626C22F0220242F04E
:107AB00020026264A26C42F00102A264E26A012A1E
:107AC0002FD03F48834203D000F58070834214D109
:107AD000B2F5307F14D0B2F5807F14D0B2F5E07FDC
:107AE00014D0B2F58A5F14D0B2F5845F14D0B2F529
:107AF000865F08BF4FF4C07210E022F480520DE0A0
:107B00004FF4E0720AE04FF4307207E04FF48072F5
:107B100004E04FF4707201E04FF4A072206B014357
:107B200011439A6812F00C0F0BD1DA68A06922F4A5
:107B3000804222F00202DA60626B520042EA803236
:107B40001143D8681F4A024011432269D960012AB3
:107B500008BF216A1A6B03BF01F1FF3122F00F0247
:107B60000A4322F00F0200201A63A064636C23F022
:107B7000030343F00103636418E0916821F440308B
:107B800061680143916076E70D480F49834201D156
:107B9000019103E08B420CBF019001920B4A54E724
:107BA0004FF0A042019202F540724EE717B030BD8F
:107BB0001010002040420F00000100500003005050
:107BC0000004005007C0F0FF0005005000070050FF
:107BD000F7B51C460F46164601461A460DF106003B
:107BE000089D06F06FFA2246394601A806F06AFAA7
:107BF000224631460DF1020006F064FABDF8063067
:107C0000BDF804209A4201D9044B04E0BDF80220DB
:107C10009A4201D2024B2B6003B0F0BD320009063C
:107C2000310009062DE9F0410B4C0C4D0746884602
:107C300004F5807654F8043C4BB12368AB4206D17E
:107C4000A369AB4203D16369414638469847203463
:107C5000B442EFD1BDE8F081041B00201EAB11CA75
:107C6000F0B58C46059FEAB1E3B1DFB10025DFF83E
:107C70003CE02C4634B955F80E1005EB0E060029F1
:107C800008BF34462035B5F5807FF3D154B1636128
:107C9000054B6360E3610123A060C4F80CC022615E
:107CA000A7612360F0BD00BF1EAB11CA001B0020FE
:107CB00070B51E46154605F0C9FD4FF6FF73984294
:107CC00012D00A4C0621484323180434D978205A8C
:107CD000074B01F00F02B24228BF32462946184432
:107CE000BDE8704006F0EEB970BD00BF6801010844
:107CF0005C10002070B51E46154605F0A7FD4FF636
:107D0000FF73984212D00A4C0621484323180434CA
:107D1000D978084B01F00F02215AB24228BF3246EF
:107D200028461944BDE8704006F0CCB970BD00BFCC
:107D3000680101085C1000202DE9F04F0B0485B0AC
:107D4000834602D5C1F30E0406E005F0EBFB4FF6C7
:107D5000FF739842044670D0BBF1010F06D1384E34
:107D6000384B06EB041604EBC40208E0BBF1000F2D
:107D700016D1354E354B06EB041604EBC40203EB6B
:107D800042094FF0000A33F81230314A09F1020972
:107D9000574640F674015FFA8AF0984216D301E024
:107DA00000273E464FF6FF73BBF1010F338004D12D
:107DB000284B03EB0414A7733FE0BBF1000F3CD149
:107DC000254A1C2303FB0424A77236E039F81A0065
:107DD000062505FB0020C57890F80580007905F0A0
:107DE000070500EB0828042D1FFA88F801D88845FC
:107DF0000CD908EB052000F5C04080B20391029237
:107E0000019305F065FB0399029A019B4FF0000E68
:107E10006DB24FFA8EF0A84205DA404426F81E00F3
:107E20000EF1010EF5E725EAE5752F44FFB2072FA5
:107E300006EB45060AF1010AADD905B0BDE8F08FA1
:107E40005C1C00206C1E0020DC1C00205C1D00203F
:107E500068010108EC1D0020802E00202DE9F74F5D
:107E600006468A4605F05EFB4FF6FF75A84201D133
:107E70000020A0E000EBC0074FEA470896B90AF5DA
:107E8000CF501F30314680B205F000FD4B4A22F83A
:107E90001760334603EB080111440233102B4D8069
:107EA000F8D111E00AF5AF501F30002180B205F083
:107EB000EDFC434A002322F8173008EB030111447C
:107EC0000233102B4D80F8D14FF6FF739842CFD07C
:107ED0003C4B13F83070043B082F28BF082703EBF6
:107EE000C0044FF0000847454DD9A37B94F80F908C
:107EF000627B94F80CB0009203EB09291FFA89F316
:107F000051463046019305F00DFB4FF6FF7908F11D
:107F1000010848455FFA88F8CBF3C20B49D09DE8C9
:107F20000C0000EBC00008EB00051146184696B99E
:107F300005F08CFC484508D0234A062303FB0023A8
:107F4000DB7803F007039B4503D04FF6FF731B4A12
:107F500011E01A4B13E005F079FC484508D01A4AA5
:107F6000062303FB0023DB7803F007039B4505D0C2
:107F7000134A4FF6FF7322F815301AE0104B23F81E
:107F800015000834AFE75146304605F0CBFA4FF6FE
:107F9000FF73984207D000EBC0000EB9074B00E01A
:107FA000074B23F8107030465146FFF7C5FE0120FD
:107FB00001E00027E5E703B0BDE8F08F5C1D00207D
:107FC0006C1E00205C11010868010108F0B50F4B20
:107FD0000F4A104F1C2402EB001204FB00304FF636
:107FE000FF75867A0023D8B2B0420DD232F8134022
:107FF000AC4209D011F803E03C5D744503F1010384
:10800000F1D00130C0B2F0BD0020F0BD802E0020C4
:10801000DC1C00205C1000200D4B0E4AF0B503EB79
:1080200000131C250C4F023B0C4605FB00224FF6AB
:10803000FF76601A957AC0B2854207D933F8025F9D
:10804000B54203D0785D04F8010BF2E7F0BD00BF44
:10805000DC1C0020802E00205C100020F0B50B4AB4
:108060000B4B0C4F000102440344967B4FF6FF7507
:108070000A46501AC0B2864207D933F8024FAC42C2
:1080800003D012F8010B3855F3E7F0BDEC1D0020CA
:108090005A1C00205C1000202DE9F743C1F30801B1
:1080A0000131074605F03EFA4FF6FF73984201464C
:1080B00002D14FF00060A9E0C300744E57B9744874
:1080C0001C220B4402FB010206EB4308128936F81E
:1080D00013300BE003445B0006F5887806EB0012D2
:1080E00098443344B2F89820B3F8103196F8A3417D
:1080F00096F8A001654DDBB2082C00F0E0008DF889
:10810000073001D9634881E0002C43D14FF00109C9
:10811000402885F8AC9185F8AD4106D149460DF16E
:10812000070005F0A9FF4C46ACE095F8A431082BF8
:108130001DD8100401D4584868E0A8F80030002B7E
:1081400000F09D80D5F8B00120B105F07DFFC5F8A5
:10815000B04197E022464FF6FF7038F81350854241
:1081600009D10AB186F8A4310023A8F800304B48A1
:1081700005F06AFF86E0013B13F0FF034FF00102B8
:10818000EBD1A1F5004189B2384686F8A431FFF75A
:10819000D3FD74E0402827D138F814204FF6FF7340
:1081A0009A4211D03E4906235343CA18CB5C85F846
:1081B000BA31937885F8B931D378507885F8BB0116
:1081C000DB0003F0380306E0002385F8BB3185F8B7
:1081D000BA3185F8B93185F8B8313248432386F889
:1081E000B43105F07FFA4CE0002BA4D195F8A6310C
:1081F00095F8A70195F8A51103EB002080B205F0D2
:1082000025FB4FF6FF73984204D1274805F01CFF69
:10821000002437E0224A95F8A451062303FB0023EB
:10822000DB788DF80730D90001F03801A942ECD194
:1082300027B903F05003502BE7D105E0012FE4D11B
:108240009A06E2D51B06E0D596F8AC210F4BA24268
:108250000ED1621C83F8AC2193F8AD212A44D2B22E
:10826000402A83F8AD2108D90C4AC3F8B02104E0B4
:10827000002283F8AC2183F8AD2128F8140005F022
:10828000D1FA0124204603B0BDE8F0835C1D002034
:10829000802E00201100090600000106420004069D
:1082A00068010108101F0020410004062DE9F34772
:1082B000C1F308010131B34E80B996F818E0B24D10
:1082C00002461C2707FB025493B2E4898C4213D068
:1082D000013293B29E45F5D8AC4819E1777EAC4D9A
:1082E000002205EB021493B2A4898C4204D001321F
:1082F00093B29F42F5D8EFE7A64C94F8A35194F8B7
:10830000A0116DB9402907D108B9052300E0022367
:108310008DF80430012130E19F4805F095FE7FE1A2
:1083200028B9994F1C2202FB0372178903E004EB62
:108330000312B2F89870C1F38102C2F10402012D58
:10834000D2B240F0C580402923D13B0454BF002362
:10835000802384F8BB3128B994F8BB3143F0400343
:1083600084F8BB31002384F8BA31C7F3022384F8C0
:10837000B9318A4884F8B871432384F8B43105F0E0
:10838000B1F9002840F04C8144F6300005F0A0F827
:1083900046E1042A01D08248BAE094F8A52194F875
:1083A000A4711202B9187F291FDD6FF4807901EBE7
:1083B000090EBEF17F0F18D96FF4B06801EB080EFB
:1083C000BEF17E0F11D96FF4C06C01EB0C0EBEF143
:1083D0007E0F0AD9A1F5DC6EBEF11F0F05D96FF42F
:1083E000E06E8E44BEF1FE0F01D86E4890E050BBA7
:1083F00065481C2606FB0306368916F4004F07D194
:10840000C6F30A06B14203D094F9A711002963DA32
:1084100094F9A7611C2101FB03013A43002E0A8154
:10842000BEBF6FEA42426FEA52420A811C2202FB3F
:1084300003030022D4F8C0111A769A7E59825A7624
:1084400005F0F0F9ECE01F01E319B3F8989019F486
:10845000004F03D1C9F30A03994205D1524D4FF0A1
:10846000000805F50C7A08E04A4B93F9A731002B78
:1084700032DAF3E72835AA450DD055F8043C4B45D0
:10848000F8D145F8048CC5F80080C5F81C80281F79
:1084900005F06AFAEEE796F8223094F8A42194F8F1
:1084A000A50103F07F0342EA002094F9A72186F892
:1084B0002230E319002AA3F8980006DA6FEA404058
:1084C0006FEA5040A3F898008EE005F0D3F88BE0F7
:1084D000232903D13E0417D4344819E0022D15D1C5
:1084E000402940F0858050B9274C1C2202FB0343F1
:1084F0009B7EF12B7FF40CAF8DF804000AE704EBB0
:10850000031494F89F3003E7022D71D020B128485E
:1085100005F09AFD002583E0032D1FD1402909D1E4
:10852000194C1C2202FB03439B8A03EB83035B0071
:108530009BB21CE0022A7FF42EAF13491C2202FBDF
:10854000031394F8A51194F8A421187602EB0122E4
:1085500009320A2192FBF1F29A8245E0052DD6D12B
:10856000402927D1084C1C2202FB03431B8A8DF8AB
:1085700004301B0A8DF80530022101A805F07CFDAE
:1085800034E000BF182E0020802E002000000206DC
:10859000EC1D00205C1D002002000106101F0020C1
:1085A0001000070630000906241F00200000010605
:1085B00011000906022A7FF4EEAE94F8A42194F883
:1085C000A511194802EB012189B21C2202FB03020A
:1085D00011F4004F18BF47F6FF7111821C2202FBF5
:1085E0000303D4F8C011598205F01CF9012517E0E6
:1085F000012A7FF4D0AE94F8A421111DC9B201293B
:108600007FF6F3AE30B9084C1C2101FB03439A7688
:108610005A76E9E7054C04EB031383F89F20E3E760
:10862000284602B0BDE8F087802E00205C1D0020A7
:108630005B4A536B116870B501EB0014D4F8B0516C
:1086400005F004059D6025B9D4F8B0516D0D1D608D
:1086500003E0D4F8B051ED085D60D4F8B05105F0F6
:108660000205DD60D4F8B45105F00F051D61D4F8A2
:10867000B441C4F30724DC6101EB0014D4F8B85111
:108680001D75D4F8B8512D0A5D75D4F8B8512D0C6C
:108690009D75D4F8B8512D0EDD75D4F8BC511D76FA
:1086A000D4F8BC512D0A5D76D4F8BC512D0C9D76C2
:1086B000D4F8BC41240EDC7638B9CB6843F02003F3
:1086C000CB604B6923F0020306E00B6943F0200303
:1086D0000B614B6923F010034B6192F83930222B68
:1086E00015D12F4B1B68596921F480715961596963
:1086F00021F400715961596921F480615961596906
:1087000021F400615961596921F40041596192F8DD
:108710003910234B32290CBF1221012183F8391063
:108720001368DB68DB0641BF1E4991F8243043F033
:10873000080381F824301C4991F8B63491F8B70445
:108740005C1C04F00704A04211D0556B0C2000FB08
:1087500003102D68A0F85C54556B03EB43032D699F
:1087600080F85E549B00002001F57D7107E00D4A02
:1087700092F8243043F0080382F824300CE0556B63
:1087800005442E7DC5180D440130082885F8606029
:10879000F5D1054B83F8B64405F04CF9002070BDC7
:1087A000402E0020182E00205C1D0020F7B51C462E
:1087B0000F46164601461A460DF10500089D05F0C4
:1087C00081FC224639460DF1060005F07BFC22466D
:1087D00031460DF1070005F075FC9DF805309DF858
:1087E00006209A4201D9054B04E09DF807209A42E1
:1087F00001D2034B2B6003B0F0BD00BF320009066D
:1088000031000906F0B585B01C460F4616460146F4
:108810001A4601A80A9D05F055FC2246394602A8D1
:1088200005F050FC2246314603A805F04BFC019BA5
:10883000029A934201D2044B03E0039A934201D976
:10884000024B2B6005B0F0BD32000906310009066D
:10885000F7B51C460F46164601461A460DF10500AF
:10886000089D05F02FFC224639460DF1060005F063
:1088700029FC224631460DF1070005F023FC9DF945
:1088800005309DF906209A4201DD054B04E09DF973
:1088900007209A4201DA034B2B6003B0F0BD00BF02
:1088A0003200090631000906F7B51C460F46164688
:1088B00001461A460DF10200089D05F003FC224610
:1088C000394601A805F0FEFB224631460DF10600AF
:1088D00005F0F8FBBDF90230BDF904209A4201DD34
:1088E000044B04E0BDF906209A4201DA024B2B60EA
:1088F00003B0F0BD3200090631000906F0B585B0BD
:108900001C460F46164601461A4601A80A9D05F068
:10891000D9FB2246394602A805F0D4FB224631464F
:1089200003A805F0CFFB019B029A934201DA044BA6
:1089300003E0039A934201DD024B2B6005B0F0BDCA
:10894000320009063100090638B5012580F840508B
:10895000044601F03DFC30BB236865649A6822F050
:1089600080429A609A6842F000429A60104AD2F8B7
:10897000C051996800290FDAD2F8C011491B0A29A1
:10898000F7D9636C23F0120343F0100363640023F0
:1089900084F84030012038BD636C23F0030343F0BA
:1089A0000103636400E02846002384F8403038BDAA
:1089B0005C1D002030B50B4CD4F8B8546C6824F022
:1089C0007F7424F4593424F47F7424F00304234383
:1089D0001A43C0F3090042EA000343EA0141696017
:1089E00030BD00BF5C1D0020204BD3F8B82410B56B
:1089F000946914F0100403D1204610BD441C03D127
:108A00009469A406FAD50FE020B1D3F8C041641AE6
:108A1000A042F5D2202283F8F924002283F8FA2418
:108A200083F8F824032010BD1021D1612021D161E9
:108A30009169880744BF002191629169C9075EBFAF
:108A4000916941F00101916150680949014051600B
:108A50000422C3F8FC24202283F8F924002283F89E
:108A6000FA2483F8F824012010BD00BF5C1D00200B
:108A700000E800FEF8B5144E05460F46D6F8B834A7
:108A8000114C9B6913F0200F1AD139462846FFF785
:108A9000ABFFB8B925B1D6F8C031DB1B9D42EDD292
:108AA000D4F8FC3443F02003C4F8FC34202384F8C9
:108AB000F934002384F8FA3484F8F8340320F8BD3C
:108AC0000020F8BD0120F8BD5C1D00202DE9F84F05
:108AD000784C1D4694F8F934202B81465BD194F8EC
:108AE000F834012B57D00123D4F8C071D4F8B864FE
:108AF00084F8F834B36903F40043002B4ED0D4F863
:108B0000C0016C4BC01B1928F4D9202283F8F9242A
:108B1000002283F8FA2483F8F82439E039462846FD
:108B2000FFF762FF002840F0B080681C7BD1D4F8CA
:108B3000B82493699907F1D5D6F8DC34591CC6F8E6
:108B4000DC141B789362B6F8E234013B9BB2A6F8C2
:108B5000E234B6F8E034013B9BB2A6F8E034002BD7
:108B600059D1B6F8E2349BB2002B54D0936903F08C
:108B70008003002B41D16B1CF8D0002D40F0888081
:108B8000202384F8F934002384F8FA3484F8F83484
:108B90000320BDE8F88F0220BDE8F88F212084F87B
:108BA000F904102084F8FA040020C4F8FC04A4F8A6
:108BB000E224B4F8E2243F4BC4F8DC1492B2FF2A5A
:108BC000C4F8EC040ED9FF21A3F8E0144FF0807232
:108BD0004FF40053DFF8DC804846FFF7EBFEC24657
:108BE000464618E0B3F8E21489B2A3F8E0144FF057
:108BF00000724FF40053C9B2ECE7B4F8E2349BB210
:108C0000FF2B4CD9FF21A8F8E01400234FF080720D
:108C10004846FFF7CFFEB4F8E234DFF898B09BB2D5
:108C2000002B84D115E02DB1DAF8C031DB1B9D4259
:108C3000BFF47DAFD4F8FC3443F02003C4F8FC3417
:108C4000202384F8F934002384F8FA3484F8F834C3
:108C50001BE039462846FFF70DFF30B1DBF8FC3446
:108C6000042B95D10120BDE8F88FDBF8B834124A07
:108C70002021D9615C6822405A608BF8F9148BF886
:108C8000F8048BF8FA04BDE8F88FD4F8FC34E7E771
:108C9000D4F8C031DB1B9D42BFF468AF70E7B8F871
:108CA000E21489B2A8F8E01400234FF00072C9B2B0
:108CB000AEE700BF5C1D002000E800FE164BD3F8B5
:108CC0000425516821F0E0015160D3F80815B1F591
:108CD000827F0BD1D3F80C15B1F5004F02D0B1F55E
:108CE000806F03D1116821F040011160D3F82C1579
:108CF000B1F5005F08D110684DF6FF7101401160B9
:108D0000116841F400511160012283F861250022AD
:108D100083F86025032070475C1D0020024A136819
:108D200001331360704700BF1C1F00207047009B79
:108D300000201870704770B5A0F5C044A2B2B2F51B
:108D4000005F50D2C0F30A03602B4FEAE4243FD007
:108D500004D8072B0AD0402B29D070BD40F2024224
:108D600093420BD0B3F5A26F10D070BD00293AD159
:108D70001D4A3425022305FB042230E099BB1A4A20
:108D8000342303FB04220432022328E001292AD0E1
:108D9000154A342303FB04240229226B02D1042345
:108DA00088321CE003291ED10423943217E0D1B984
:108DB0000D4E34256543721935441C320223FEF7EB
:108DC00099FFAA8BE0B20121BDE8704003F0D8BE44
:108DD00049B9054B342202FB04322A320123BDE893
:108DE0007040FEF787BF70BDC8220020A0F5C042CA
:108DF00093B2B3F5005F73B5064680F0B080C0F360
:108E00000A03602B4FEAE22500F0998007D8402B37
:108E10003BD0412B42D0072B40F0A1800AE040F22A
:108E2000024293420FD0B3F5A26F16D0612B40F0EF
:108E300096808CE0002940F094804D4A342602232D
:108E400006FB052277E0002940F08B80484A342356
:108E500003FB0522043202236DE0012906D102AA98
:108E600042F6E06342F8043D042364E0404A3423C0
:108E700003FB05220229126B02D1042388325AE037
:108E800003296ED10423943255E0002969D1384A70
:108E9000342303FB05221C3202234CE0002960D15D
:108EA00008463349342303FB051393F82C309C1EEA
:108EB000E4B2022CA3F1030298BF0120012A09D8D1
:108EC0000246042B42F0020006D1022C42F00600BA
:108ED00049D806E0062B00D00BB940F00800022C60
:108EE00001D840F010000246012B40F0200008BFDE
:108EF00042F06000042B40F4007013D191F8D030A0
:108F000083B11B4A342303FB052393F92B20012A49
:108F100008D11B6B93F89F2093F8CC3062F38A2022
:108F200063F30D3034226A438B181A46D8831E32FD
:108F3000022300213046FEF7BBFE002016E081B977
:108F40000B4A342303FB05222A320123F3E741B9FC
:108F5000074A342303FB05222B320123EBE70120D0
:108F600004E0044802E042F02600C3E702B070BD0E
:108F7000C8220020110009067FB50546A5F5C046A8
:108F8000104601220392B2B2B2F5005F0C461946B8
:108F90009DF8243055D2C5F30A05602D45D006D87A
:108FA000402D2FD0412D4AD0072D4AD109E040F263
:108FB0000242954210D0B5F5A26F17D0612D40D175
:108FC0003DE03CB904AA42F8044D0092089AFFF72C
:108FD0006BFC36E01C4B33E0002CFBD104AA42F8BA
:108FE000044D0092089AFEF7F3FD2AE0023C012CA2
:108FF000F0D804AA002442F8044D0092089AFFF722
:1090000001FC1EE0002CE5D104AD1A4625F8064D02
:109010000146284605F056F8BDF80A202146C6F359
:10902000C72003F0ADFD03900BE0002CD2D104AAC1
:1090300042F8044D0092089AFFF70AFC01E0034B46
:109040000393039804B070BD1100090602000106E5
:1090500070B58E4D8E4E8F4C01233370737003F0BC
:1090600029FD2B686A68C4F8D430C4F804210223AF
:109070003370737003F01EFD2B686A68A4F8D83053
:10908000A4F8082103233370737003F013FD2B68D9
:109090006A68C4F8DC30C4F80C21042333707370A0
:1090A00003F008FD2B686A68C4F8E030C4F81021AA
:1090B00005233370737003F0FDFC2B686A68A4F815
:1090C000E430A4F8142106233370737003F0F2FC2B
:1090D0002B686A68A4F8E630A4F8162107233370D9
:1090E000737003F0E7FC2B686A68A4F8E830A4F812
:1090F000182108233370737003F0DCFC2B686A6856
:10910000A4F8EA30A4F81A2115233370737003F021
:10911000D1FC2B686A68A4F8EC30A4F81C21092360
:109120003370737003F0C6FC2B686A6884F8EE3005
:1091300084F81E210A233370737003F0BBFC2B6884
:109140006A6884F8EF3084F81F210B233370737042
:1091500003F0B0FC2B686A6884F8F03084F82021B2
:109160000C233370737003F0A5FC2B686A6884F8D5
:10917000F13084F821210D233370737003F09AFCD1
:109180002B686A68A4F8F230A4F822210E23337009
:10919000737003F08FFC2B686A6884F8F43084F8ED
:1091A00024210F233370737003F084FC2B686A68EA
:1091B00084F8F53084F8252110233370737003F0A0
:1091C00079FC2B686A6884F8F63084F8262111232C
:1091D0003370737003F06EFC2B686A6884F8F730A4
:1091E00084F8272112233370737003F063FC2B681B
:1091F0006A6884F8F83084F8282114233370737077
:1092000003F058FC2B686A6884F8FA3084F82A2145
:1092100013233370737003F04DFC2B6894F8FB201C
:1092200084F8F9302A6016236A68337084F829219B
:10923000737094F82B316B6003F03CFC2B686A6808
:1092400084F8FB3084F82B2117233370737003F0FC
:1092500031FC2B686A6884F8FC3084F82C211823D0
:109260003370737003F026FC2B686A68A4F8FE3034
:10927000A4F82E2119233370737003F01BFC2B68A4
:10928000A4F800316B68A4F8303170BD00280020CC
:10929000FC270020C82200202DE9F0470F46064693
:1092A0001D4D68B1002301282B70AB702B71AB7181
:1092B0000CD138226B706B71EB71EA7002230AE0FB
:1092C0003823AB7028702871A871022300226A70BD
:1092D000EA706A71EA71C3F10304DFF840904FEA63
:1092E000440A4FF0000808EB0A0009EB00010134C2
:1092F000284403F0C5FB042C08F10208F3D1074B06
:109300001E443379B2781B0243EA0243B279134315
:109310003B60BDE8F08700BFEC270020F427002069
:10932000014B1B68184700BF0400000870B5AE4C25
:10933000342303FB0043054693F82F00002840F038
:10934000B981002D40F09581294604F59A7000F00E
:1093500041FB294604F59A7000F03CFA042104F51B
:109360009A7000F037FB042104F59A7000F032FA8D
:10937000082104F59A7000F02DFB082104F59A707D
:1093800000F028FA04F59A7000F0E2FB94F88232BB
:10939000052B10D094F88232022B0CD094F8823234
:1093A000042B08D1D4F85022136823F00103136072
:1093B000012384F88232D4F83C228C48136823F0CD
:1093C00001031360012384F84032D4F81032884A34
:1093D000834216D087498B4213D004318B4210D080
:1093E00004318B420DD004318B420AD004318B42C0
:1093F000166A0CBF6FF001016FF00201314011627B
:1094000026E08342166813D07A498B4213D0043188
:109410008B4213D004318B4213D004318B4213D0D2
:1094200004318B420CBF6FF001016FF002010DE0BF
:109430006FF400110AE06FF4800107E06FF0005153
:1094400004E06FF0804101E06FF0004131401160B5
:1094500094F83912C9064BD4634991F8391202299C
:1094600046D1834216D063498B4213D004318B42DC
:1094700010D004318B420DD004318B420AD004311C
:109480008B42506A0CBF6FF001016FF00201014086
:10949000516226E08342566813D056498B4213D05E
:1094A00004318B4213D004318B4213D004318B42F0
:1094B00013D004318B420CBF6FF001016FF0020139
:1094C0000DE06FF400110AE06FF4800107E06FF027
:1094D000005104E06FF0804101E06FF00041314045
:1094E00051601A6822F001021A60012384F83932AF
:1094F000414800F02DFBD4F8D4311A6A22F0010261
:109500001A621A6A1A62D4F8D431DA6822F00202B6
:10951000DA60196A41F211120A4042B9196A40F23E
:1095200044420A401AB91A6822F001021A6094F8FB
:10953000C4322D4A012B00F0A180012382F8C432ED
:10954000D2F88432996811F00C0F5BD0D9688E0183
:1095500012D5D2F8A01201290ED1D2F89C22012AEC
:109560000AD1264A1968480602D4013AFAD12DE0F8
:1095700040221A600C2200E06C229968490706D547
:1095800099688E075EBF996841F0100199600C2AB6
:1095900010D09968080706D5996889075EBF996851
:1095A00041F020019960602A02D06C2A04D001E0C9
:1095B000082102E0042100E00C21114A1668986895
:1095C00008421FD01068801B0B28F8D9D4F8C83285
:1095D00043F01003C4F8C832D4F8CC3243F001038E
:1095E000C4F8CC3241E000BFC82200201C0001407A
:1095F00000040140200001409C2400200194090047
:109600001C1F0020DA6822F00102DA60D4F8C022C0
:109610001068036823F001030360274B1E68194696
:10962000036813F0010330D00B689B1BB3F57A7FFE
:10963000F6D9936B43F0200393630021032382F850
:10964000213082F82010D4F8C82242F04002C4F839
:10965000C822D4F88412194E4A6822F010024A60D7
:1096600006F52170BBB100F0B3FD002384F8C432CD
:1096700004E0022D02D1A82102F04FFA342303FBAB
:109680000544012384F82F3070BD012182F8211098
:1096900082F82030DDE700F09BFD0028E5D1D6F808
:1096A000C83223F4885323F0010343F00103C6F8C2
:1096B000C832DAE770BD00BF1C1F0020C82200209E
:1096C000436A5A6C42F040025A649A6C42F00402B7
:1096D0009A647047436A094A93420DD103F18E019F
:1096E00003F19E02002331F8020F91420344FAD1A4
:1096F000034A1B09C2F87431704700BF4C25002093
:109700009C240020436A5A6C12F0500F26D15A6CE8
:1097100042F400725A641A68D26812F4406F0CD195
:10972000DA6952B95A6C22F480725A645A6CD204C3
:109730005EBF5A6C42F001025A640A4A934210D149
:1097400003F19E010022AE3331F8020F9942024428
:10975000FAD1054B1209C3F874217047DB6B1B6B00
:10976000184770474C2500209C24002008B50C4B5E
:109770001A680AB90B4A1A601A680B49C31C23F00D
:10978000030313448B4206D904F096FC0C230360B8
:109790004FF0FF3008BD024910460B6008BD00BF06
:1097A0008C270020602F002000000120BFF34F8F86
:1097B0000449054BCA6802F4E0621343CB60BFF36F
:1097C0004F8FFEE700ED00E00400FA0508B5012028
:1097D000FFF7ECFF03680C2918D8DFE801F0071742
:1097E00017170B1717170F1717171300DA6822F040
:1097F00002020AE0DA6822F0040206E0DA6822F0E7
:10980000080202E0DA6822F01002DA601A6A042024
:1098100000FA01F122EA010119621A6A1A62196A50
:1098200040F244420A401AB9DA6822F08002DA6053
:10983000196A41F211120A4042B9196A40F24442CF
:109840000A401AB95A6C22F400425A64196A41F269
:1098500011120A4042B9196A40F244420A401AB948
:109860001A6822F001021A6000207047036A23F090
:1098700010030362036A30B5446882690D6822F000
:10988000807222F4E64242EA05228D6823F020032A
:1098900043EA05131A4DA84207D005F50065A84212
:1098A00003D005F5E055A8420DD1CD6823F0800323
:1098B00043EA0513124DA84223F0400312D005F5E8
:1098C0000065A8420ED00F4DA8420BD005F580656B
:1098D000A84207D005F58065A84203D005F50065CC
:1098E000A84207D14D6924F4406444EA85048D6997
:1098F00044EA8504446082614A688263036230BD41
:10990000002C014000400140304A0368904212D0D0
:10991000B0F1804F0FD0A2F5943290420BD002F5F7
:109920008062904207D002F59632904203D002F551
:10993000E052904215D14A6823F070031343234A42
:1099400090421DD0B0F1804F1AD0A2F594329042CF
:1099500016D002F58062904212D002F59632904203
:109960000ED01B4A90420BD002F58062904207D085
:1099700002F58062904203D002F50062904203D16A
:10998000CA6823F44073134303608B68C3620B6897
:1099900083620E4B984213D003F5006398420FD0B8
:1099A00003F5406398420BD003F58063984207D0DB
:1099B00003F58063984203D003F50063984201D118
:1099C0000B69036301234361704700BF002C014012
:1099D0000040014003680C2918D8DFE801F00717A0
:1099E00017170B1717170F1717171300DA6822F03E
:1099F00002020AE0DA6822F0040206E0DA6822F0E5
:109A0000080202E0DA6822F01002DA601A6A012025
:109A100000FA01F122EA010119621A6A1A621A4A6D
:109A2000934213D002F5006293420FD002F54062D8
:109A300093420BD002F58062934207D002F5806218
:109A4000934203D002F5006293420DD1196A41F2AC
:109A500011120A4042B9196A40F244420A401AB946
:109A60005A6C22F400425A64196A41F211120A40F7
:109A700042B9196A40F244420A401AB91A6822F0FF
:109A800001021A6000207047002C014003680C2975
:109A900018D8DFE801F0071717170B1717170F175C
:109AA00017171300DA6842F002020AE0DA6842F09F
:109AB000040206E0DA6842F0080202E0DA6842F0E6
:109AC0001002DA60012202FA01F11A6A22EA0102A6
